{
  "_format": "hh-sol-artifact-1",
  "contractName": "CCIPDVNAdapter",
  "sourceName": "contracts/uln/dvn/adapters/CCIP/CCIPDVNAdapter.sol",
  "abi": [
    {
      "inputs": [
        {
          "internalType": "address",
          "name": "_sendLib",
          "type": "address"
        },
        {
          "internalType": "address",
          "name": "_receiveLib",
          "type": "address"
        },
        {
          "internalType": "address[]",
          "name": "_admins",
          "type": "address[]"
        },
        {
          "internalType": "address",
          "name": "router",
          "type": "address"
        }
      ],
      "stateMutability": "nonpayable",
      "type": "constructor"
    },
    {
      "inputs": [],
      "name": "InvalidPayloadSize",
      "type": "error"
    },
    {
      "inputs": [
        {
          "internalType": "address",
          "name": "router",
          "type": "address"
        }
      ],
      "name": "InvalidRouter",
      "type": "error"
    },
    {
      "inputs": [],
      "name": "OnlySendLib",
      "type": "error"
    },
    {
      "inputs": [],
      "name": "ToAddressIsZero",
      "type": "error"
    },
    {
      "inputs": [
        {
          "internalType": "address",
          "name": "_to",
          "type": "address"
        },
        {
          "internalType": "uint256",
          "name": "_value",
          "type": "uint256"
        }
      ],
      "name": "TransferNativeFailed",
      "type": "error"
    },
    {
      "inputs": [],
      "name": "Unauthorized",
      "type": "error"
    },
    {
      "inputs": [],
      "name": "VersionMismatch",
      "type": "error"
    },
    {
      "anonymous": false,
      "inputs": [
        {
          "indexed": true,
          "internalType": "address",
          "name": "admin",
          "type": "address"
        },
        {
          "indexed": false,
          "internalType": "bool",
          "name": "isAdmin",
          "type": "bool"
        }
      ],
      "name": "AdminSet",
      "type": "event"
    },
    {
      "anonymous": false,
      "inputs": [
        {
          "indexed": false,
          "internalType": "uint16",
          "name": "multiplierBps",
          "type": "uint16"
        }
      ],
      "name": "DefaultMultiplierSet",
      "type": "event"
    },
    {
      "anonymous": false,
      "inputs": [
        {
          "components": [
            {
              "internalType": "uint32",
              "name": "dstEid",
              "type": "uint32"
            },
            {
              "internalType": "uint64",
              "name": "chainSelector",
              "type": "uint64"
            },
            {
              "internalType": "uint16",
              "name": "multiplierBps",
              "type": "uint16"
            },
            {
              "internalType": "uint256",
              "name": "gasLimit",
              "type": "uint256"
            },
            {
              "internalType": "bytes",
              "name": "peer",
              "type": "bytes"
            }
          ],
          "indexed": false,
          "internalType": "struct CCIPDVNAdapter.DstConfigParam[]",
          "name": "params",
          "type": "tuple[]"
        }
      ],
      "name": "DstConfigSet",
      "type": "event"
    },
    {
      "anonymous": false,
      "inputs": [
        {
          "components": [
            {
              "internalType": "uint32",
              "name": "dstEid",
              "type": "uint32"
            },
            {
              "internalType": "uint16",
              "name": "multiplierBps",
              "type": "uint16"
            }
          ],
          "indexed": false,
          "internalType": "struct DVNAdapterBase.DstMultiplierParam[]",
          "name": "params",
          "type": "tuple[]"
        }
      ],
      "name": "DstMultiplierSet",
      "type": "event"
    },
    {
      "anonymous": false,
      "inputs": [
        {
          "indexed": true,
          "internalType": "address",
          "name": "feeLib",
          "type": "address"
        }
      ],
      "name": "FeeLibSet",
      "type": "event"
    },
    {
      "anonymous": false,
      "inputs": [
        {
          "indexed": true,
          "internalType": "address",
          "name": "to",
          "type": "address"
        },
        {
          "indexed": false,
          "internalType": "uint256",
          "name": "amount",
          "type": "uint256"
        }
      ],
      "name": "FeeWithdrawn",
      "type": "event"
    },
    {
      "anonymous": false,
      "inputs": [
        {
          "indexed": true,
          "internalType": "address",
          "name": "previousOwner",
          "type": "address"
        },
        {
          "indexed": true,
          "internalType": "address",
          "name": "newOwner",
          "type": "address"
        }
      ],
      "name": "OwnershipTransferred",
      "type": "event"
    },
    {
      "anonymous": false,
      "inputs": [
        {
          "indexed": true,
          "internalType": "address",
          "name": "to",
          "type": "address"
        },
        {
          "indexed": false,
          "internalType": "address",
          "name": "token",
          "type": "address"
        },
        {
          "indexed": false,
          "internalType": "uint256",
          "name": "amount",
          "type": "uint256"
        }
      ],
      "name": "TokenWithdrawn",
      "type": "event"
    },
    {
      "inputs": [
        {
          "internalType": "uint64",
          "name": "chainSelector",
          "type": "uint64"
        }
      ],
      "name": "CCIPChainToEid",
      "outputs": [
        {
          "internalType": "uint32",
          "name": "eid",
          "type": "uint32"
        }
      ],
      "stateMutability": "view",
      "type": "function"
    },
    {
      "inputs": [
        {
          "internalType": "address",
          "name": "admin",
          "type": "address"
        }
      ],
      "name": "admins",
      "outputs": [
        {
          "internalType": "bool",
          "name": "",
          "type": "bool"
        }
      ],
      "stateMutability": "view",
      "type": "function"
    },
    {
      "inputs": [
        {
          "components": [
            {
              "internalType": "uint32",
              "name": "dstEid",
              "type": "uint32"
            },
            {
              "internalType": "bytes",
              "name": "packetHeader",
              "type": "bytes"
            },
            {
              "internalType": "bytes32",
              "name": "payloadHash",
              "type": "bytes32"
            },
            {
              "internalType": "uint64",
              "name": "confirmations",
              "type": "uint64"
            },
            {
              "internalType": "address",
              "name": "sender",
              "type": "address"
            }
          ],
          "internalType": "struct ILayerZeroDVN.AssignJobParam",
          "name": "_param",
          "type": "tuple"
        },
        {
          "internalType": "bytes",
          "name": "",
          "type": "bytes"
        }
      ],
      "name": "assignJob",
      "outputs": [
        {
          "internalType": "uint256",
          "name": "fee",
          "type": "uint256"
        }
      ],
      "stateMutability": "payable",
      "type": "function"
    },
    {
      "inputs": [
        {
          "components": [
            {
              "internalType": "bytes32",
              "name": "messageId",
              "type": "bytes32"
            },
            {
              "internalType": "uint64",
              "name": "sourceChainSelector",
              "type": "uint64"
            },
            {
              "internalType": "bytes",
              "name": "sender",
              "type": "bytes"
            },
            {
              "internalType": "bytes",
              "name": "data",
              "type": "bytes"
            },
            {
              "components": [
                {
                  "internalType": "address",
                  "name": "token",
                  "type": "address"
                },
                {
                  "internalType": "uint256",
                  "name": "amount",
                  "type": "uint256"
                }
              ],
              "internalType": "struct Client.EVMTokenAmount[]",
              "name": "destTokenAmounts",
              "type": "tuple[]"
            }
          ],
          "internalType": "struct Client.Any2EVMMessage",
          "name": "message",
          "type": "tuple"
        }
      ],
      "name": "ccipReceive",
      "outputs": [],
      "stateMutability": "nonpayable",
      "type": "function"
    },
    {
      "inputs": [],
      "name": "defaultMultiplierBps",
      "outputs": [
        {
          "internalType": "uint16",
          "name": "",
          "type": "uint16"
        }
      ],
      "stateMutability": "view",
      "type": "function"
    },
    {
      "inputs": [
        {
          "internalType": "uint32",
          "name": "dstEid",
          "type": "uint32"
        }
      ],
      "name": "dstConfig",
      "outputs": [
        {
          "internalType": "uint64",
          "name": "chainSelector",
          "type": "uint64"
        },
        {
          "internalType": "uint16",
          "name": "multiplierBps",
          "type": "uint16"
        },
        {
          "internalType": "uint256",
          "name": "gasLimit",
          "type": "uint256"
        },
        {
          "internalType": "bytes",
          "name": "peer",
          "type": "bytes"
        }
      ],
      "stateMutability": "view",
      "type": "function"
    },
    {
      "inputs": [],
      "name": "feeLib",
      "outputs": [
        {
          "internalType": "contract IDVNAdapterFeeLib",
          "name": "",
          "type": "address"
        }
      ],
      "stateMutability": "view",
      "type": "function"
    },
    {
      "inputs": [
        {
          "internalType": "uint32",
          "name": "_dstEid",
          "type": "uint32"
        },
        {
          "internalType": "uint64",
          "name": "",
          "type": "uint64"
        },
        {
          "internalType": "address",
          "name": "_sender",
          "type": "address"
        },
        {
          "internalType": "bytes",
          "name": "",
          "type": "bytes"
        }
      ],
      "name": "getFee",
      "outputs": [
        {
          "internalType": "uint256",
          "name": "fee",
          "type": "uint256"
        }
      ],
      "stateMutability": "view",
      "type": "function"
    },
    {
      "inputs": [],
      "name": "getRouter",
      "outputs": [
        {
          "internalType": "address",
          "name": "",
          "type": "address"
        }
      ],
      "stateMutability": "view",
      "type": "function"
    },
    {
      "inputs": [],
      "name": "owner",
      "outputs": [
        {
          "internalType": "address",
          "name": "",
          "type": "address"
        }
      ],
      "stateMutability": "view",
      "type": "function"
    },
    {
      "inputs": [],
      "name": "receiveLib",
      "outputs": [
        {
          "internalType": "contract IReceiveUlnE2",
          "name": "",
          "type": "address"
        }
      ],
      "stateMutability": "view",
      "type": "function"
    },
    {
      "inputs": [],
      "name": "renounceOwnership",
      "outputs": [],
      "stateMutability": "nonpayable",
      "type": "function"
    },
    {
      "inputs": [],
      "name": "sendLib",
      "outputs": [
        {
          "internalType": "contract ISendLib",
          "name": "",
          "type": "address"
        }
      ],
      "stateMutability": "view",
      "type": "function"
    },
    {
      "inputs": [
        {
          "internalType": "address",
          "name": "_admin",
          "type": "address"
        },
        {
          "internalType": "bool",
          "name": "_isAdmin",
          "type": "bool"
        }
      ],
      "name": "setAdmin",
      "outputs": [],
      "stateMutability": "nonpayable",
      "type": "function"
    },
    {
      "inputs": [
        {
          "internalType": "uint16",
          "name": "_defaultMultiplierBps",
          "type": "uint16"
        }
      ],
      "name": "setDefaultMultiplier",
      "outputs": [],
      "stateMutability": "nonpayable",
      "type": "function"
    },
    {
      "inputs": [
        {
          "components": [
            {
              "internalType": "uint32",
              "name": "dstEid",
              "type": "uint32"
            },
            {
              "internalType": "uint64",
              "name": "chainSelector",
              "type": "uint64"
            },
            {
              "internalType": "uint16",
              "name": "multiplierBps",
              "type": "uint16"
            },
            {
              "internalType": "uint256",
              "name": "gasLimit",
              "type": "uint256"
            },
            {
              "internalType": "bytes",
              "name": "peer",
              "type": "bytes"
            }
          ],
          "internalType": "struct CCIPDVNAdapter.DstConfigParam[]",
          "name": "_params",
          "type": "tuple[]"
        }
      ],
      "name": "setDstConfig",
      "outputs": [],
      "stateMutability": "nonpayable",
      "type": "function"
    },
    {
      "inputs": [
        {
          "components": [
            {
              "internalType": "uint32",
              "name": "dstEid",
              "type": "uint32"
            },
            {
              "internalType": "uint16",
              "name": "multiplierBps",
              "type": "uint16"
            }
          ],
          "internalType": "struct DVNAdapterBase.DstMultiplierParam[]",
          "name": "_params",
          "type": "tuple[]"
        }
      ],
      "name": "setDstMultiplier",
      "outputs": [],
      "stateMutability": "nonpayable",
      "type": "function"
    },
    {
      "inputs": [
        {
          "internalType": "address",
          "name": "_feeLib",
          "type": "address"
        }
      ],
      "name": "setFeeLib",
      "outputs": [],
      "stateMutability": "nonpayable",
      "type": "function"
    },
    {
      "inputs": [
        {
          "internalType": "bytes4",
          "name": "interfaceId",
          "type": "bytes4"
        }
      ],
      "name": "supportsInterface",
      "outputs": [
        {
          "internalType": "bool",
          "name": "",
          "type": "bool"
        }
      ],
      "stateMutability": "pure",
      "type": "function"
    },
    {
      "inputs": [
        {
          "internalType": "address",
          "name": "newOwner",
          "type": "address"
        }
      ],
      "name": "transferOwnership",
      "outputs": [],
      "stateMutability": "nonpayable",
      "type": "function"
    },
    {
      "inputs": [
        {
          "internalType": "address",
          "name": "_to",
          "type": "address"
        },
        {
          "internalType": "uint256",
          "name": "_amount",
          "type": "uint256"
        }
      ],
      "name": "withdrawFee",
      "outputs": [],
      "stateMutability": "nonpayable",
      "type": "function"
    },
    {
      "inputs": [
        {
          "internalType": "address",
          "name": "_token",
          "type": "address"
        },
        {
          "internalType": "address",
          "name": "_to",
          "type": "address"
        },
        {
          "internalType": "uint256",
          "name": "_amount",
          "type": "uint256"
        }
      ],
      "name": "withdrawToken",
      "outputs": [],
      "stateMutability": "nonpayable",
      "type": "function"
    },
    {
      "stateMutability": "payable",
      "type": "receive"
    }
  ],
  "bytecode": "0x60e06040526001805461ffff60a01b191661027160a41b1790553480156200002657600080fd5b506040516200361338038062003613833981016040819052620000499162000349565b838383836001600160a01b0381166200007c576040516335fdcccd60e21b81526000600482015260240160405180910390fd5b6001600160a01b03166080526200009333620002c6565b6000806000856001600160a01b03166354fd4d506040518163ffffffff1660e01b8152600401606060405180830381865afa158015620000d7573d6000803e3d6000fd5b505050506040513d601f19601f82011682018060405250810190620000fd919062000468565b9250925092506000806000876001600160a01b03166354fd4d506040518163ffffffff1660e01b8152600401606060405180830381865afa15801562000147573d6000803e3d6000fd5b505050506040513d601f19601f820116820180604052508101906200016d919062000468565b925092509250826001600160401b0316866001600160401b03161415806200019b57508160ff168560ff1614155b80620001ad57508060ff168460ff1614155b15620001cc5760405163714f551360e01b815260040160405180910390fd5b6001600160a01b03808a1660a052881660c05260005b8751811015620002b2576001600260008a8481518110620002075762000207620004bf565b60200260200101516001600160a01b03166001600160a01b0316815260200190815260200160002060006101000a81548160ff0219169083151502179055508781815181106200025b576200025b620004bf565b60200260200101516001600160a01b03167fe68d2c359a771606c400cf8b87000cf5864010363d6a736e98f5047b7bbe18e96001604051620002a1911515815260200190565b60405180910390a2600101620001e2565b5050505050505050505050505050620004d5565b600080546001600160a01b038381166001600160a01b0319831681178455604051919092169283917f8be0079c531659141344cd1fd0a4f28419497f9722a3daafe3b4186f6b6457e09190a35050565b80516001600160a01b03811681146200032e57600080fd5b919050565b634e487b7160e01b600052604160045260246000fd5b600080600080608085870312156200036057600080fd5b6200036b8562000316565b935060206200037c81870162000316565b60408701519094506001600160401b03808211156200039a57600080fd5b818801915088601f830112620003af57600080fd5b815181811115620003c457620003c462000333565b8060051b604051601f19603f83011681018181108582111715620003ec57620003ec62000333565b60405291825284820192508381018501918b8311156200040b57600080fd5b938501935b828510156200043457620004248562000316565b8452938501939285019262000410565b8097505050505050506200044b6060860162000316565b905092959194509250565b805160ff811681146200032e57600080fd5b6000806000606084860312156200047e57600080fd5b83516001600160401b03811681146200049657600080fd5b9250620004a66020850162000456565b9150620004b66040850162000456565b90509250925092565b634e487b7160e01b600052603260045260246000fd5b60805160a05160c0516130e46200052f600039600081816104690152611c040152600081816103d501528181610ba3015261186701526000818161040601528181610b1701528181610db0015261167001526130e46000f3fe6080604052600436106101785760003560e01c806395d376d7116100cb578063bb37d00c1161007f578063f2fde38b11610059578063f2fde38b146104ab578063f5ec0d28146104cb578063fd9be5221461051357600080fd5b8063bb37d00c1461042a578063bd3ed5ff14610457578063ed9460241461048b57600080fd5b80639ec84c0a116100b05780639ec84c0a146103a3578063a0706d90146103c3578063b0f479a1146103f757600080fd5b806395d376d7146103605780639e9449651461037357600080fd5b8063429b62e51161012d57806381d981af1161010757806381d981af146102d457806385572ffb146102f45780638da5cb5b1461031457600080fd5b8063429b62e51461026f5780634b0bddd21461029f578063715018a6146102bf57600080fd5b806301ffc9a71161015e57806301ffc9a7146101f157806320ac2ece1461022157806330bb3aac1461024157600080fd5b8062bf2e801461018457806301e33667146101cf57600080fd5b3661017f57005b600080fd5b34801561019057600080fd5b506001546101b79074010000000000000000000000000000000000000000900461ffff1681565b60405161ffff90911681526020015b60405180910390f35b3480156101db57600080fd5b506101ef6101ea3660046122c2565b610533565b005b3480156101fd57600080fd5b5061021161020c3660046122fe565b6105df565b60405190151581526020016101c6565b34801561022d57600080fd5b506101ef61023c366004612340565b610678565b34801561024d57600080fd5b5061026161025c3660046123d0565b610730565b6040519081526020016101c6565b34801561027b57600080fd5b5061021161028a366004612340565b60026020526000908152604090205460ff1681565b3480156102ab57600080fd5b506101ef6102ba366004612454565b61092a565b3480156102cb57600080fd5b506101ef6109bd565b3480156102e057600080fd5b506101ef6102ef36600461248b565b6109d1565b34801561030057600080fd5b506101ef61030f366004612518565b610aff565b34801561032057600080fd5b5060005473ffffffffffffffffffffffffffffffffffffffff165b60405173ffffffffffffffffffffffffffffffffffffffff90911681526020016101c6565b61026161036e36600461254d565b610b89565b34801561037f57600080fd5b5061039361038e3660046125b6565b610f62565b6040516101c6949392919061263f565b3480156103af57600080fd5b506101ef6103be36600461267c565b611029565b3480156103cf57600080fd5b5061033b7f000000000000000000000000000000000000000000000000000000000000000081565b34801561040357600080fd5b507f000000000000000000000000000000000000000000000000000000000000000061033b565b34801561043657600080fd5b5060015461033b9073ffffffffffffffffffffffffffffffffffffffff1681565b34801561046357600080fd5b5061033b7f000000000000000000000000000000000000000000000000000000000000000081565b34801561049757600080fd5b506101ef6104a63660046126f1565b6112de565b3480156104b757600080fd5b506101ef6104c6366004612340565b6113a8565b3480156104d757600080fd5b506104fe6104e636600461270c565b60046020526000908152604090205463ffffffff1681565b60405163ffffffff90911681526020016101c6565b34801561051f57600080fd5b506101ef61052e366004612727565b61145c565b3360009081526002602052604090205460ff1661057c576040517f82b4290000000000000000000000000000000000000000000000000000000000815260040160405180910390fd5b6105878383836114b3565b6040805173ffffffffffffffffffffffffffffffffffffffff8581168252602082018490528416917f8210728e7c071f615b840ee026032693858fbcd5e5359e67e438c890f59e5620910160405180910390a2505050565b60007fffffffff0000000000000000000000000000000000000000000000000000000082167f85572ffb00000000000000000000000000000000000000000000000000000000148061067257507fffffffff0000000000000000000000000000000000000000000000000000000082167f01ffc9a700000000000000000000000000000000000000000000000000000000145b92915050565b3360009081526002602052604090205460ff166106c1576040517f82b4290000000000000000000000000000000000000000000000000000000000815260040160405180910390fd5b600180547fffffffffffffffffffffffff00000000000000000000000000000000000000001673ffffffffffffffffffffffffffffffffffffffff83169081179091556040517f47f3fc2afa14fc8d55a57ed53e2a26b8e63d5f95adb4869b2da2bffdd38c63d290600090a250565b63ffffffff8516600090815260036020526040808220815160518082526080820190935290918391610803916020820181803683375050506002840180546000919061077b90612780565b80601f01602080910402602001604051908101604052809291908181526020018280546107a790612780565b80156107f45780601f106107c9576101008083540402835291602001916107f4565b820191906000526020600020905b8154815290600101906020018083116107d757829003601f168201915b505050505085600101546114e8565b825490915061081c9067ffffffffffffffff1682611630565b60015490935073ffffffffffffffffffffffffffffffffffffffff161561091f5760015482546040517f212cf54f00000000000000000000000000000000000000000000000000000000815263ffffffff8b16600482015273ffffffffffffffffffffffffffffffffffffffff898116602483015261ffff740100000000000000000000000000000000000000008504811660448401526801000000000000000090930490921660648201526084810186905291169063212cf54f9060a401602060405180830381865afa1580156108f8573d6000803e3d6000fd5b505050506040513d601f19601f8201168201806040525081019061091c91906127cd565b92505b505095945050505050565b6109326116ef565b73ffffffffffffffffffffffffffffffffffffffff821660008181526002602090815260409182902080547fffffffffffffffffffffffffffffffffffffffffffffffffffffffffffffff001685151590811790915591519182527fe68d2c359a771606c400cf8b87000cf5864010363d6a736e98f5047b7bbe18e991015b60405180910390a25050565b6109c56116ef565b6109cf6000611770565b565b3360009081526002602052604090205460ff16610a1a576040517f82b4290000000000000000000000000000000000000000000000000000000000815260040160405180910390fd5b60005b81811015610ac15736838383818110610a3857610a386127e6565b9050604002019050806020016020810190610a5391906126f1565b60036000610a6460208501856125b6565b63ffffffff1681526020810191909152604001600020805461ffff9290921668010000000000000000027fffffffffffffffffffffffffffffffffffffffffffff0000ffffffffffffffff90921691909117905550600101610a1d565b507f69abe4111cf43d39e68d4c540ca52a855f900939e08d7f27a07a068ea5c060558282604051610af3929190612815565b60405180910390a15050565b3373ffffffffffffffffffffffffffffffffffffffff7f00000000000000000000000000000000000000000000000000000000000000001614610b75576040517fd7f733340000000000000000000000000000000000000000000000000000000081523360048201526024015b60405180910390fd5b610b86610b8182612a48565b6117e5565b50565b60003373ffffffffffffffffffffffffffffffffffffffff7f00000000000000000000000000000000000000000000000000000000000000001614610bfa576040517f3885d60300000000000000000000000000000000000000000000000000000000815260040160405180910390fd5b6000600381610c0c60208801886125b6565b63ffffffff16815260208082019290925260409081016000208151608081018352815467ffffffffffffffff8116825268010000000000000000900461ffff1693810193909352600181015491830191909152600281018054606084019190610c7490612780565b80601f0160208091040260200160405190810160405280929190818152602001828054610ca090612780565b8015610ced5780601f10610cc257610100808354040283529160200191610ced565b820191906000526020600020905b815481529060010190602001808311610cd057829003601f168201915b50505050508152505090506000610d56868060200190610d0d9190612af5565b8080601f01602080910402602001604051908101604052809392919081815260200183838082843760009201919091525050506060850151604086810151908b013592506114e8565b9050610d66826000015182611630565b9250610d7183611804565b81516040517f96f4e9f900000000000000000000000000000000000000000000000000000000815273ffffffffffffffffffffffffffffffffffffffff7f000000000000000000000000000000000000000000000000000000000000000016916396f4e9f9918691610de7918690600401612b5a565b60206040518083038185885af1158015610e05573d6000803e3d6000fd5b50505050506040513d601f19601f82011682018060405250810190610e2a91906127cd565b5060015473ffffffffffffffffffffffffffffffffffffffff1615610f595760015473ffffffffffffffffffffffffffffffffffffffff1663212cf54f610e7460208901896125b6565b610e8460a08a0160808b01612340565b600154602087015160405160e086901b7fffffffff0000000000000000000000000000000000000000000000000000000016815263ffffffff909416600485015273ffffffffffffffffffffffffffffffffffffffff909216602484015274010000000000000000000000000000000000000000900461ffff90811660448401521660648201526084810186905260a401602060405180830381865afa158015610f32573d6000803e3d6000fd5b505050506040513d601f19601f82011682018060405250810190610f5691906127cd565b92505b50509392505050565b60036020526000908152604090208054600182015460028301805467ffffffffffffffff8416946801000000000000000090940461ffff16939190610fa690612780565b80601f0160208091040260200160405190810160405280929190818152602001828054610fd290612780565b801561101f5780601f10610ff45761010080835404028352916020019161101f565b820191906000526020600020905b81548152906001019060200180831161100257829003601f168201915b5050505050905084565b3360009081526002602052604090205460ff16611072576040517f82b4290000000000000000000000000000000000000000000000000000000000815260040160405180910390fd5b60005b818110156112ac5736838383818110611090576110906127e6565b90506020028101906110a29190612c6f565b9050600460006003816110b860208601866125b6565b63ffffffff168152602080820192909252604090810160009081205467ffffffffffffffff168452838301949094529190910190912080547fffffffffffffffffffffffffffffffffffffffffffffffffffffffff00000000169055611120908201826125b6565b60046000611134604085016020860161270c565b67ffffffffffffffff1667ffffffffffffffff16815260200190815260200160002060006101000a81548163ffffffff021916908363ffffffff1602179055506040518060800160405280826020016020810190611192919061270c565b67ffffffffffffffff1681526020016111b160608401604085016126f1565b61ffff168152606083013560208201526040016111d16080840184612af5565b8080601f0160208091040260200160405190810160405280939291908181526020018383808284376000920182905250939094525060039250611219905060208501856125b6565b63ffffffff1681526020808201929092526040908101600020835181549385015161ffff1668010000000000000000027fffffffffffffffffffffffffffffffffffffffffffff0000000000000000000090941667ffffffffffffffff9091161792909217825582015160018201556060820151600282019061129c9082612cfd565b5050600190920191506110759050565b507f5c257885b187e43434c98dff62b27d2799de2d31908ae78c56d824a8ec2bdb528282604051610af3929190612e60565b3360009081526002602052604090205460ff16611327576040517f82b4290000000000000000000000000000000000000000000000000000000000815260040160405180910390fd5b600180547fffffffffffffffffffff0000ffffffffffffffffffffffffffffffffffffffff167401000000000000000000000000000000000000000061ffff8416908102919091179091556040519081527f5cd03093b446ef387fae919d09687fb7200930dc43240f391a08f7f3a8243e619060200160405180910390a150565b6113b06116ef565b73ffffffffffffffffffffffffffffffffffffffff8116611453576040517f08c379a000000000000000000000000000000000000000000000000000000000815260206004820152602660248201527f4f776e61626c653a206e6577206f776e657220697320746865207a65726f206160448201527f64647265737300000000000000000000000000000000000000000000000000006064820152608401610b6c565b610b8681611770565b3360009081526002602052604090205460ff166114a5576040517f82b4290000000000000000000000000000000000000000000000000000000000815260040160405180910390fd5b6114af828261181b565b5050565b73ffffffffffffffffffffffffffffffffffffffff83166114dd576114d8828261190b565b505050565b6114d8838383611a11565b6115306040518060a00160405280606081526020016060815260200160608152602001600073ffffffffffffffffffffffffffffffffffffffff168152602001606081525090565b6040518060a0016040528084815260200161154b8787611a7f565b8152602001600060405190808252806020026020018201604052801561159757816020015b60408051808201909152600080825260208201528152602001906001900390816115705790505b50815260006020808301829052604080518082018252878152820192835280516024810188905292511515604480850191909152815180850390910181526064909301815290820180517bffffffffffffffffffffffffffffffffffffffffffffffffffffffff167f97a657c9000000000000000000000000000000000000000000000000000000001790529091015295945050505050565b6040517f20487ded00000000000000000000000000000000000000000000000000000000815260009073ffffffffffffffffffffffffffffffffffffffff7f000000000000000000000000000000000000000000000000000000000000000016906320487ded906116a79086908690600401612b5a565b602060405180830381865afa1580156116c4573d6000803e3d6000fd5b505050506040513d601f19601f820116820180604052508101906116e891906127cd565b9392505050565b60005473ffffffffffffffffffffffffffffffffffffffff1633146109cf576040517f08c379a000000000000000000000000000000000000000000000000000000000815260206004820181905260248201527f4f776e61626c653a2063616c6c6572206973206e6f7420746865206f776e65726044820152606401610b6c565b6000805473ffffffffffffffffffffffffffffffffffffffff8381167fffffffffffffffffffffffff0000000000000000000000000000000000000000831681178455604051919092169283917f8be0079c531659141344cd1fd0a4f28419497f9722a3daafe3b4186f6b6457e09190a35050565b6117f781602001518260400151611aab565b610b868160600151611bb6565b47818110156114af576114af3061181b8385612ff1565b6040517ffd9be52200000000000000000000000000000000000000000000000000000000815273ffffffffffffffffffffffffffffffffffffffff8381166004830152602482018390527f0000000000000000000000000000000000000000000000000000000000000000169063fd9be52290604401600060405180830381600087803b1580156118ab57600080fd5b505af11580156118bf573d6000803e3d6000fd5b505050508173ffffffffffffffffffffffffffffffffffffffff167f78473f3f373f7673597f4f0fa5873cb4d375fea6d4339ad6b56dbd411513cb3f826040516109b191815260200190565b73ffffffffffffffffffffffffffffffffffffffff8216611958576040517f32fa6a1d00000000000000000000000000000000000000000000000000000000815260040160405180910390fd5b60008273ffffffffffffffffffffffffffffffffffffffff168260405160006040518083038185875af1925050503d80600081146119b2576040519150601f19603f3d011682016040523d82523d6000602084013e6119b7565b606091505b50509050806114d8576040517f2c024f9200000000000000000000000000000000000000000000000000000000815273ffffffffffffffffffffffffffffffffffffffff8416600482015260248101839052604401610b6c565b73ffffffffffffffffffffffffffffffffffffffff8216611a5e576040517f32fa6a1d00000000000000000000000000000000000000000000000000000000815260040160405180910390fd5b6114d873ffffffffffffffffffffffffffffffffffffffff84168383611c7c565b60608282604051602001611a94929190613004565b604051602081830303815290604052905092915050565b67ffffffffffffffff821660009081526004602090815260408083205463ffffffff16808452600390925282206002018054919291611ae990612780565b80601f0160208091040260200160405190810160405280929190818152602001828054611b1590612780565b8015611b625780601f10611b3757610100808354040283529160200191611b62565b820191906000526020600020905b815481529060010190602001808311611b4557829003601f168201915b505050505090508080519060200120838051906020012014611bb0576040517f82b4290000000000000000000000000000000000000000000000000000000000815260040160405180910390fd5b50505050565b600080611bc283611d09565b6040517f0223536e000000000000000000000000000000000000000000000000000000008152919350915073ffffffffffffffffffffffffffffffffffffffff7f00000000000000000000000000000000000000000000000000000000000000001690630223536e90611c45908590859067ffffffffffffffff90600401613026565b600060405180830381600087803b158015611c5f57600080fd5b505af1158015611c73573d6000803e3d6000fd5b50505050505050565b6040805173ffffffffffffffffffffffffffffffffffffffff8416602482015260448082018490528251808303909101815260649091019091526020810180517bffffffffffffffffffffffffffffffffffffffffffffffffffffffff167fa9059cbb000000000000000000000000000000000000000000000000000000001790526114d8908490611d81565b60606000611d1960206051613059565b835114611d52576040517ffbdf795400000000000000000000000000000000000000000000000000000000815260040160405180910390fd5b6000611d6084826051611e90565b9250611d6d605182613059565b9050611d79848261200a565b915050915091565b6000611de3826040518060400160405280602081526020017f5361666545524332303a206c6f772d6c6576656c2063616c6c206661696c65648152508573ffffffffffffffffffffffffffffffffffffffff1661208a9092919063ffffffff16565b9050805160001480611e04575080806020019051810190611e04919061306c565b6114d8576040517f08c379a000000000000000000000000000000000000000000000000000000000815260206004820152602a60248201527f5361666545524332303a204552433230206f7065726174696f6e20646964206e60448201527f6f742073756363656564000000000000000000000000000000000000000000006064820152608401610b6c565b606081611e9e81601f613059565b1015611f06576040517f08c379a000000000000000000000000000000000000000000000000000000000815260206004820152600e60248201527f736c6963655f6f766572666c6f770000000000000000000000000000000000006044820152606401610b6c565b611f108284613059565b84511015611f7a576040517f08c379a000000000000000000000000000000000000000000000000000000000815260206004820152601160248201527f736c6963655f6f75744f66426f756e64730000000000000000000000000000006044820152606401610b6c565b606082158015611f995760405191506000825260208201604052612001565b6040519150601f8416801560200281840101858101878315602002848b0101015b81831015611fd2578051835260209283019201611fba565b5050858452601f017fffffffffffffffffffffffffffffffffffffffffffffffffffffffffffffffe016604052505b50949350505050565b6000612017826020613059565b83511015612081576040517f08c379a000000000000000000000000000000000000000000000000000000000815260206004820152601560248201527f746f427974657333325f6f75744f66426f756e647300000000000000000000006044820152606401610b6c565b50016020015190565b606061209984846000856120a1565b949350505050565b606082471015612133576040517f08c379a000000000000000000000000000000000000000000000000000000000815260206004820152602660248201527f416464726573733a20696e73756666696369656e742062616c616e636520666f60448201527f722063616c6c00000000000000000000000000000000000000000000000000006064820152608401610b6c565b6000808673ffffffffffffffffffffffffffffffffffffffff16858760405161215c9190613089565b60006040518083038185875af1925050503d8060008114612199576040519150601f19603f3d011682016040523d82523d6000602084013e61219e565b606091505b50915091506121af878383876121ba565b979650505050505050565b606083156122505782516000036122495773ffffffffffffffffffffffffffffffffffffffff85163b612249576040517f08c379a000000000000000000000000000000000000000000000000000000000815260206004820152601d60248201527f416464726573733a2063616c6c20746f206e6f6e2d636f6e74726163740000006044820152606401610b6c565b5081612099565b61209983838151156122655781518083602001fd5b806040517f08c379a0000000000000000000000000000000000000000000000000000000008152600401610b6c919061309b565b803573ffffffffffffffffffffffffffffffffffffffff811681146122bd57600080fd5b919050565b6000806000606084860312156122d757600080fd5b6122e084612299565b92506122ee60208501612299565b9150604084013590509250925092565b60006020828403121561231057600080fd5b81357fffffffff00000000000000000000000000000000000000000000000000000000811681146116e857600080fd5b60006020828403121561235257600080fd5b6116e882612299565b803563ffffffff811681146122bd57600080fd5b803567ffffffffffffffff811681146122bd57600080fd5b60008083601f84011261239957600080fd5b50813567ffffffffffffffff8111156123b157600080fd5b6020830191508360208285010111156123c957600080fd5b9250929050565b6000806000806000608086880312156123e857600080fd5b6123f18661235b565b94506123ff6020870161236f565b935061240d60408701612299565b9250606086013567ffffffffffffffff81111561242957600080fd5b61243588828901612387565b969995985093965092949392505050565b8015158114610b8657600080fd5b6000806040838503121561246757600080fd5b61247083612299565b9150602083013561248081612446565b809150509250929050565b6000806020838503121561249e57600080fd5b823567ffffffffffffffff808211156124b657600080fd5b818501915085601f8301126124ca57600080fd5b8135818111156124d957600080fd5b8660208260061b85010111156124ee57600080fd5b60209290920196919550909350505050565b600060a0828403121561251257600080fd5b50919050565b60006020828403121561252a57600080fd5b813567ffffffffffffffff81111561254157600080fd5b61209984828501612500565b60008060006040848603121561256257600080fd5b833567ffffffffffffffff8082111561257a57600080fd5b61258687838801612500565b9450602086013591508082111561259c57600080fd5b506125a986828701612387565b9497909650939450505050565b6000602082840312156125c857600080fd5b6116e88261235b565b60005b838110156125ec5781810151838201526020016125d4565b50506000910152565b6000815180845261260d8160208601602086016125d1565b601f017fffffffffffffffffffffffffffffffffffffffffffffffffffffffffffffffe0169290920160200192915050565b67ffffffffffffffff8516815261ffff8416602082015282604082015260806060820152600061267260808301846125f5565b9695505050505050565b6000806020838503121561268f57600080fd5b823567ffffffffffffffff808211156126a757600080fd5b818501915085601f8301126126bb57600080fd5b8135818111156126ca57600080fd5b8660208260051b85010111156124ee57600080fd5b803561ffff811681146122bd57600080fd5b60006020828403121561270357600080fd5b6116e8826126df565b60006020828403121561271e57600080fd5b6116e88261236f565b6000806040838503121561273a57600080fd5b61274383612299565b946020939093013593505050565b7f4e487b7100000000000000000000000000000000000000000000000000000000600052604160045260246000fd5b600181811c9082168061279457607f821691505b602082108103612512577f4e487b7100000000000000000000000000000000000000000000000000000000600052602260045260246000fd5b6000602082840312156127df57600080fd5b5051919050565b7f4e487b7100000000000000000000000000000000000000000000000000000000600052603260045260246000fd5b6020808252818101839052600090604080840186845b878110156128675763ffffffff6128418361235b565b16835261ffff6128528684016126df565b1683860152918301919083019060010161282b565b5090979650505050505050565b6040805190810167ffffffffffffffff8111828210171561289757612897612751565b60405290565b60405160a0810167ffffffffffffffff8111828210171561289757612897612751565b604051601f82017fffffffffffffffffffffffffffffffffffffffffffffffffffffffffffffffe016810167ffffffffffffffff8111828210171561290757612907612751565b604052919050565b600082601f83011261292057600080fd5b813567ffffffffffffffff81111561293a5761293a612751565b61296b60207fffffffffffffffffffffffffffffffffffffffffffffffffffffffffffffffe0601f840116016128c0565b81815284602083860101111561298057600080fd5b816020850160208301376000918101602001919091529392505050565b600082601f8301126129ae57600080fd5b8135602067ffffffffffffffff8211156129ca576129ca612751565b6129d8818360051b016128c0565b82815260069290921b840181019181810190868411156129f757600080fd5b8286015b84811015612a3d5760408189031215612a145760008081fd5b612a1c612874565b612a2582612299565b815281850135858201528352918301916040016129fb565b509695505050505050565b600060a08236031215612a5a57600080fd5b612a6261289d565b82358152612a726020840161236f565b6020820152604083013567ffffffffffffffff80821115612a9257600080fd5b612a9e3683870161290f565b60408401526060850135915080821115612ab757600080fd5b612ac33683870161290f565b60608401526080850135915080821115612adc57600080fd5b50612ae93682860161299d565b60808301525092915050565b60008083357fffffffffffffffffffffffffffffffffffffffffffffffffffffffffffffffe1843603018112612b2a57600080fd5b83018035915067ffffffffffffffff821115612b4557600080fd5b6020019150368190038213156123c957600080fd5b6000604067ffffffffffffffff851683526020604081850152845160a06040860152612b8960e08601826125f5565b9050818601517fffffffffffffffffffffffffffffffffffffffffffffffffffffffffffffffc080878403016060880152612bc483836125f5565b6040890151888203830160808a01528051808352908601945060009350908501905b80841015612c25578451805173ffffffffffffffffffffffffffffffffffffffff16835286015186830152938501936001939093019290860190612be6565b50606089015173ffffffffffffffffffffffffffffffffffffffff1660a08901526080890151888203830160c08a01529550612c6181876125f5565b9a9950505050505050505050565b600082357fffffffffffffffffffffffffffffffffffffffffffffffffffffffffffffff61833603018112612ca357600080fd5b9190910192915050565b601f8211156114d8576000816000526020600020601f850160051c81016020861015612cd65750805b601f850160051c820191505b81811015612cf557828155600101612ce2565b505050505050565b815167ffffffffffffffff811115612d1757612d17612751565b612d2b81612d258454612780565b84612cad565b602080601f831160018114612d7e5760008415612d485750858301515b7fffffffffffffffffffffffffffffffffffffffffffffffffffffffffffffffff600386901b1c1916600185901b178555612cf5565b6000858152602081207fffffffffffffffffffffffffffffffffffffffffffffffffffffffffffffffe08616915b82811015612dcb57888601518255948401946001909101908401612dac565b5085821015612e0757878501517fffffffffffffffffffffffffffffffffffffffffffffffffffffffffffffffff600388901b60f8161c191681555b5050505050600190811b01905550565b8183528181602085013750600060208284010152600060207fffffffffffffffffffffffffffffffffffffffffffffffffffffffffffffffe0601f840116840101905092915050565b60208082528181018390526000906040808401600586901b8501820187855b88811015612fb4577fffffffffffffffffffffffffffffffffffffffffffffffffffffffffffffffc088840301845281357fffffffffffffffffffffffffffffffffffffffffffffffffffffffffffffff618b3603018112612ee057600080fd5b8a0160a063ffffffff612ef28361235b565b168552612f0088830161236f565b67ffffffffffffffff8082168a88015261ffff612f1e8a86016126df565b16878a0152606084810135908801526080915081840135368590037fffffffffffffffffffffffffffffffffffffffffffffffffffffffffffffffe1018112612f6657600080fd5b90930189810193903581811115612f7c57600080fd5b803603851315612f8b57600080fd5b8383890152612f9d8489018287612e17565b988b01989750505093880193505050600101612e7f565b509098975050505050505050565b7f4e487b7100000000000000000000000000000000000000000000000000000000600052601160045260246000fd5b8181038181111561067257610672612fc2565b600083516130168184602088016125d1565b9190910191825250602001919050565b60608152600061303960608301866125f5565b905083602083015267ffffffffffffffff83166040830152949350505050565b8082018082111561067257610672612fc2565b60006020828403121561307e57600080fd5b81516116e881612446565b60008251612ca38184602087016125d1565b6020815260006116e860208301846125f556fea264697066735822122067e655ae235f6e2f3db2dfbe3862323220dfe6e8b309212bf1e558d9f8dd358264736f6c63430008160033",
  "linkReferences": {},
  "deployedLinkReferences": {}
}