{
  "_format": "hh-sol-artifact-1",
  "contractName": "LzExecutor",
  "sourceName": "contracts/uln/LzExecutor.sol",
  "abi": [
    {
      "inputs": [
        {
          "internalType": "address",
          "name": "_receiveUln302",
          "type": "address"
        },
        {
          "internalType": "address",
          "name": "_endpoint",
          "type": "address"
        }
      ],
      "stateMutability": "nonpayable",
      "type": "constructor"
    },
    {
      "inputs": [],
      "name": "Executed",
      "type": "error"
    },
    {
      "inputs": [],
      "name": "ToAddressIsZero",
      "type": "error"
    },
    {
      "inputs": [
        {
          "internalType": "address",
          "name": "_to",
          "type": "address"
        },
        {
          "internalType": "uint256",
          "name": "_value",
          "type": "uint256"
        }
      ],
      "name": "TransferNativeFailed",
      "type": "error"
    },
    {
      "inputs": [],
      "name": "Verifying",
      "type": "error"
    },
    {
      "anonymous": false,
      "inputs": [
        {
          "indexed": true,
          "internalType": "address",
          "name": "previousOwner",
          "type": "address"
        },
        {
          "indexed": true,
          "internalType": "address",
          "name": "newOwner",
          "type": "address"
        }
      ],
      "name": "OwnershipTransferred",
      "type": "event"
    },
    {
      "inputs": [
        {
          "internalType": "address",
          "name": "_receiveLib",
          "type": "address"
        },
        {
          "components": [
            {
              "components": [
                {
                  "internalType": "uint32",
                  "name": "srcEid",
                  "type": "uint32"
                },
                {
                  "internalType": "bytes32",
                  "name": "sender",
                  "type": "bytes32"
                },
                {
                  "internalType": "uint64",
                  "name": "nonce",
                  "type": "uint64"
                }
              ],
              "internalType": "struct Origin",
              "name": "origin",
              "type": "tuple"
            },
            {
              "internalType": "address",
              "name": "receiver",
              "type": "address"
            },
            {
              "internalType": "bytes32",
              "name": "guid",
              "type": "bytes32"
            },
            {
              "internalType": "bytes",
              "name": "message",
              "type": "bytes"
            },
            {
              "internalType": "bytes",
              "name": "extraData",
              "type": "bytes"
            },
            {
              "internalType": "uint256",
              "name": "gas",
              "type": "uint256"
            },
            {
              "internalType": "uint256",
              "name": "value",
              "type": "uint256"
            }
          ],
          "internalType": "struct LzReceiveParam",
          "name": "_lzReceiveParam",
          "type": "tuple"
        },
        {
          "components": [
            {
              "internalType": "address",
              "name": "_receiver",
              "type": "address"
            },
            {
              "internalType": "uint256",
              "name": "_amount",
              "type": "uint256"
            }
          ],
          "internalType": "struct NativeDropParam[]",
          "name": "_nativeDropParams",
          "type": "tuple[]"
        }
      ],
      "name": "commitAndExecute",
      "outputs": [],
      "stateMutability": "payable",
      "type": "function"
    },
    {
      "inputs": [],
      "name": "endpoint",
      "outputs": [
        {
          "internalType": "contract ILayerZeroEndpointV2",
          "name": "",
          "type": "address"
        }
      ],
      "stateMutability": "view",
      "type": "function"
    },
    {
      "inputs": [],
      "name": "localEid",
      "outputs": [
        {
          "internalType": "uint32",
          "name": "",
          "type": "uint32"
        }
      ],
      "stateMutability": "view",
      "type": "function"
    },
    {
      "inputs": [],
      "name": "owner",
      "outputs": [
        {
          "internalType": "address",
          "name": "",
          "type": "address"
        }
      ],
      "stateMutability": "view",
      "type": "function"
    },
    {
      "inputs": [],
      "name": "receiveUln302",
      "outputs": [
        {
          "internalType": "address",
          "name": "",
          "type": "address"
        }
      ],
      "stateMutability": "view",
      "type": "function"
    },
    {
      "inputs": [],
      "name": "renounceOwnership",
      "outputs": [],
      "stateMutability": "nonpayable",
      "type": "function"
    },
    {
      "inputs": [
        {
          "internalType": "address",
          "name": "newOwner",
          "type": "address"
        }
      ],
      "name": "transferOwnership",
      "outputs": [],
      "stateMutability": "nonpayable",
      "type": "function"
    },
    {
      "inputs": [
        {
          "internalType": "address",
          "name": "_to",
          "type": "address"
        },
        {
          "internalType": "uint256",
          "name": "_amount",
          "type": "uint256"
        }
      ],
      "name": "withdrawNative",
      "outputs": [],
      "stateMutability": "nonpayable",
      "type": "function"
    }
  ],
  "bytecode": "0x60e06040523480156200001157600080fd5b50604051620010a7380380620010a7833981016040819052620000349162000135565b6200003f33620000c8565b6001600160a01b03808316608052811660a08190526040805163416ecebf60e01b8152905163416ecebf916004808201926020929091908290030181865afa15801562000090573d6000803e3d6000fd5b505050506040513d601f19601f82011682018060405250810190620000b691906200016d565b63ffffffff1660c052506200019c9050565b600080546001600160a01b038381166001600160a01b0319831681178455604051919092169283917f8be0079c531659141344cd1fd0a4f28419497f9722a3daafe3b4186f6b6457e09190a35050565b80516001600160a01b03811681146200013057600080fd5b919050565b600080604083850312156200014957600080fd5b620001548362000118565b9150620001646020840162000118565b90509250929050565b6000602082840312156200018057600080fd5b815163ffffffff811681146200019557600080fd5b9392505050565b60805160a05160c051610eb9620001ee6000396000818161012701526103bd01526000818160b40152818161023301526106ec01526000818161017001528181610331015261036d0152610eb96000f3fe60806040526004361061007b5760003560e01c8063843c7b0e1161004e578063843c7b0e1461015e5780638da5cb5b14610192578063dcfdeb60146101bd578063f2fde38b146101d057600080fd5b806307b18bde146100805780635e280f11146100a2578063715018a6146101005780637260753714610115575b600080fd5b34801561008c57600080fd5b506100a061009b366004610a8e565b6101f0565b005b3480156100ae57600080fd5b506100d67f000000000000000000000000000000000000000000000000000000000000000081565b60405173ffffffffffffffffffffffffffffffffffffffff90911681526020015b60405180910390f35b34801561010c57600080fd5b506100a0610206565b34801561012157600080fd5b506101497f000000000000000000000000000000000000000000000000000000000000000081565b60405163ffffffff90911681526020016100f7565b34801561016a57600080fd5b506100d67f000000000000000000000000000000000000000000000000000000000000000081565b34801561019e57600080fd5b5060005473ffffffffffffffffffffffffffffffffffffffff166100d6565b6100a06101cb366004610ab8565b61021a565b3480156101dc57600080fd5b506100a06101eb366004610b66565b6107a8565b6101f8610864565b61020282826108e5565b5050565b61020e610864565b61021860006109f0565b565b600073ffffffffffffffffffffffffffffffffffffffff7f000000000000000000000000000000000000000000000000000000000000000016634b4b2efb856102696080820160608301610b66565b6040518363ffffffff1660e01b8152600401610286929190610bee565b602060405180830381865afa1580156102a3573d6000803e3d6000fd5b505050506040513d601f19601f820116820180604052508101906102c79190610c2c565b905060028160028111156102dd576102dd610c49565b03610314576040517f68f46c4500000000000000000000000000000000000000000000000000000000815260040160405180910390fd5b600181600281111561032857610328610c49565b146106885760007f000000000000000000000000000000000000000000000000000000000000000073ffffffffffffffffffffffffffffffffffffffff1615610391577f0000000000000000000000000000000000000000000000000000000000000000610393565b855b9050600060016103a96060880160408901610c78565b6103b66020890189610c93565b60208901357f00000000000000000000000000000000000000000000000000000000000000006103ec60808c0160608d01610b66565b60405160f89690961b7fff0000000000000000000000000000000000000000000000000000000000000016602087015260c09490941b7fffffffffffffffff00000000000000000000000000000000000000000000000016602186015260e092831b7fffffffff000000000000000000000000000000000000000000000000000000009081166029870152602d86019290925290911b16604d83015273ffffffffffffffffffffffffffffffffffffffff166051820152607101604080517fffffffffffffffffffffffffffffffffffffffffffffffffffffffffffffffe08184030181529190529050600060808701356104ea60a0890189610cae565b6040516020016104fc93929190610d1a565b60405160208183030381529060405280519060200120905060008373ffffffffffffffffffffffffffffffffffffffff166327d12cd984846040518363ffffffff1660e01b8152600401610551929190610d34565b602060405180830381865afa15801561056e573d6000803e3d6000fd5b505050506040513d601f19601f820116820180604052508101906105929190610c2c565b905060018160028111156105a8576105a8610c49565b03610638576040517f0894edf100000000000000000000000000000000000000000000000000000000815273ffffffffffffffffffffffffffffffffffffffff851690630894edf1906106019086908690600401610d34565b600060405180830381600087803b15801561061b57600080fd5b505af115801561062f573d6000803e3d6000fd5b50505050610683565b600081600281111561064c5761064c610c49565b03610683576040517f692c93cb00000000000000000000000000000000000000000000000000000000815260040160405180910390fd5b505050505b60005b828110156106d457368484838181106106a6576106a6610da7565b6040029190910191506106cb90506106c16020830183610b66565b82602001356108e5565b5060010161068b565b5073ffffffffffffffffffffffffffffffffffffffff7f000000000000000000000000000000000000000000000000000000000000000016630c0c389e60e08601356101008701358761072d6080820160608301610b66565b60808a013561073f60a08c018c610cae565b61074c60c08e018e610cae565b6040518a63ffffffff1660e01b815260040161076e9796959493929190610e1f565b6000604051808303818589803b15801561078757600080fd5b5088f115801561079b573d6000803e3d6000fd5b5050505050505050505050565b6107b0610864565b73ffffffffffffffffffffffffffffffffffffffff8116610858576040517f08c379a000000000000000000000000000000000000000000000000000000000815260206004820152602660248201527f4f776e61626c653a206e6577206f776e657220697320746865207a65726f206160448201527f646472657373000000000000000000000000000000000000000000000000000060648201526084015b60405180910390fd5b610861816109f0565b50565b60005473ffffffffffffffffffffffffffffffffffffffff163314610218576040517f08c379a000000000000000000000000000000000000000000000000000000000815260206004820181905260248201527f4f776e61626c653a2063616c6c6572206973206e6f7420746865206f776e6572604482015260640161084f565b73ffffffffffffffffffffffffffffffffffffffff8216610932576040517f32fa6a1d00000000000000000000000000000000000000000000000000000000815260040160405180910390fd5b60008273ffffffffffffffffffffffffffffffffffffffff168260405160006040518083038185875af1925050503d806000811461098c576040519150601f19603f3d011682016040523d82523d6000602084013e610991565b606091505b50509050806109eb576040517f2c024f9200000000000000000000000000000000000000000000000000000000815273ffffffffffffffffffffffffffffffffffffffff841660048201526024810183905260440161084f565b505050565b6000805473ffffffffffffffffffffffffffffffffffffffff8381167fffffffffffffffffffffffff0000000000000000000000000000000000000000831681178455604051919092169283917f8be0079c531659141344cd1fd0a4f28419497f9722a3daafe3b4186f6b6457e09190a35050565b803573ffffffffffffffffffffffffffffffffffffffff81168114610a8957600080fd5b919050565b60008060408385031215610aa157600080fd5b610aaa83610a65565b946020939093013593505050565b60008060008060608587031215610ace57600080fd5b610ad785610a65565b9350602085013567ffffffffffffffff80821115610af457600080fd5b908601906101208289031215610b0957600080fd5b90935060408601359080821115610b1f57600080fd5b818701915087601f830112610b3357600080fd5b813581811115610b4257600080fd5b8860208260061b8501011115610b5757600080fd5b95989497505060200194505050565b600060208284031215610b7857600080fd5b610b8182610a65565b9392505050565b803563ffffffff81168114610a8957600080fd5b803567ffffffffffffffff81168114610a8957600080fd5b63ffffffff610bc282610b88565b1682526020810135602083015267ffffffffffffffff610be460408301610b9c565b1660408301525050565b60808101610bfc8285610bb4565b73ffffffffffffffffffffffffffffffffffffffff831660608301529392505050565b6003811061086157600080fd5b600060208284031215610c3e57600080fd5b8151610b8181610c1f565b7f4e487b7100000000000000000000000000000000000000000000000000000000600052602160045260246000fd5b600060208284031215610c8a57600080fd5b610b8182610b9c565b600060208284031215610ca557600080fd5b610b8182610b88565b60008083357fffffffffffffffffffffffffffffffffffffffffffffffffffffffffffffffe1843603018112610ce357600080fd5b83018035915067ffffffffffffffff821115610cfe57600080fd5b602001915036819003821315610d1357600080fd5b9250929050565b838152818360208301376000910160200190815292915050565b604081526000835180604084015260005b81811015610d625760208187018101516060868401015201610d45565b5060006060828501015260607fffffffffffffffffffffffffffffffffffffffffffffffffffffffffffffffe0601f8301168401019150508260208301529392505050565b7f4e487b7100000000000000000000000000000000000000000000000000000000600052603260045260246000fd5b8183528181602085013750600060208284010152600060207fffffffffffffffffffffffffffffffffffffffffffffffffffffffffffffffe0601f840116840101905092915050565b610e298189610bb4565b73ffffffffffffffffffffffffffffffffffffffff8716606082015285608082015260e060a08201526000610e6260e083018688610dd6565b82810360c0840152610e75818587610dd6565b9a995050505050505050505056fea2646970667358221220fff46463af21c7da5a035758d52eec4cb87d5a2ce78a33467f031c424cf6a4dd64736f6c63430008160033",
  "linkReferences": {},
  "deployedLinkReferences": {}
}