{
  "_format": "hh-sol-artifact-1",
  "contractName": "ReceiveUln301",
  "sourceName": "contracts/uln/uln301/ReceiveUln301.sol",
  "abi": [
    {
      "inputs": [
        {
          "internalType": "address",
          "name": "_endpoint",
          "type": "address"
        },
        {
          "internalType": "uint32",
          "name": "_localEid",
          "type": "uint32"
        }
      ],
      "stateMutability": "nonpayable",
      "type": "constructor"
    },
    {
      "inputs": [],
      "name": "AddressSizeAlreadySet",
      "type": "error"
    },
    {
      "inputs": [],
      "name": "AtLeastOneDVN",
      "type": "error"
    },
    {
      "inputs": [],
      "name": "InvalidAddressSize",
      "type": "error"
    },
    {
      "inputs": [
        {
          "internalType": "uint256",
          "name": "configType",
          "type": "uint256"
        }
      ],
      "name": "InvalidConfigType",
      "type": "error"
    },
    {
      "inputs": [],
      "name": "InvalidConfirmations",
      "type": "error"
    },
    {
      "inputs": [],
      "name": "InvalidEid",
      "type": "error"
    },
    {
      "inputs": [],
      "name": "InvalidExecutor",
      "type": "error"
    },
    {
      "inputs": [],
      "name": "InvalidOptionalDVNCount",
      "type": "error"
    },
    {
      "inputs": [],
      "name": "InvalidOptionalDVNThreshold",
      "type": "error"
    },
    {
      "inputs": [],
      "name": "InvalidPacketHeader",
      "type": "error"
    },
    {
      "inputs": [],
      "name": "InvalidPacketVersion",
      "type": "error"
    },
    {
      "inputs": [],
      "name": "InvalidRequiredDVNCount",
      "type": "error"
    },
    {
      "inputs": [],
      "name": "InvalidSizeForAddress",
      "type": "error"
    },
    {
      "inputs": [],
      "name": "OnlyEndpoint",
      "type": "error"
    },
    {
      "inputs": [],
      "name": "OnlyExecutor",
      "type": "error"
    },
    {
      "inputs": [],
      "name": "Unsorted",
      "type": "error"
    },
    {
      "inputs": [
        {
          "internalType": "uint32",
          "name": "eid",
          "type": "uint32"
        }
      ],
      "name": "UnsupportedEid",
      "type": "error"
    },
    {
      "inputs": [],
      "name": "Verifying",
      "type": "error"
    },
    {
      "anonymous": false,
      "inputs": [
        {
          "indexed": false,
          "internalType": "uint16",
          "name": "eid",
          "type": "uint16"
        },
        {
          "indexed": false,
          "internalType": "uint256",
          "name": "size",
          "type": "uint256"
        }
      ],
      "name": "AddressSizeSet",
      "type": "event"
    },
    {
      "anonymous": false,
      "inputs": [
        {
          "components": [
            {
              "internalType": "uint32",
              "name": "eid",
              "type": "uint32"
            },
            {
              "internalType": "address",
              "name": "executor",
              "type": "address"
            }
          ],
          "indexed": false,
          "internalType": "struct SetDefaultExecutorParam[]",
          "name": "params",
          "type": "tuple[]"
        }
      ],
      "name": "DefaultExecutorsSet",
      "type": "event"
    },
    {
      "anonymous": false,
      "inputs": [
        {
          "components": [
            {
              "internalType": "uint32",
              "name": "eid",
              "type": "uint32"
            },
            {
              "components": [
                {
                  "internalType": "uint64",
                  "name": "confirmations",
                  "type": "uint64"
                },
                {
                  "internalType": "uint8",
                  "name": "requiredDVNCount",
                  "type": "uint8"
                },
                {
                  "internalType": "uint8",
                  "name": "optionalDVNCount",
                  "type": "uint8"
                },
                {
                  "internalType": "uint8",
                  "name": "optionalDVNThreshold",
                  "type": "uint8"
                },
                {
                  "internalType": "address[]",
                  "name": "requiredDVNs",
                  "type": "address[]"
                },
                {
                  "internalType": "address[]",
                  "name": "optionalDVNs",
                  "type": "address[]"
                }
              ],
              "internalType": "struct UlnConfig",
              "name": "config",
              "type": "tuple"
            }
          ],
          "indexed": false,
          "internalType": "struct SetDefaultUlnConfigParam[]",
          "name": "params",
          "type": "tuple[]"
        }
      ],
      "name": "DefaultUlnConfigsSet",
      "type": "event"
    },
    {
      "anonymous": false,
      "inputs": [
        {
          "indexed": false,
          "internalType": "address",
          "name": "oapp",
          "type": "address"
        },
        {
          "indexed": false,
          "internalType": "uint32",
          "name": "eid",
          "type": "uint32"
        },
        {
          "indexed": false,
          "internalType": "address",
          "name": "executor",
          "type": "address"
        }
      ],
      "name": "ExecutorSet",
      "type": "event"
    },
    {
      "anonymous": false,
      "inputs": [
        {
          "indexed": true,
          "internalType": "uint16",
          "name": "srcChainId",
          "type": "uint16"
        },
        {
          "indexed": false,
          "internalType": "bytes32",
          "name": "srcAddress",
          "type": "bytes32"
        },
        {
          "indexed": true,
          "internalType": "address",
          "name": "dstAddress",
          "type": "address"
        },
        {
          "indexed": false,
          "internalType": "uint64",
          "name": "nonce",
          "type": "uint64"
        },
        {
          "indexed": false,
          "internalType": "bytes32",
          "name": "payloadHash",
          "type": "bytes32"
        }
      ],
      "name": "InvalidDst",
      "type": "event"
    },
    {
      "anonymous": false,
      "inputs": [
        {
          "indexed": true,
          "internalType": "address",
          "name": "previousOwner",
          "type": "address"
        },
        {
          "indexed": true,
          "internalType": "address",
          "name": "newOwner",
          "type": "address"
        }
      ],
      "name": "OwnershipTransferred",
      "type": "event"
    },
    {
      "anonymous": false,
      "inputs": [
        {
          "components": [
            {
              "internalType": "uint32",
              "name": "srcEid",
              "type": "uint32"
            },
            {
              "internalType": "bytes32",
              "name": "sender",
              "type": "bytes32"
            },
            {
              "internalType": "uint64",
              "name": "nonce",
              "type": "uint64"
            }
          ],
          "indexed": false,
          "internalType": "struct Origin",
          "name": "origin",
          "type": "tuple"
        },
        {
          "indexed": false,
          "internalType": "address",
          "name": "receiver",
          "type": "address"
        }
      ],
      "name": "PacketDelivered",
      "type": "event"
    },
    {
      "anonymous": false,
      "inputs": [
        {
          "indexed": false,
          "internalType": "address",
          "name": "dvn",
          "type": "address"
        },
        {
          "indexed": false,
          "internalType": "bytes",
          "name": "header",
          "type": "bytes"
        },
        {
          "indexed": false,
          "internalType": "uint256",
          "name": "confirmations",
          "type": "uint256"
        },
        {
          "indexed": false,
          "internalType": "bytes32",
          "name": "proofHash",
          "type": "bytes32"
        }
      ],
      "name": "PayloadVerified",
      "type": "event"
    },
    {
      "anonymous": false,
      "inputs": [
        {
          "indexed": false,
          "internalType": "address",
          "name": "oapp",
          "type": "address"
        },
        {
          "indexed": false,
          "internalType": "uint32",
          "name": "eid",
          "type": "uint32"
        },
        {
          "components": [
            {
              "internalType": "uint64",
              "name": "confirmations",
              "type": "uint64"
            },
            {
              "internalType": "uint8",
              "name": "requiredDVNCount",
              "type": "uint8"
            },
            {
              "internalType": "uint8",
              "name": "optionalDVNCount",
              "type": "uint8"
            },
            {
              "internalType": "uint8",
              "name": "optionalDVNThreshold",
              "type": "uint8"
            },
            {
              "internalType": "address[]",
              "name": "requiredDVNs",
              "type": "address[]"
            },
            {
              "internalType": "address[]",
              "name": "optionalDVNs",
              "type": "address[]"
            }
          ],
          "indexed": false,
          "internalType": "struct UlnConfig",
          "name": "config",
          "type": "tuple"
        }
      ],
      "name": "UlnConfigSet",
      "type": "event"
    },
    {
      "inputs": [
        {
          "internalType": "uint32",
          "name": "dstEid",
          "type": "uint32"
        }
      ],
      "name": "addressSizes",
      "outputs": [
        {
          "internalType": "uint256",
          "name": "size",
          "type": "uint256"
        }
      ],
      "stateMutability": "view",
      "type": "function"
    },
    {
      "inputs": [
        {
          "internalType": "bytes",
          "name": "_packet",
          "type": "bytes"
        },
        {
          "internalType": "uint256",
          "name": "_gasLimit",
          "type": "uint256"
        }
      ],
      "name": "commitVerification",
      "outputs": [],
      "stateMutability": "nonpayable",
      "type": "function"
    },
    {
      "inputs": [
        {
          "internalType": "uint32",
          "name": "eid",
          "type": "uint32"
        }
      ],
      "name": "defaultExecutors",
      "outputs": [
        {
          "internalType": "address",
          "name": "executor",
          "type": "address"
        }
      ],
      "stateMutability": "view",
      "type": "function"
    },
    {
      "inputs": [
        {
          "internalType": "bytes",
          "name": "_packetHeader",
          "type": "bytes"
        },
        {
          "internalType": "bytes32",
          "name": "_payloadHash",
          "type": "bytes32"
        }
      ],
      "name": "executable",
      "outputs": [
        {
          "internalType": "enum ExecutionState",
          "name": "",
          "type": "uint8"
        }
      ],
      "stateMutability": "view",
      "type": "function"
    },
    {
      "inputs": [
        {
          "internalType": "address",
          "name": "oapp",
          "type": "address"
        },
        {
          "internalType": "uint32",
          "name": "eid",
          "type": "uint32"
        }
      ],
      "name": "executors",
      "outputs": [
        {
          "internalType": "address",
          "name": "executor",
          "type": "address"
        }
      ],
      "stateMutability": "view",
      "type": "function"
    },
    {
      "inputs": [
        {
          "internalType": "address",
          "name": "_oapp",
          "type": "address"
        },
        {
          "internalType": "uint32",
          "name": "_remoteEid",
          "type": "uint32"
        }
      ],
      "name": "getAppUlnConfig",
      "outputs": [
        {
          "components": [
            {
              "internalType": "uint64",
              "name": "confirmations",
              "type": "uint64"
            },
            {
              "internalType": "uint8",
              "name": "requiredDVNCount",
              "type": "uint8"
            },
            {
              "internalType": "uint8",
              "name": "optionalDVNCount",
              "type": "uint8"
            },
            {
              "internalType": "uint8",
              "name": "optionalDVNThreshold",
              "type": "uint8"
            },
            {
              "internalType": "address[]",
              "name": "requiredDVNs",
              "type": "address[]"
            },
            {
              "internalType": "address[]",
              "name": "optionalDVNs",
              "type": "address[]"
            }
          ],
          "internalType": "struct UlnConfig",
          "name": "",
          "type": "tuple"
        }
      ],
      "stateMutability": "view",
      "type": "function"
    },
    {
      "inputs": [
        {
          "internalType": "uint16",
          "name": "_eid",
          "type": "uint16"
        },
        {
          "internalType": "address",
          "name": "_oapp",
          "type": "address"
        },
        {
          "internalType": "uint256",
          "name": "_configType",
          "type": "uint256"
        }
      ],
      "name": "getConfig",
      "outputs": [
        {
          "internalType": "bytes",
          "name": "",
          "type": "bytes"
        }
      ],
      "stateMutability": "view",
      "type": "function"
    },
    {
      "inputs": [
        {
          "internalType": "address",
          "name": "_oapp",
          "type": "address"
        },
        {
          "internalType": "uint32",
          "name": "_remoteEid",
          "type": "uint32"
        }
      ],
      "name": "getExecutor",
      "outputs": [
        {
          "internalType": "address",
          "name": "",
          "type": "address"
        }
      ],
      "stateMutability": "view",
      "type": "function"
    },
    {
      "inputs": [
        {
          "internalType": "address",
          "name": "_oapp",
          "type": "address"
        },
        {
          "internalType": "uint32",
          "name": "_remoteEid",
          "type": "uint32"
        }
      ],
      "name": "getUlnConfig",
      "outputs": [
        {
          "components": [
            {
              "internalType": "uint64",
              "name": "confirmations",
              "type": "uint64"
            },
            {
              "internalType": "uint8",
              "name": "requiredDVNCount",
              "type": "uint8"
            },
            {
              "internalType": "uint8",
              "name": "optionalDVNCount",
              "type": "uint8"
            },
            {
              "internalType": "uint8",
              "name": "optionalDVNThreshold",
              "type": "uint8"
            },
            {
              "internalType": "address[]",
              "name": "requiredDVNs",
              "type": "address[]"
            },
            {
              "internalType": "address[]",
              "name": "optionalDVNs",
              "type": "address[]"
            }
          ],
          "internalType": "struct UlnConfig",
          "name": "rtnConfig",
          "type": "tuple"
        }
      ],
      "stateMutability": "view",
      "type": "function"
    },
    {
      "inputs": [
        {
          "internalType": "bytes32",
          "name": "headerHash",
          "type": "bytes32"
        },
        {
          "internalType": "bytes32",
          "name": "payloadHash",
          "type": "bytes32"
        },
        {
          "internalType": "address",
          "name": "dvn",
          "type": "address"
        }
      ],
      "name": "hashLookup",
      "outputs": [
        {
          "internalType": "bool",
          "name": "submitted",
          "type": "bool"
        },
        {
          "internalType": "uint64",
          "name": "confirmations",
          "type": "uint64"
        }
      ],
      "stateMutability": "view",
      "type": "function"
    },
    {
      "inputs": [],
      "name": "owner",
      "outputs": [
        {
          "internalType": "address",
          "name": "",
          "type": "address"
        }
      ],
      "stateMutability": "view",
      "type": "function"
    },
    {
      "inputs": [],
      "name": "renounceOwnership",
      "outputs": [],
      "stateMutability": "nonpayable",
      "type": "function"
    },
    {
      "inputs": [
        {
          "internalType": "uint16",
          "name": "_eid",
          "type": "uint16"
        },
        {
          "internalType": "uint256",
          "name": "_size",
          "type": "uint256"
        }
      ],
      "name": "setAddressSize",
      "outputs": [],
      "stateMutability": "nonpayable",
      "type": "function"
    },
    {
      "inputs": [
        {
          "internalType": "uint16",
          "name": "_eid",
          "type": "uint16"
        },
        {
          "internalType": "address",
          "name": "_oapp",
          "type": "address"
        },
        {
          "internalType": "uint256",
          "name": "_configType",
          "type": "uint256"
        },
        {
          "internalType": "bytes",
          "name": "_config",
          "type": "bytes"
        }
      ],
      "name": "setConfig",
      "outputs": [],
      "stateMutability": "nonpayable",
      "type": "function"
    },
    {
      "inputs": [
        {
          "components": [
            {
              "internalType": "uint32",
              "name": "eid",
              "type": "uint32"
            },
            {
              "internalType": "address",
              "name": "executor",
              "type": "address"
            }
          ],
          "internalType": "struct SetDefaultExecutorParam[]",
          "name": "_params",
          "type": "tuple[]"
        }
      ],
      "name": "setDefaultExecutors",
      "outputs": [],
      "stateMutability": "nonpayable",
      "type": "function"
    },
    {
      "inputs": [
        {
          "components": [
            {
              "internalType": "uint32",
              "name": "eid",
              "type": "uint32"
            },
            {
              "components": [
                {
                  "internalType": "uint64",
                  "name": "confirmations",
                  "type": "uint64"
                },
                {
                  "internalType": "uint8",
                  "name": "requiredDVNCount",
                  "type": "uint8"
                },
                {
                  "internalType": "uint8",
                  "name": "optionalDVNCount",
                  "type": "uint8"
                },
                {
                  "internalType": "uint8",
                  "name": "optionalDVNThreshold",
                  "type": "uint8"
                },
                {
                  "internalType": "address[]",
                  "name": "requiredDVNs",
                  "type": "address[]"
                },
                {
                  "internalType": "address[]",
                  "name": "optionalDVNs",
                  "type": "address[]"
                }
              ],
              "internalType": "struct UlnConfig",
              "name": "config",
              "type": "tuple"
            }
          ],
          "internalType": "struct SetDefaultUlnConfigParam[]",
          "name": "_params",
          "type": "tuple[]"
        }
      ],
      "name": "setDefaultUlnConfigs",
      "outputs": [],
      "stateMutability": "nonpayable",
      "type": "function"
    },
    {
      "inputs": [
        {
          "internalType": "address",
          "name": "newOwner",
          "type": "address"
        }
      ],
      "name": "transferOwnership",
      "outputs": [],
      "stateMutability": "nonpayable",
      "type": "function"
    },
    {
      "inputs": [
        {
          "internalType": "bytes",
          "name": "_packetHeader",
          "type": "bytes"
        },
        {
          "internalType": "bytes32",
          "name": "_payloadHash",
          "type": "bytes32"
        }
      ],
      "name": "verifiable",
      "outputs": [
        {
          "internalType": "enum VerificationState",
          "name": "",
          "type": "uint8"
        }
      ],
      "stateMutability": "view",
      "type": "function"
    },
    {
      "inputs": [
        {
          "internalType": "bytes",
          "name": "_packetHeader",
          "type": "bytes"
        },
        {
          "internalType": "bytes32",
          "name": "_payloadHash",
          "type": "bytes32"
        },
        {
          "internalType": "uint64",
          "name": "_confirmations",
          "type": "uint64"
        }
      ],
      "name": "verify",
      "outputs": [],
      "stateMutability": "nonpayable",
      "type": "function"
    },
    {
      "inputs": [],
      "name": "version",
      "outputs": [
        {
          "internalType": "uint64",
          "name": "major",
          "type": "uint64"
        },
        {
          "internalType": "uint8",
          "name": "minor",
          "type": "uint8"
        },
        {
          "internalType": "uint8",
          "name": "endpointVersion",
          "type": "uint8"
        }
      ],
      "stateMutability": "pure",
      "type": "function"
    }
  ],
  "bytecode": "0x60c06040523480156200001157600080fd5b506040516200361c3803806200361c8339810160408190526200003491620000b2565b6001600160a01b03821660805263ffffffff811660a0528181620000583362000062565b5050505062000104565b600080546001600160a01b038381166001600160a01b0319831681178455604051919092169283917f8be0079c531659141344cd1fd0a4f28419497f9722a3daafe3b4186f6b6457e09190a35050565b60008060408385031215620000c657600080fd5b82516001600160a01b0381168114620000de57600080fd5b602084015190925063ffffffff81168114620000f957600080fd5b809150509250929050565b60805160a0516134dd6200013f60003960008181610e97015261111b015260008181610f9a015281816112bd01526120e101526134dd6000f3fe608060405234801561001057600080fd5b506004361061016c5760003560e01c806354fd4d50116100cd5780639653a70411610081578063e65106f811610066578063e65106f8146103d2578063f2fde38b146103e5578063f8e1734c146103f857600080fd5b80639653a7041461037e57806398678a111461039157600080fd5b8063715018a6116100b2578063715018a6146103455780637401fccc1461034d5780638da5cb5b1461036057600080fd5b806354fd4d50146103125780636d26e5d01461033257600080fd5b806339e3f938116101245780633c782a52116101095780633c782a521461027a57806343ea4fa9146102df57806352d2871f146102f257600080fd5b806339e3f9381461024757806339e928a81461026757600080fd5b806327d12cd91161015557806327d12cd9146101b957806329460b0b146101d95780632fed39ae146101ec57600080fd5b80630223536e146101715780630f8355c014610186575b600080fd5b61018461017f366004612604565b61040b565b005b6101a6610194366004612677565b60036020526000908152604090205481565b6040519081526020015b60405180910390f35b6101cc6101c7366004612692565b61041d565b6040516101b09190612744565b6101846101e7366004612757565b610454565b6102226101fa366004612677565b60056020526000908152604090205473ffffffffffffffffffffffffffffffffffffffff1681565b60405173ffffffffffffffffffffffffffffffffffffffff90911681526020016101b0565b61025a6102553660046127ee565b610639565b6040516101b091906128e7565b6101846102753660046128fa565b6107db565b6102bf61028836600461295d565b600260209081526000938452604080852082529284528284209052825290205460ff811690610100900467ffffffffffffffff1682565b60408051921515835267ffffffffffffffff9091166020830152016101b0565b61025a6102ed3660046127ee565b610936565b6103056103003660046129a8565b610cf0565b6040516101b09190612a55565b6040805160038152600060208201526001918101919091526060016101b0565b610184610340366004612a68565b610da1565b610184610e7a565b6101cc61035b366004612692565b610e8e565b60005473ffffffffffffffffffffffffffffffffffffffff16610222565b61022261038c3660046127ee565b611088565b61022261039f3660046127ee565b600460209081526000928352604080842090915290825290205473ffffffffffffffffffffffffffffffffffffffff1681565b6101846103e0366004612692565b611103565b6101846103f3366004612a92565b611204565b610184610406366004612aaf565b6112bb565b610417848484846113bc565b50505050565b60008061042b858585610e8e565b600281111561043c5761043c6126de565b036104495750600061044d565b5060025b9392505050565b61045c6114d0565b60005b818110156105fb573683838381811061047a5761047a612b20565b905060200281019061048c9190612b4f565b905060ff61049d6020830183612b8d565b6104ae906040810190602001612bd2565b60ff16036104e8576040517f1b66804100000000000000000000000000000000000000000000000000000000815260040160405180910390fd5b60ff6104f76020830183612b8d565b610508906060810190604001612bd2565b60ff1603610542576040517f05f7ab6200000000000000000000000000000000000000000000000000000000815260040160405180910390fd5b67ffffffffffffffff6105586020830183612b8d565b610566906020810190612bed565b67ffffffffffffffff16036105a7576040517f8f6ae8f800000000000000000000000000000000000000000000000000000000815260040160405180910390fd5b6105c56105b76020830183612b8d565b6105c090612dda565b611551565b6105f260006105d76020840184612677565b6105e46020850185612b8d565b6105ed90612dda565b6115a2565b5060010161045f565b507faaf3aaa0c11056e86ac56eb653e25b005ca1a7d4dcd21ba24647f7ab63f3b560828260405161062d929190612e98565b60405180910390a15050565b6040805160c0810182526000808252602082018190529181018290526060808201929092526080810182905260a081019190915273ffffffffffffffffffffffffffffffffffffffff8316600090815260016020818152604080842063ffffffff87168552825292839020835160c081018552815467ffffffffffffffff8116825260ff680100000000000000008204811683860152690100000000000000000082048116838801526a0100000000000000000000909104166060820152928101805485518185028101850190965280865293949193608086019383018282801561075a57602002820191906000526020600020905b815473ffffffffffffffffffffffffffffffffffffffff16815260019091019060200180831161072f575b50505050508152602001600282018054806020026020016040519081016040528092919081815260200182805480156107c957602002820191906000526020600020905b815473ffffffffffffffffffffffffffffffffffffffff16815260019091019060200180831161079e575b50505050508152505090505b92915050565b6107e36114d0565b60005b81811015610904573683838381811061080157610801612b20565b9050604002019050600073ffffffffffffffffffffffffffffffffffffffff168160200160208101906108349190612a92565b73ffffffffffffffffffffffffffffffffffffffff1603610881576040517f710c949700000000000000000000000000000000000000000000000000000000815260040160405180910390fd5b6108916040820160208301612a92565b600560006108a26020850185612677565b63ffffffff168152602081019190915260400160002080547fffffffffffffffffffffffff00000000000000000000000000000000000000001673ffffffffffffffffffffffffffffffffffffffff92909216919091179055506001016107e6565b507f2a2676897ce6724d11fb8016f9bcdfe9fe564bc3524411d5df7914aac78aeeb3828260405161062d929190613037565b6040805160c0810182526000808252602080830182905282840182905260608084018390526080840181905260a084015263ffffffff85168083527fa6eef7e35abe7026729641147f7915573c7e97b47efa546f5f6e3230263bcb49825284832073ffffffffffffffffffffffffffffffffffffffff88168452600183528584209184529152929020805491929167ffffffffffffffff16806109e657825467ffffffffffffffff168452610a05565b67ffffffffffffffff81811614610a055767ffffffffffffffff811684525b815468010000000000000000900460ff16610abb57825468010000000000000000900460ff1615610ab65782600101805480602002602001604051908101604052809291908181526020018280548015610a9557602002820191906000526020600020905b815473ffffffffffffffffffffffffffffffffffffffff168152600190910190602001808311610a6a575b50505050506080850152825468010000000000000000900460ff1660208501525b610b59565b815468010000000000000000900460ff90811614610b595781600101805480602002602001604051908101604052809291908181526020018280548015610b3857602002820191906000526020600020905b815473ffffffffffffffffffffffffffffffffffffffff168152600190910190602001808311610b0d575b50505050506080850152815468010000000000000000900460ff1660208501525b81546901000000000000000000900460ff16610c285782546901000000000000000000900460ff1615610c235782600201805480602002602001604051908101604052809291908181526020018280548015610beb57602002820191906000526020600020905b815473ffffffffffffffffffffffffffffffffffffffff168152600190910190602001808311610bc0575b505050505060a0850152825460ff69010000000000000000008204811660408701526a01000000000000000000009091041660608501525b610cde565b81546901000000000000000000900460ff90811614610cde5781600201805480602002602001604051908101604052809291908181526020018280548015610ca657602002820191906000526020600020905b815473ffffffffffffffffffffffffffffffffffffffff168152600190910190602001808311610c7b575b505050505060a0850152815460ff69010000000000000000008204811660408701526a01000000000000000000009091041660608501525b610ce784611551565b50505092915050565b606060018203610d4157610d08838561ffff16611088565b6040805173ffffffffffffffffffffffffffffffffffffffff9092166020830152015b604051602081830303815290604052905061044d565b60028203610d6757610d57838561ffff16610936565b604051602001610d2b91906128e7565b6040517f961a995f000000000000000000000000000000000000000000000000000000008152600481018390526024015b60405180910390fd5b610da96114d0565b6020811115610de4576040517fbcfcf59e00000000000000000000000000000000000000000000000000000000815260040160405180910390fd5b61ffff821660009081526003602052604090205415610e2f576040517f831ad0ad00000000000000000000000000000000000000000000000000000000815260040160405180910390fd5b61ffff8216600081815260036020908152604091829020849055815192835282018390527ee9ab3709e58edd0db46318d63673d8ae4681fa3e51d9f9dc07cde5109ff748910161062d565b610e826114d0565b610e8c6000611936565b565b6000610ebb84847f00000000000000000000000000000000000000000000000000000000000000006119ab565b6000610ec78585611a7e565b90506000610ee3610ed88787611a90565b63ffffffff16611ab3565b90506000610ef18787611b4b565b61ffff831660009081526003602052604081205491925090610f1d90610f178a8a611b6e565b90611b87565b84604051602001610f2f9291906130aa565b604080517fffffffffffffffffffffffffffffffffffffffffffffffffffffffffffffffe0818403018152908290527ffdc07c70000000000000000000000000000000000000000000000000000000008252915073ffffffffffffffffffffffffffffffffffffffff7f0000000000000000000000000000000000000000000000000000000000000000169063fdc07c7090610fd190869085906004016130f4565b602060405180830381865afa158015610fee573d6000803e3d6000fd5b505050506040513d601f19601f820116820180604052508101906110129190613111565b67ffffffffffffffff168267ffffffffffffffff161161103957600294505050505061044d565b61106861104a858561ffff16610936565b898960405161105a92919061312e565b604051809103902088611c28565b1561107a57600194505050505061044d565b506000979650505050505050565b73ffffffffffffffffffffffffffffffffffffffff808316600090815260046020908152604080832063ffffffff86168452909152812054909116806110f95763ffffffff831660009081526005602052604090205473ffffffffffffffffffffffffffffffffffffffff166110fb565b805b949350505050565b3660006111108585611d31565b9150915061113f82827f00000000000000000000000000000000000000000000000000000000000000006119ab565b600061114b8686611a7e565b9050600061115c610ed88888611a90565b9050600061116e838361ffff16610936565b905061119b81868660405161118492919061312e565b60405180910390206111968b8b611d4d565b611d77565b6111fa826111a98a8a611b6e565b856111b48c8c611b4b565b6111be8d8d611f26565b8080601f0160208091040260200160405190810160405280939291908181526020018383808284376000920191909152508e9250611f36915050565b5050505050505050565b61120c6114d0565b73ffffffffffffffffffffffffffffffffffffffff81166112af576040517f08c379a000000000000000000000000000000000000000000000000000000000815260206004820152602660248201527f4f776e61626c653a206e6577206f776e657220697320746865207a65726f206160448201527f64647265737300000000000000000000000000000000000000000000000000006064820152608401610d98565b6112b881611936565b50565b7f000000000000000000000000000000000000000000000000000000000000000073ffffffffffffffffffffffffffffffffffffffff16331461132a576040517f7eb966c800000000000000000000000000000000000000000000000000000000815260040160405180910390fd5b6113378561ffff166121e9565b6001830361135e5761135961ffff86168561135484860186612a92565b612230565b6113b5565b600283036113805761135961ffff86168561137b8486018661313e565b6122db565b6040517f961a995f00000000000000000000000000000000000000000000000000000000815260048101849052602401610d98565b5050505050565b6040805180820182526001815267ffffffffffffffff8316602082015290516002906000906113ee908890889061312e565b6040805191829003909120825260208083019390935290810160009081208682528352818120338083529084529082902084518154959094015167ffffffffffffffff16610100027fffffffffffffffffffffffffffffffffffffffffffffff0000000000000000ff941515949094167fffffffffffffffffffffffffffffffffffffffffffffff000000000000000000909516949094179290921790925590517f2cb0eed7538baeae4c6fde038c0fd0384d27de0dd55a228c65847bda6aa1ab56916114c2918790879086908890613173565b60405180910390a150505050565b60005473ffffffffffffffffffffffffffffffffffffffff163314610e8c576040517f08c379a000000000000000000000000000000000000000000000000000000000815260206004820181905260248201527f4f776e61626c653a2063616c6c6572206973206e6f7420746865206f776e65726044820152606401610d98565b602081015160ff1615801561156b5750606081015160ff16155b156112b8576040517f7e36c28400000000000000000000000000000000000000000000000000000000815260040160405180910390fd5b602081015160ff90811614806115bd5750602081015160ff16155b1561160457608081015151156115ff576040517f1b66804100000000000000000000000000000000000000000000000000000000815260040160405180910390fd5b611683565b806020015160ff1681608001515114158061163f57506002611628600160ff613227565b6116329190613240565b60ff16816020015160ff16115b15611676576040517f1b66804100000000000000000000000000000000000000000000000000000000815260040160405180910390fd5b6116838160800151612324565b604081015160ff908116148061169e5750604081015160ff16155b156117245760a081015151156116e0576040517f05f7ab6200000000000000000000000000000000000000000000000000000000815260040160405180910390fd5b606081015160ff161561171f576040517f81da67ee00000000000000000000000000000000000000000000000000000000815260040160405180910390fd5b6117fb565b806040015160ff168160a001515114158061175f57506002611748600160ff613227565b6117529190613240565b60ff16816040015160ff16115b15611796576040517f05f7ab6200000000000000000000000000000000000000000000000000000000815260040160405180910390fd5b606081015160ff1615806117b75750806040015160ff16816060015160ff16115b156117ee576040517f81da67ee00000000000000000000000000000000000000000000000000000000815260040160405180910390fd5b6117fb8160a00151612324565b73ffffffffffffffffffffffffffffffffffffffff8316600090815260016020818152604080842063ffffffff87168552825292839020845181548684015195870151606088015167ffffffffffffffff9093167fffffffffffffffffffffffffffffffffffffffffffffff000000000000000000909216919091176801000000000000000060ff97881602177fffffffffffffffffffffffffffffffffffffffffff0000ffffffffffffffffff166901000000000000000000918716919091027fffffffffffffffffffffffffffffffffffffffffff00ffffffffffffffffffff16176a010000000000000000000095909116949094029390931783556080840151805185949361191293908501920190612506565b5060a0820151805161192e916002840191602090910190612506565b505050505050565b6000805473ffffffffffffffffffffffffffffffffffffffff8381167fffffffffffffffffffffffff0000000000000000000000000000000000000000831681178455604051919092169283917f8be0079c531659141344cd1fd0a4f28419497f9722a3daafe3b4186f6b6457e09190a35050565b605182146119e5576040517f0666bafd00000000000000000000000000000000000000000000000000000000815260040160405180910390fd5b60016119f184846123be565b60ff1614611a2b576040517f28fac06600000000000000000000000000000000000000000000000000000000815260040160405180910390fd5b8063ffffffff16611a3c84846123e0565b63ffffffff1614611a79576040517f9a61cd2600000000000000000000000000000000000000000000000000000000815260040160405180910390fd5b505050565b600061044d611a8d84846123f0565b90565b6000611aa0600d60098486613289565b611aa9916132b3565b60e01c9392505050565b600061ffff821115611b47576040517f08c379a000000000000000000000000000000000000000000000000000000000815260206004820152602660248201527f53616665436173743a2076616c756520646f65736e27742066697420696e203160448201527f36206269747300000000000000000000000000000000000000000000000000006064820152608401610d98565b5090565b6000611b5b600960018486613289565b611b64916132fb565b60c01c9392505050565b6000611b7e602d600d8486613289565b61044d91613341565b6060811580611b965750602082115b15611bcd576040517f59baef1d00000000000000000000000000000000000000000000000000000000815260040160405180910390fd5b8167ffffffffffffffff811115611be657611be6612c0a565b6040519080825280601f01601f191660200182016040528015611c10576020820181803683370190505b506008909202610100039290921b6020820152919050565b602083015160009060ff1615611cab5760005b846020015160ff168160ff161015611c9357611c7d85608001518260ff1681518110611c6957611c69612b20565b602002602001015185858860000151612400565b611c8b57600091505061044d565b600101611c3b565b50836040015160ff16600003611cab5750600161044d565b606084015160005b856040015160ff168160ff161015611d2557611cf58660a001518260ff1681518110611ce157611ce1612b20565b602002602001015186868960000151612400565b15611d1d5781611d048161337d565b9250508160ff16600003611d1d5760019250505061044d565b600101611cb3565b50600095945050505050565b366000611d416051828587613289565b915091505b9250929050565b6000611d59838361248f565b604051611d6792919061312e565b6040518091039020905092915050565b611d82838383611c28565b611db8576040517f692c93cb00000000000000000000000000000000000000000000000000000000815260040160405180910390fd5b602083015160ff1615611e705760005b836020015160ff168160ff161015611e6e57600083815260026020908152604080832085845290915281206080860151805191929160ff8516908110611e1057611e10612b20565b60209081029190910181015173ffffffffffffffffffffffffffffffffffffffff16825281019190915260400160002080547fffffffffffffffffffffffffffffffffffffffffffffff000000000000000000169055600101611dc8565b505b604083015160ff1615611a795760005b836040015160ff168160ff161015610417576000838152600260209081526040808320858452909152812060a0860151805191929160ff8516908110611ec857611ec8612b20565b60209081029190910181015173ffffffffffffffffffffffffffffffffffffffff16825281019190915260400160002080547fffffffffffffffffffffffffffffffffffffffffffffff000000000000000000169055600101611e80565b366000611d418360718187613289565b611f44848761ffff16611088565b73ffffffffffffffffffffffffffffffffffffffff163373ffffffffffffffffffffffffffffffffffffffff1614611fa8576040517f7fb6be0200000000000000000000000000000000000000000000000000000000815260040160405180910390fd5b8373ffffffffffffffffffffffffffffffffffffffff163b600003612045578373ffffffffffffffffffffffffffffffffffffffff168661ffff167feca5e9e3d49c3ee9d9362efa82baa91c668a7f032b3a403638ae65e273680136878686805190602001206040516120389392919092835267ffffffffffffffff919091166020830152604082015260600190565b60405180910390a361192e565b61ffff8616600090815260036020526040812054612064908790611b87565b856040516020016120769291906130aa565b604080517fffffffffffffffffffffffffffffffffffffffffffffffffffffffffffffffe0818403018152908290527fc2fa4813000000000000000000000000000000000000000000000000000000008252915073ffffffffffffffffffffffffffffffffffffffff7f0000000000000000000000000000000000000000000000000000000000000000169063c2fa481390612120908a9085908a908a9089908b906004016133b8565b600060405180830381600087803b15801561213a57600080fd5b505af115801561214e573d6000803e3d6000fd5b5050604080516060808201835261ffff8c1680835260208084018d815267ffffffffffffffff8c8116868801908152875194855291519284019290925251169381019390935273ffffffffffffffffffffffffffffffffffffffff8a169083015292507f3cd5e48f9730b129dc7550f0fcea9c767b7be37837cd10e55eb35f734f4bca04915060800160405180910390a15050505050505050565b6121f28161249f565b6112b8576040517f2146a07a00000000000000000000000000000000000000000000000000000000815263ffffffff82166004820152602401610d98565b73ffffffffffffffffffffffffffffffffffffffff828116600081815260046020908152604080832063ffffffff89168085529083529281902080547fffffffffffffffffffffffff00000000000000000000000000000000000000001695871695861790558051938452908301919091528101919091527f2bef5fe6b6383925f8e9893d464521c5fcd4f9d4dc14d32d900849c5ae0af710906060015b60405180910390a1505050565b6122e68284836115a2565b6122f08284610936565b507f82118522aa536ac0e96cc5c689407ae42b89d592aa133890a01f1509842f50818284836040516122ce93929190613426565b6000805b8251811015611a7957600083828151811061234557612345612b20565b602002602001015190508273ffffffffffffffffffffffffffffffffffffffff168173ffffffffffffffffffffffffffffffffffffffff16116123b4576040517fa228a30b00000000000000000000000000000000000000000000000000000000815260040160405180910390fd5b9150600101612328565b60006123cd6001828486613289565b6123d691613461565b60f81c9392505050565b6000611aa06031602d8486613289565b6000611b7e605160318486613289565b6000838152600260209081526040808320858452825280832073ffffffffffffffffffffffffffffffffffffffff88168452825280832081518083019092525460ff811615801580845261010090920467ffffffffffffffff1693830193909352909161248557508267ffffffffffffffff16816020015167ffffffffffffffff1610155b9695505050505050565b366000611d418360518187613289565b63ffffffff811660009081527fa6eef7e35abe7026729641147f7915573c7e97b47efa546f5f6e3230263bcb4960205260408120805468010000000000000000900460ff1615158061044d5750546a0100000000000000000000900460ff16151592915050565b828054828255906000526020600020908101928215612580579160200282015b8281111561258057825182547fffffffffffffffffffffffff00000000000000000000000000000000000000001673ffffffffffffffffffffffffffffffffffffffff909116178255602090920191600190910190612526565b50611b479291505b80821115611b475760008155600101612588565b60008083601f8401126125ae57600080fd5b50813567ffffffffffffffff8111156125c657600080fd5b602083019150836020828501011115611d4657600080fd5b67ffffffffffffffff811681146112b857600080fd5b80356125ff816125de565b919050565b6000806000806060858703121561261a57600080fd5b843567ffffffffffffffff81111561263157600080fd5b61263d8782880161259c565b909550935050602085013591506040850135612658816125de565b939692955090935050565b803563ffffffff811681146125ff57600080fd5b60006020828403121561268957600080fd5b61044d82612663565b6000806000604084860312156126a757600080fd5b833567ffffffffffffffff8111156126be57600080fd5b6126ca8682870161259c565b909790965060209590950135949350505050565b7f4e487b7100000000000000000000000000000000000000000000000000000000600052602160045260246000fd5b600381106112b8577f4e487b7100000000000000000000000000000000000000000000000000000000600052602160045260246000fd5b602081016127518361270d565b91905290565b6000806020838503121561276a57600080fd5b823567ffffffffffffffff8082111561278257600080fd5b818501915085601f83011261279657600080fd5b8135818111156127a557600080fd5b8660208260051b85010111156127ba57600080fd5b60209290920196919550909350505050565b73ffffffffffffffffffffffffffffffffffffffff811681146112b857600080fd5b6000806040838503121561280157600080fd5b823561280c816127cc565b915061281a60208401612663565b90509250929050565b60008151808452602080850194506020840160005b8381101561286a57815173ffffffffffffffffffffffffffffffffffffffff1687529582019590820190600101612838565b509495945050505050565b67ffffffffffffffff815116825260ff602082015116602083015260ff604082015116604083015260ff60608201511660608301526000608082015160c060808501526128c560c0850182612823565b905060a083015184820360a08601526128de8282612823565b95945050505050565b60208152600061044d6020830184612875565b6000806020838503121561290d57600080fd5b823567ffffffffffffffff8082111561292557600080fd5b818501915085601f83011261293957600080fd5b81358181111561294857600080fd5b8660208260061b85010111156127ba57600080fd5b60008060006060848603121561297257600080fd5b8335925060208401359150604084013561298b816127cc565b809150509250925092565b803561ffff811681146125ff57600080fd5b6000806000606084860312156129bd57600080fd5b6129c684612996565b925060208401356129d6816127cc565b929592945050506040919091013590565b60005b83811015612a025781810151838201526020016129ea565b50506000910152565b60008151808452612a238160208601602086016129e7565b601f017fffffffffffffffffffffffffffffffffffffffffffffffffffffffffffffffe0169290920160200192915050565b60208152600061044d6020830184612a0b565b60008060408385031215612a7b57600080fd5b612a8483612996565b946020939093013593505050565b600060208284031215612aa457600080fd5b81356110f9816127cc565b600080600080600060808688031215612ac757600080fd5b612ad086612996565b94506020860135612ae0816127cc565b935060408601359250606086013567ffffffffffffffff811115612b0357600080fd5b612b0f8882890161259c565b969995985093965092949392505050565b7f4e487b7100000000000000000000000000000000000000000000000000000000600052603260045260246000fd5b600082357fffffffffffffffffffffffffffffffffffffffffffffffffffffffffffffffc1833603018112612b8357600080fd5b9190910192915050565b600082357fffffffffffffffffffffffffffffffffffffffffffffffffffffffffffffff41833603018112612b8357600080fd5b803560ff811681146125ff57600080fd5b600060208284031215612be457600080fd5b61044d82612bc1565b600060208284031215612bff57600080fd5b81356110f9816125de565b7f4e487b7100000000000000000000000000000000000000000000000000000000600052604160045260246000fd5b60405160c0810167ffffffffffffffff81118282101715612c5c57612c5c612c0a565b60405290565b600082601f830112612c7357600080fd5b8135602067ffffffffffffffff80831115612c9057612c90612c0a565b8260051b6040517fffffffffffffffffffffffffffffffffffffffffffffffffffffffffffffffe0603f83011681018181108482111715612cd357612cd3612c0a565b6040529384526020818701810194908101925087851115612cf357600080fd5b6020870191505b84821015612d1c578135612d0d816127cc565b83529183019190830190612cfa565b979650505050505050565b600060c08284031215612d3957600080fd5b612d41612c39565b9050612d4c826125f4565b8152612d5a60208301612bc1565b6020820152612d6b60408301612bc1565b6040820152612d7c60608301612bc1565b6060820152608082013567ffffffffffffffff80821115612d9c57600080fd5b612da885838601612c62565b608084015260a0840135915080821115612dc157600080fd5b50612dce84828501612c62565b60a08301525092915050565b60006107d53683612d27565b60008083357fffffffffffffffffffffffffffffffffffffffffffffffffffffffffffffffe1843603018112612e1b57600080fd5b830160208101925035905067ffffffffffffffff811115612e3b57600080fd5b8060051b3603821315611d4657600080fd5b8183526000602080850194508260005b8581101561286a578135612e70816127cc565b73ffffffffffffffffffffffffffffffffffffffff1687529582019590820190600101612e5d565b60208082528181018390526000906040808401600586901b8501820187855b88811015613029577fffffffffffffffffffffffffffffffffffffffffffffffffffffffffffffffc08089850301855282357fffffffffffffffffffffffffffffffffffffffffffffffffffffffffffffffc18c3603018112612f1957600080fd5b8b0163ffffffff612f2982612663565b168552878101357fffffffffffffffffffffffffffffffffffffffffffffffffffffffffffffff41823603018112612f6057600080fd5b858901889052018035612f72816125de565b67ffffffffffffffff1685880152612f8b818901612bc1565b606060ff80831682890152612fa18a8501612bc1565b92506080818416818a0152612fb7838601612bc1565b935060a09250818416838a0152612fd081860186612de6565b60c08b81015294509150612feb905061010089018483612e4d565b925050612ffa81840184612de6565b93509050838783030160e0880152613013828483612e4d565b978a019796505050928701925050600101612eb7565b509098975050505050505050565b6020808252818101839052600090604080840186845b8781101561309d5763ffffffff61306383612663565b16835284820135613073816127cc565b73ffffffffffffffffffffffffffffffffffffffff1683860152918301919083019060010161304d565b5090979650505050505050565b600083516130bc8184602088016129e7565b60609390931b7fffffffffffffffffffffffffffffffffffffffff000000000000000000000000169190920190815260140192915050565b61ffff831681526040602082015260006110fb6040830184612a0b565b60006020828403121561312357600080fd5b81516110f9816125de565b8183823760009101908152919050565b60006020828403121561315057600080fd5b813567ffffffffffffffff81111561316757600080fd5b6110fb84828501612d27565b73ffffffffffffffffffffffffffffffffffffffff8616815260806020820152836080820152838560a0830137600060a08583010152600060a07fffffffffffffffffffffffffffffffffffffffffffffffffffffffffffffffe0601f870116830101905067ffffffffffffffff841660408301528260608301529695505050505050565b7f4e487b7100000000000000000000000000000000000000000000000000000000600052601160045260246000fd5b60ff82811682821603908111156107d5576107d56131f8565b600060ff83168061327a577f4e487b7100000000000000000000000000000000000000000000000000000000600052601260045260246000fd5b8060ff84160491505092915050565b6000808585111561329957600080fd5b838611156132a657600080fd5b5050820193919092039150565b7fffffffff0000000000000000000000000000000000000000000000000000000081358181169160048510156132f35780818660040360031b1b83161692505b505092915050565b7fffffffffffffffff00000000000000000000000000000000000000000000000081358181169160088510156132f35760089490940360031b84901b1690921692915050565b803560208310156107d5577fffffffffffffffffffffffffffffffffffffffffffffffffffffffffffffffff602084900360031b1b1692915050565b600060ff821680613390576133906131f8565b7fffffffffffffffffffffffffffffffffffffffffffffffffffffffffffffffff0192915050565b61ffff8716815260c0602082015260006133d560c0830188612a0b565b73ffffffffffffffffffffffffffffffffffffffff8716604084015267ffffffffffffffff8616606084015284608084015282810360a08401526134198185612a0b565b9998505050505050505050565b73ffffffffffffffffffffffffffffffffffffffff8416815263ffffffff831660208201526060604082015260006128de6060830184612875565b7fff0000000000000000000000000000000000000000000000000000000000000081358181169160018510156132f35760019490940360031b84901b169092169291505056fea2646970667358221220119cffcfa2d7feed6efb59236446a1b4b1f46691fc2bd81b1b9cfbf8e69bcd9664736f6c63430008160033",
  "linkReferences": {},
  "deployedLinkReferences": {}
}