{
  "_format": "hh-sol-artifact-1",
  "contractName": "DVNFeeLib",
  "sourceName": "contracts/uln/dvn/DVNFeeLib.sol",
  "abi": [
    {
      "inputs": [
        {
          "internalType": "uint256",
          "name": "_nativeDecimalsRate",
          "type": "uint256"
        }
      ],
      "stateMutability": "nonpayable",
      "type": "constructor"
    },
    {
      "inputs": [
        {
          "internalType": "uint256",
          "name": "cursor",
          "type": "uint256"
        }
      ],
      "name": "InvalidDVNOptions",
      "type": "error"
    },
    {
      "inputs": [],
      "name": "ToAddressIsZero",
      "type": "error"
    },
    {
      "inputs": [
        {
          "internalType": "address",
          "name": "_to",
          "type": "address"
        },
        {
          "internalType": "uint256",
          "name": "_value",
          "type": "uint256"
        }
      ],
      "name": "TransferNativeFailed",
      "type": "error"
    },
    {
      "inputs": [
        {
          "internalType": "uint8",
          "name": "optionType",
          "type": "uint8"
        }
      ],
      "name": "UnsupportedOptionType",
      "type": "error"
    },
    {
      "anonymous": false,
      "inputs": [
        {
          "indexed": true,
          "internalType": "address",
          "name": "previousOwner",
          "type": "address"
        },
        {
          "indexed": true,
          "internalType": "address",
          "name": "newOwner",
          "type": "address"
        }
      ],
      "name": "OwnershipTransferred",
      "type": "event"
    },
    {
      "inputs": [
        {
          "components": [
            {
              "internalType": "address",
              "name": "priceFeed",
              "type": "address"
            },
            {
              "internalType": "uint32",
              "name": "dstEid",
              "type": "uint32"
            },
            {
              "internalType": "uint64",
              "name": "confirmations",
              "type": "uint64"
            },
            {
              "internalType": "address",
              "name": "sender",
              "type": "address"
            },
            {
              "internalType": "uint64",
              "name": "quorum",
              "type": "uint64"
            },
            {
              "internalType": "uint16",
              "name": "defaultMultiplierBps",
              "type": "uint16"
            }
          ],
          "internalType": "struct IDVNFeeLib.FeeParams",
          "name": "_params",
          "type": "tuple"
        },
        {
          "components": [
            {
              "internalType": "uint64",
              "name": "gas",
              "type": "uint64"
            },
            {
              "internalType": "uint16",
              "name": "multiplierBps",
              "type": "uint16"
            },
            {
              "internalType": "uint128",
              "name": "floorMarginUSD",
              "type": "uint128"
            }
          ],
          "internalType": "struct IDVN.DstConfig",
          "name": "_dstConfig",
          "type": "tuple"
        },
        {
          "internalType": "bytes",
          "name": "_options",
          "type": "bytes"
        }
      ],
      "name": "getFee",
      "outputs": [
        {
          "internalType": "uint256",
          "name": "",
          "type": "uint256"
        }
      ],
      "stateMutability": "view",
      "type": "function"
    },
    {
      "inputs": [
        {
          "components": [
            {
              "internalType": "address",
              "name": "priceFeed",
              "type": "address"
            },
            {
              "internalType": "uint32",
              "name": "dstEid",
              "type": "uint32"
            },
            {
              "internalType": "uint64",
              "name": "confirmations",
              "type": "uint64"
            },
            {
              "internalType": "address",
              "name": "sender",
              "type": "address"
            },
            {
              "internalType": "uint64",
              "name": "quorum",
              "type": "uint64"
            },
            {
              "internalType": "uint16",
              "name": "defaultMultiplierBps",
              "type": "uint16"
            }
          ],
          "internalType": "struct IDVNFeeLib.FeeParams",
          "name": "_params",
          "type": "tuple"
        },
        {
          "components": [
            {
              "internalType": "uint64",
              "name": "gas",
              "type": "uint64"
            },
            {
              "internalType": "uint16",
              "name": "multiplierBps",
              "type": "uint16"
            },
            {
              "internalType": "uint128",
              "name": "floorMarginUSD",
              "type": "uint128"
            }
          ],
          "internalType": "struct IDVN.DstConfig",
          "name": "_dstConfig",
          "type": "tuple"
        },
        {
          "internalType": "bytes",
          "name": "_options",
          "type": "bytes"
        }
      ],
      "name": "getFeeOnSend",
      "outputs": [
        {
          "internalType": "uint256",
          "name": "",
          "type": "uint256"
        }
      ],
      "stateMutability": "payable",
      "type": "function"
    },
    {
      "inputs": [],
      "name": "owner",
      "outputs": [
        {
          "internalType": "address",
          "name": "",
          "type": "address"
        }
      ],
      "stateMutability": "view",
      "type": "function"
    },
    {
      "inputs": [],
      "name": "renounceOwnership",
      "outputs": [],
      "stateMutability": "nonpayable",
      "type": "function"
    },
    {
      "inputs": [
        {
          "internalType": "address",
          "name": "newOwner",
          "type": "address"
        }
      ],
      "name": "transferOwnership",
      "outputs": [],
      "stateMutability": "nonpayable",
      "type": "function"
    },
    {
      "inputs": [
        {
          "internalType": "address",
          "name": "_token",
          "type": "address"
        },
        {
          "internalType": "address",
          "name": "_to",
          "type": "address"
        },
        {
          "internalType": "uint256",
          "name": "_amount",
          "type": "uint256"
        }
      ],
      "name": "withdrawToken",
      "outputs": [],
      "stateMutability": "nonpayable",
      "type": "function"
    },
    {
      "stateMutability": "payable",
      "type": "receive"
    }
  ],
  "bytecode": "0x60a060405234801561001057600080fd5b5060405161121d38038061121d83398101604081905261002f91610090565b61003833610040565b6080526100a9565b600080546001600160a01b038381166001600160a01b0319831681178455604051919092169283917f8be0079c531659141344cd1fd0a4f28419497f9722a3daafe3b4186f6b6457e09190a35050565b6000602082840312156100a257600080fd5b5051919050565b6080516111596100c4600039600061073101526111596000f3fe6080604052600436106100695760003560e01c80638da5cb5b116100435780638da5cb5b146100df578063df2b057e14610114578063f2fde38b1461012757600080fd5b806301e3366714610075578063715018a6146100975780637bfa20a9146100ac57600080fd5b3661007057005b600080fd5b34801561008157600080fd5b50610095610090366004610cf1565b610147565b005b3480156100a357600080fd5b5061009561015f565b3480156100b857600080fd5b506100cc6100c7366004610d2d565b610173565b6040519081526020015b60405180910390f35b3480156100eb57600080fd5b5060005460405173ffffffffffffffffffffffffffffffffffffffff90911681526020016100d6565b6100cc610122366004610d2d565b6102d5565b34801561013357600080fd5b50610095610142366004610ded565b6103b5565b61014f610471565b61015a8383836104f2565b505050565b610167610471565b6101716000610522565b565b600061017f8383610597565b5060006101a461019560a0880160808901610e08565b67ffffffffffffffff1661063b565b90506000806101b66020890189610ded565b73ffffffffffffffffffffffffffffffffffffffff166388a4124c6101e160408b0160208c01610e32565b856101ef60208c018c610e08565b6040517fffffffff0000000000000000000000000000000000000000000000000000000060e086901b16815263ffffffff939093166004840152602483019190915267ffffffffffffffff166044820152606401608060405180830381865afa158015610260573d6000803e3d6000fd5b505050506040513d601f19601f820116820180604052508101906102849190610e76565b9350505091506102c7828860200160208101906102a19190610ecb565b6102b160c08c0160a08d01610ecb565b6102c160608c0160408d01610eef565b856106a7565b93505050505b949350505050565b60006102e18383610597565b5060006102f761019560a0880160808901610e08565b90506000806103096020890189610ded565b73ffffffffffffffffffffffffffffffffffffffff1663c1723a1d61033460408b0160208c01610e32565b8561034260208c018c610e08565b6040517fffffffff0000000000000000000000000000000000000000000000000000000060e086901b16815263ffffffff939093166004840152602483019190915267ffffffffffffffff1660448201526064016080604051808303816000875af1158015610260573d6000803e3d6000fd5b6103bd610471565b73ffffffffffffffffffffffffffffffffffffffff8116610465576040517f08c379a000000000000000000000000000000000000000000000000000000000815260206004820152602660248201527f4f776e61626c653a206e6577206f776e657220697320746865207a65726f206160448201527f646472657373000000000000000000000000000000000000000000000000000060648201526084015b60405180910390fd5b61046e81610522565b50565b60005473ffffffffffffffffffffffffffffffffffffffff163314610171576040517f08c379a000000000000000000000000000000000000000000000000000000000815260206004820181905260248201527f4f776e61626c653a2063616c6c6572206973206e6f7420746865206f776e6572604482015260640161045c565b73ffffffffffffffffffffffffffffffffffffffff83166105175761015a82826107a1565b61015a8383836108a7565b6000805473ffffffffffffffffffffffffffffffffffffffff8381167fffffffffffffffffffffffff0000000000000000000000000000000000000000831681178455604051919092169283917f8be0079c531659141344cd1fd0a4f28419497f9722a3daafe3b4186f6b6457e09190a35050565b60008082156105f3576000806105ae868685610915565b6040517f3d6c5c7000000000000000000000000000000000000000000000000000000000815260ff85166004820152909650929450859350506024909101905061045c565b80831461062f576040517f9af41d330000000000000000000000000000000000000000000000000000000081526004810182905260240161045c565b60009150505b92915050565b600080610649604184610f3b565b9050610656602082610f81565b1561067e57610666602082610f81565b6106709082610f95565b61067b906020610fa8565b90505b8061068b60e06044610fa8565b6106959190610fa8565b6106a0906040610fa8565b9392505050565b60008061ffff8616156106ba57856106bc565b845b905060006127106106d161ffff84168a610f3b565b6106db9190610fbb565b90506fffffffffffffffffffffffffffffffff8416158061070c57506fffffffffffffffffffffffffffffffff8516155b1561071a5791506107989050565b6000846fffffffffffffffffffffffffffffffff167f0000000000000000000000000000000000000000000000000000000000000000876fffffffffffffffffffffffffffffffff1661076d9190610f3b565b6107779190610fbb565b610781908a610fa8565b90508181116107905781610792565b805b93505050505b95945050505050565b73ffffffffffffffffffffffffffffffffffffffff82166107ee576040517f32fa6a1d00000000000000000000000000000000000000000000000000000000815260040160405180910390fd5b60008273ffffffffffffffffffffffffffffffffffffffff168260405160006040518083038185875af1925050503d8060008114610848576040519150601f19603f3d011682016040523d82523d6000602084013e61084d565b606091505b505090508061015a576040517f2c024f9200000000000000000000000000000000000000000000000000000000815273ffffffffffffffffffffffffffffffffffffffff841660048201526024810183905260440161045c565b73ffffffffffffffffffffffffffffffffffffffff82166108f4576040517f32fa6a1d00000000000000000000000000000000000000000000000000000000815260040160405180910390fd5b61015a73ffffffffffffffffffffffffffffffffffffffff8416838361096f565b6000368160018401816109298888846109fc565b60028301929091506109419089908990600301610a23565b94506002820161ffff8216830161095a81838b8d610fcf565b979b909a50969850505061ffff160193505050565b6040805173ffffffffffffffffffffffffffffffffffffffff8416602482015260448082018490528251808303909101815260649091019091526020810180517bffffffffffffffffffffffffffffffffffffffffffffffffffffffff167fa9059cbb0000000000000000000000000000000000000000000000000000000017905261015a908490610a48565b600060028201610a0e81848688610fcf565b610a1791610ff9565b60f01c95945050505050565b6000838383818110610a3757610a37611041565b919091013560f81c95945050505050565b6000610aaa826040518060400160405280602081526020017f5361666545524332303a206c6f772d6c6576656c2063616c6c206661696c65648152508573ffffffffffffffffffffffffffffffffffffffff16610b579092919063ffffffff16565b9050805160001480610acb575080806020019051810190610acb9190611070565b61015a576040517f08c379a000000000000000000000000000000000000000000000000000000000815260206004820152602a60248201527f5361666545524332303a204552433230206f7065726174696f6e20646964206e60448201527f6f74207375636365656400000000000000000000000000000000000000000000606482015260840161045c565b60606102cd8484600085856000808673ffffffffffffffffffffffffffffffffffffffff168587604051610b8b91906110b6565b60006040518083038185875af1925050503d8060008114610bc8576040519150601f19603f3d011682016040523d82523d6000602084013e610bcd565b606091505b5091509150610bde87838387610be9565b979650505050505050565b60608315610c7f578251600003610c785773ffffffffffffffffffffffffffffffffffffffff85163b610c78576040517f08c379a000000000000000000000000000000000000000000000000000000000815260206004820152601d60248201527f416464726573733a2063616c6c20746f206e6f6e2d636f6e7472616374000000604482015260640161045c565b50816102cd565b6102cd8383815115610c945781518083602001fd5b806040517f08c379a000000000000000000000000000000000000000000000000000000000815260040161045c91906110d2565b803573ffffffffffffffffffffffffffffffffffffffff81168114610cec57600080fd5b919050565b600080600060608486031215610d0657600080fd5b610d0f84610cc8565b9250610d1d60208501610cc8565b9150604084013590509250925092565b600080600080848603610140811215610d4557600080fd5b60c0811215610d5357600080fd5b85945060607fffffffffffffffffffffffffffffffffffffffffffffffffffffffffffffff4082011215610d8657600080fd5b5060c08501925061012085013567ffffffffffffffff80821115610da957600080fd5b818701915087601f830112610dbd57600080fd5b813581811115610dcc57600080fd5b886020828501011115610dde57600080fd5b95989497505060200194505050565b600060208284031215610dff57600080fd5b6106a082610cc8565b600060208284031215610e1a57600080fd5b813567ffffffffffffffff811681146106a057600080fd5b600060208284031215610e4457600080fd5b813563ffffffff811681146106a057600080fd5b6fffffffffffffffffffffffffffffffff8116811461046e57600080fd5b60008060008060808587031215610e8c57600080fd5b845193506020850151610e9e81610e58565b6040860151909350610eaf81610e58565b6060860151909250610ec081610e58565b939692955090935050565b600060208284031215610edd57600080fd5b813561ffff811681146106a057600080fd5b600060208284031215610f0157600080fd5b81356106a081610e58565b7f4e487b7100000000000000000000000000000000000000000000000000000000600052601160045260246000fd5b808202811582820484141761063557610635610f0c565b7f4e487b7100000000000000000000000000000000000000000000000000000000600052601260045260246000fd5b600082610f9057610f90610f52565b500690565b8181038181111561063557610635610f0c565b8082018082111561063557610635610f0c565b600082610fca57610fca610f52565b500490565b60008085851115610fdf57600080fd5b83861115610fec57600080fd5b5050820193919092039150565b7fffff00000000000000000000000000000000000000000000000000000000000081358181169160028510156110395780818660020360031b1b83161692505b505092915050565b7f4e487b7100000000000000000000000000000000000000000000000000000000600052603260045260246000fd5b60006020828403121561108257600080fd5b815180151581146106a057600080fd5b60005b838110156110ad578181015183820152602001611095565b50506000910152565b600082516110c8818460208701611092565b9190910192915050565b60208152600082518060208401526110f1816040850160208701611092565b601f017fffffffffffffffffffffffffffffffffffffffffffffffffffffffffffffffe016919091016040019291505056fea2646970667358221220405b163eedb7d96cfa717e8bea403d52d4844783d645ebdcee51d3053e27223464736f6c63430008160033",
  "linkReferences": {},
  "deployedLinkReferences": {}
}