{
  "_format": "hh-sol-artifact-1",
  "contractName": "AxelarDVNAdapterFeeLib",
  "sourceName": "contracts/uln/dvn/adapters/axelar/AxelarDVNAdapterFeeLib.sol",
  "abi": [
    {
      "inputs": [
        {
          "internalType": "uint32",
          "name": "",
          "type": "uint32"
        },
        {
          "internalType": "address",
          "name": "",
          "type": "address"
        },
        {
          "internalType": "uint16",
          "name": "_defaultMultiplierBps",
          "type": "uint16"
        },
        {
          "internalType": "uint16",
          "name": "_multiplierBps",
          "type": "uint16"
        },
        {
          "internalType": "uint256",
          "name": "_executionFee",
          "type": "uint256"
        }
      ],
      "name": "getFee",
      "outputs": [
        {
          "internalType": "uint256",
          "name": "fee",
          "type": "uint256"
        }
      ],
      "stateMutability": "pure",
      "type": "function"
    }
  ],
  "bytecode": "0x608060405234801561001057600080fd5b506101e0806100206000396000f3fe608060405234801561001057600080fd5b506004361061002b5760003560e01c8063212cf54f14610030575b600080fd5b61004361003e3660046100a9565b610055565b60405190815260200160405180910390f35b60008061ffff841615610068578361006a565b845b61ffff16905061271061007d828561012b565b610087919061016f565b979650505050505050565b803561ffff811681146100a457600080fd5b919050565b600080600080600060a086880312156100c157600080fd5b853563ffffffff811681146100d557600080fd5b9450602086013573ffffffffffffffffffffffffffffffffffffffff811681146100fe57600080fd5b935061010c60408701610092565b925061011a60608701610092565b949793965091946080013592915050565b8082028115828204841417610169577f4e487b7100000000000000000000000000000000000000000000000000000000600052601160045260246000fd5b92915050565b6000826101a5577f4e487b7100000000000000000000000000000000000000000000000000000000600052601260045260246000fd5b50049056fea2646970667358221220a3150cdadfa5a1afb4bcc902fa9bfc1aec2e57b7c38a92bb847c7d1a4c14053b64736f6c63430008160033",
  "linkReferences": {},
  "deployedLinkReferences": {}
}