{
  "_format": "hh-sol-artifact-1",
  "contractName": "AxelarDVNAdapter",
  "sourceName": "contracts/uln/dvn/adapters/axelar/AxelarDVNAdapter.sol",
  "abi": [
    {
      "inputs": [
        {
          "internalType": "address",
          "name": "_sendLib",
          "type": "address"
        },
        {
          "internalType": "address",
          "name": "_receiveLib",
          "type": "address"
        },
        {
          "internalType": "address[]",
          "name": "_admins",
          "type": "address[]"
        },
        {
          "internalType": "address",
          "name": "_gateway",
          "type": "address"
        },
        {
          "internalType": "address",
          "name": "_gasReceiver",
          "type": "address"
        }
      ],
      "stateMutability": "nonpayable",
      "type": "constructor"
    },
    {
      "inputs": [],
      "name": "InvalidAddress",
      "type": "error"
    },
    {
      "inputs": [],
      "name": "InvalidPayloadSize",
      "type": "error"
    },
    {
      "inputs": [],
      "name": "NotApprovedByGateway",
      "type": "error"
    },
    {
      "inputs": [],
      "name": "OnlySendLib",
      "type": "error"
    },
    {
      "inputs": [],
      "name": "ToAddressIsZero",
      "type": "error"
    },
    {
      "inputs": [
        {
          "internalType": "address",
          "name": "_to",
          "type": "address"
        },
        {
          "internalType": "uint256",
          "name": "_value",
          "type": "uint256"
        }
      ],
      "name": "TransferNativeFailed",
      "type": "error"
    },
    {
      "inputs": [],
      "name": "Unauthorized",
      "type": "error"
    },
    {
      "inputs": [],
      "name": "VersionMismatch",
      "type": "error"
    },
    {
      "anonymous": false,
      "inputs": [
        {
          "indexed": true,
          "internalType": "address",
          "name": "admin",
          "type": "address"
        },
        {
          "indexed": false,
          "internalType": "bool",
          "name": "isAdmin",
          "type": "bool"
        }
      ],
      "name": "AdminSet",
      "type": "event"
    },
    {
      "anonymous": false,
      "inputs": [
        {
          "indexed": false,
          "internalType": "uint16",
          "name": "multiplierBps",
          "type": "uint16"
        }
      ],
      "name": "DefaultMultiplierSet",
      "type": "event"
    },
    {
      "anonymous": false,
      "inputs": [
        {
          "components": [
            {
              "internalType": "uint32",
              "name": "dstEid",
              "type": "uint32"
            },
            {
              "internalType": "uint16",
              "name": "multiplierBps",
              "type": "uint16"
            },
            {
              "internalType": "uint256",
              "name": "nativeGasFee",
              "type": "uint256"
            },
            {
              "internalType": "string",
              "name": "peer",
              "type": "string"
            },
            {
              "internalType": "string",
              "name": "chainName",
              "type": "string"
            }
          ],
          "indexed": false,
          "internalType": "struct AxelarDVNAdapter.DstConfigParam[]",
          "name": "params",
          "type": "tuple[]"
        }
      ],
      "name": "DstConfigSet",
      "type": "event"
    },
    {
      "anonymous": false,
      "inputs": [
        {
          "components": [
            {
              "internalType": "uint32",
              "name": "dstEid",
              "type": "uint32"
            },
            {
              "internalType": "uint256",
              "name": "nativeGasFee",
              "type": "uint256"
            }
          ],
          "indexed": false,
          "internalType": "struct AxelarDVNAdapter.DstFeeParam[]",
          "name": "params",
          "type": "tuple[]"
        }
      ],
      "name": "DstFeeSet",
      "type": "event"
    },
    {
      "anonymous": false,
      "inputs": [
        {
          "components": [
            {
              "internalType": "uint32",
              "name": "dstEid",
              "type": "uint32"
            },
            {
              "internalType": "uint16",
              "name": "multiplierBps",
              "type": "uint16"
            }
          ],
          "indexed": false,
          "internalType": "struct DVNAdapterBase.DstMultiplierParam[]",
          "name": "params",
          "type": "tuple[]"
        }
      ],
      "name": "DstMultiplierSet",
      "type": "event"
    },
    {
      "anonymous": false,
      "inputs": [
        {
          "indexed": true,
          "internalType": "address",
          "name": "feeLib",
          "type": "address"
        }
      ],
      "name": "FeeLibSet",
      "type": "event"
    },
    {
      "anonymous": false,
      "inputs": [
        {
          "indexed": true,
          "internalType": "address",
          "name": "to",
          "type": "address"
        },
        {
          "indexed": false,
          "internalType": "uint256",
          "name": "amount",
          "type": "uint256"
        }
      ],
      "name": "FeeWithdrawn",
      "type": "event"
    },
    {
      "anonymous": false,
      "inputs": [
        {
          "indexed": true,
          "internalType": "address",
          "name": "previousOwner",
          "type": "address"
        },
        {
          "indexed": true,
          "internalType": "address",
          "name": "newOwner",
          "type": "address"
        }
      ],
      "name": "OwnershipTransferred",
      "type": "event"
    },
    {
      "anonymous": false,
      "inputs": [
        {
          "indexed": true,
          "internalType": "address",
          "name": "to",
          "type": "address"
        },
        {
          "indexed": false,
          "internalType": "address",
          "name": "token",
          "type": "address"
        },
        {
          "indexed": false,
          "internalType": "uint256",
          "name": "amount",
          "type": "uint256"
        }
      ],
      "name": "TokenWithdrawn",
      "type": "event"
    },
    {
      "inputs": [
        {
          "internalType": "address",
          "name": "admin",
          "type": "address"
        }
      ],
      "name": "admins",
      "outputs": [
        {
          "internalType": "bool",
          "name": "",
          "type": "bool"
        }
      ],
      "stateMutability": "view",
      "type": "function"
    },
    {
      "inputs": [
        {
          "components": [
            {
              "internalType": "uint32",
              "name": "dstEid",
              "type": "uint32"
            },
            {
              "internalType": "bytes",
              "name": "packetHeader",
              "type": "bytes"
            },
            {
              "internalType": "bytes32",
              "name": "payloadHash",
              "type": "bytes32"
            },
            {
              "internalType": "uint64",
              "name": "confirmations",
              "type": "uint64"
            },
            {
              "internalType": "address",
              "name": "sender",
              "type": "address"
            }
          ],
          "internalType": "struct ILayerZeroDVN.AssignJobParam",
          "name": "_param",
          "type": "tuple"
        },
        {
          "internalType": "bytes",
          "name": "",
          "type": "bytes"
        }
      ],
      "name": "assignJob",
      "outputs": [
        {
          "internalType": "uint256",
          "name": "fee",
          "type": "uint256"
        }
      ],
      "stateMutability": "payable",
      "type": "function"
    },
    {
      "inputs": [
        {
          "internalType": "string",
          "name": "axelarChain",
          "type": "string"
        }
      ],
      "name": "axelarChainToEid",
      "outputs": [
        {
          "internalType": "uint32",
          "name": "eid",
          "type": "uint32"
        }
      ],
      "stateMutability": "view",
      "type": "function"
    },
    {
      "inputs": [],
      "name": "defaultMultiplierBps",
      "outputs": [
        {
          "internalType": "uint16",
          "name": "",
          "type": "uint16"
        }
      ],
      "stateMutability": "view",
      "type": "function"
    },
    {
      "inputs": [
        {
          "internalType": "uint32",
          "name": "dstEid",
          "type": "uint32"
        }
      ],
      "name": "dstConfig",
      "outputs": [
        {
          "internalType": "uint256",
          "name": "nativeGasFee",
          "type": "uint256"
        },
        {
          "internalType": "uint16",
          "name": "multiplierBps",
          "type": "uint16"
        },
        {
          "internalType": "string",
          "name": "peer",
          "type": "string"
        },
        {
          "internalType": "string",
          "name": "chainName",
          "type": "string"
        }
      ],
      "stateMutability": "view",
      "type": "function"
    },
    {
      "inputs": [
        {
          "internalType": "bytes32",
          "name": "commandId",
          "type": "bytes32"
        },
        {
          "internalType": "string",
          "name": "sourceChain",
          "type": "string"
        },
        {
          "internalType": "string",
          "name": "sourceAddress",
          "type": "string"
        },
        {
          "internalType": "bytes",
          "name": "payload",
          "type": "bytes"
        }
      ],
      "name": "execute",
      "outputs": [],
      "stateMutability": "nonpayable",
      "type": "function"
    },
    {
      "inputs": [
        {
          "internalType": "bytes32",
          "name": "commandId",
          "type": "bytes32"
        },
        {
          "internalType": "string",
          "name": "sourceChain",
          "type": "string"
        },
        {
          "internalType": "string",
          "name": "sourceAddress",
          "type": "string"
        },
        {
          "internalType": "bytes",
          "name": "payload",
          "type": "bytes"
        },
        {
          "internalType": "string",
          "name": "tokenSymbol",
          "type": "string"
        },
        {
          "internalType": "uint256",
          "name": "amount",
          "type": "uint256"
        }
      ],
      "name": "executeWithToken",
      "outputs": [],
      "stateMutability": "nonpayable",
      "type": "function"
    },
    {
      "inputs": [],
      "name": "feeLib",
      "outputs": [
        {
          "internalType": "contract IDVNAdapterFeeLib",
          "name": "",
          "type": "address"
        }
      ],
      "stateMutability": "view",
      "type": "function"
    },
    {
      "inputs": [],
      "name": "gasService",
      "outputs": [
        {
          "internalType": "contract IAxelarGasService",
          "name": "",
          "type": "address"
        }
      ],
      "stateMutability": "view",
      "type": "function"
    },
    {
      "inputs": [],
      "name": "gateway",
      "outputs": [
        {
          "internalType": "contract IAxelarGateway",
          "name": "",
          "type": "address"
        }
      ],
      "stateMutability": "view",
      "type": "function"
    },
    {
      "inputs": [
        {
          "internalType": "uint32",
          "name": "_dstEid",
          "type": "uint32"
        },
        {
          "internalType": "uint64",
          "name": "",
          "type": "uint64"
        },
        {
          "internalType": "address",
          "name": "_sender",
          "type": "address"
        },
        {
          "internalType": "bytes",
          "name": "",
          "type": "bytes"
        }
      ],
      "name": "getFee",
      "outputs": [
        {
          "internalType": "uint256",
          "name": "fee",
          "type": "uint256"
        }
      ],
      "stateMutability": "view",
      "type": "function"
    },
    {
      "inputs": [],
      "name": "owner",
      "outputs": [
        {
          "internalType": "address",
          "name": "",
          "type": "address"
        }
      ],
      "stateMutability": "view",
      "type": "function"
    },
    {
      "inputs": [],
      "name": "receiveLib",
      "outputs": [
        {
          "internalType": "contract IReceiveUlnE2",
          "name": "",
          "type": "address"
        }
      ],
      "stateMutability": "view",
      "type": "function"
    },
    {
      "inputs": [],
      "name": "renounceOwnership",
      "outputs": [],
      "stateMutability": "nonpayable",
      "type": "function"
    },
    {
      "inputs": [],
      "name": "sendLib",
      "outputs": [
        {
          "internalType": "contract ISendLib",
          "name": "",
          "type": "address"
        }
      ],
      "stateMutability": "view",
      "type": "function"
    },
    {
      "inputs": [
        {
          "internalType": "address",
          "name": "_admin",
          "type": "address"
        },
        {
          "internalType": "bool",
          "name": "_isAdmin",
          "type": "bool"
        }
      ],
      "name": "setAdmin",
      "outputs": [],
      "stateMutability": "nonpayable",
      "type": "function"
    },
    {
      "inputs": [
        {
          "internalType": "uint16",
          "name": "_defaultMultiplierBps",
          "type": "uint16"
        }
      ],
      "name": "setDefaultMultiplier",
      "outputs": [],
      "stateMutability": "nonpayable",
      "type": "function"
    },
    {
      "inputs": [
        {
          "components": [
            {
              "internalType": "uint32",
              "name": "dstEid",
              "type": "uint32"
            },
            {
              "internalType": "uint16",
              "name": "multiplierBps",
              "type": "uint16"
            },
            {
              "internalType": "uint256",
              "name": "nativeGasFee",
              "type": "uint256"
            },
            {
              "internalType": "string",
              "name": "peer",
              "type": "string"
            },
            {
              "internalType": "string",
              "name": "chainName",
              "type": "string"
            }
          ],
          "internalType": "struct AxelarDVNAdapter.DstConfigParam[]",
          "name": "_params",
          "type": "tuple[]"
        }
      ],
      "name": "setDstConfig",
      "outputs": [],
      "stateMutability": "nonpayable",
      "type": "function"
    },
    {
      "inputs": [
        {
          "components": [
            {
              "internalType": "uint32",
              "name": "dstEid",
              "type": "uint32"
            },
            {
              "internalType": "uint16",
              "name": "multiplierBps",
              "type": "uint16"
            }
          ],
          "internalType": "struct DVNAdapterBase.DstMultiplierParam[]",
          "name": "_params",
          "type": "tuple[]"
        }
      ],
      "name": "setDstMultiplier",
      "outputs": [],
      "stateMutability": "nonpayable",
      "type": "function"
    },
    {
      "inputs": [
        {
          "components": [
            {
              "internalType": "uint32",
              "name": "dstEid",
              "type": "uint32"
            },
            {
              "internalType": "uint256",
              "name": "nativeGasFee",
              "type": "uint256"
            }
          ],
          "internalType": "struct AxelarDVNAdapter.DstFeeParam[]",
          "name": "_params",
          "type": "tuple[]"
        }
      ],
      "name": "setDstNativeGasFee",
      "outputs": [],
      "stateMutability": "nonpayable",
      "type": "function"
    },
    {
      "inputs": [
        {
          "internalType": "address",
          "name": "_feeLib",
          "type": "address"
        }
      ],
      "name": "setFeeLib",
      "outputs": [],
      "stateMutability": "nonpayable",
      "type": "function"
    },
    {
      "inputs": [
        {
          "internalType": "address",
          "name": "newOwner",
          "type": "address"
        }
      ],
      "name": "transferOwnership",
      "outputs": [],
      "stateMutability": "nonpayable",
      "type": "function"
    },
    {
      "inputs": [
        {
          "internalType": "address",
          "name": "_to",
          "type": "address"
        },
        {
          "internalType": "uint256",
          "name": "_amount",
          "type": "uint256"
        }
      ],
      "name": "withdrawFee",
      "outputs": [],
      "stateMutability": "nonpayable",
      "type": "function"
    },
    {
      "inputs": [
        {
          "internalType": "address",
          "name": "_token",
          "type": "address"
        },
        {
          "internalType": "address",
          "name": "_to",
          "type": "address"
        },
        {
          "internalType": "uint256",
          "name": "_amount",
          "type": "uint256"
        }
      ],
      "name": "withdrawToken",
      "outputs": [],
      "stateMutability": "nonpayable",
      "type": "function"
    },
    {
      "stateMutability": "payable",
      "type": "receive"
    }
  ],
  "bytecode": "0x6101006040526001805461ffff60a01b191661027160a41b1790553480156200002757600080fd5b506040516200381f3803806200381f8339810160408190526200004a9162000352565b848484846001600160a01b038116620000765760405163e6c4247b60e01b815260040160405180910390fd5b6001600160a01b03166080526200008d33620002cf565b6000806000856001600160a01b03166354fd4d506040518163ffffffff1660e01b8152600401606060405180830381865afa158015620000d1573d6000803e3d6000fd5b505050506040513d601f19601f82011682018060405250810190620000f7919062000484565b9250925092506000806000876001600160a01b03166354fd4d506040518163ffffffff1660e01b8152600401606060405180830381865afa15801562000141573d6000803e3d6000fd5b505050506040513d601f19601f8201168201806040525081019062000167919062000484565b925092509250826001600160401b0316866001600160401b03161415806200019557508160ff168560ff1614155b80620001a757508060ff168460ff1614155b15620001c65760405163714f551360e01b815260040160405180910390fd5b6001600160a01b03808a1660a052881660c05260005b8751811015620002ac576001600260008a8481518110620002015762000201620004db565b60200260200101516001600160a01b03166001600160a01b0316815260200190815260200160002060006101000a81548160ff021916908315150217905550878181518110620002555762000255620004db565b60200260200101516001600160a01b03167fe68d2c359a771606c400cf8b87000cf5864010363d6a736e98f5047b7bbe18e960016040516200029b911515815260200190565b60405180910390a2600101620001dc565b5050506001600160a01b0390971660e05250620004f19950505050505050505050565b600080546001600160a01b038381166001600160a01b0319831681178455604051919092169283917f8be0079c531659141344cd1fd0a4f28419497f9722a3daafe3b4186f6b6457e09190a35050565b80516001600160a01b03811681146200033757600080fd5b919050565b634e487b7160e01b600052604160045260246000fd5b600080600080600060a086880312156200036b57600080fd5b62000376866200031f565b94506020620003878188016200031f565b60408801519095506001600160401b0380821115620003a557600080fd5b818901915089601f830112620003ba57600080fd5b815181811115620003cf57620003cf6200033c565b8060051b604051601f19603f83011681018181108582111715620003f757620003f76200033c565b60405291825284820192508381018501918c8311156200041657600080fd5b938501935b828510156200043f576200042f856200031f565b845293850193928501926200041b565b80985050505050505062000456606087016200031f565b915062000466608087016200031f565b90509295509295909350565b805160ff811681146200033757600080fd5b6000806000606084860312156200049a57600080fd5b83516001600160401b0381168114620004b257600080fd5b9250620004c26020850162000472565b9150620004d26040850162000472565b90509250925092565b634e487b7160e01b600052603260045260246000fd5b60805160a05160c05160e0516132c36200055c600039600081816103f3015261125c01526000818161052b0152611d610152600081816104ca0152818161101301526119d901526000818161021901528181610a7101528181610d65015261130701526132c36000f3fe60806040526004361061018e5760003560e01c80636a22d8cc116100d6578063a0706d901161007f578063ed94602411610059578063ed9460241461054d578063f2fde38b1461056d578063fd9be5221461058d57600080fd5b8063a0706d90146104b8578063bb37d00c146104ec578063bd3ed5ff1461051957600080fd5b80638da5cb5b116100b05780638da5cb5b1461044a57806395d376d7146104755780639e9449651461048857600080fd5b80636a22d8cc146103e1578063715018a61461041557806381d981af1461042a57600080fd5b806320ac2ece11610138578063429b62e511610112578063429b62e51461036157806349160658146103a15780634b0bddd2146103c157600080fd5b806320ac2ece146102c05780632eb17a9a146102e057806330bb3aac1461033357600080fd5b806311ab10991161016957806311ab1099146102605780631a058efe146102805780631a98b2e0146102a057600080fd5b8062bf2e801461019a57806301e33667146101e5578063116191b61461020757600080fd5b3661019557005b600080fd5b3480156101a657600080fd5b506001546101cd9074010000000000000000000000000000000000000000900461ffff1681565b60405161ffff90911681526020015b60405180910390f35b3480156101f157600080fd5b5061020561020036600461241f565b6105ad565b005b34801561021357600080fd5b5061023b7f000000000000000000000000000000000000000000000000000000000000000081565b60405173ffffffffffffffffffffffffffffffffffffffff90911681526020016101dc565b34801561026c57600080fd5b5061020561027b3660046124a7565b610659565b34801561028c57600080fd5b5061020561029b3660046124e9565b61073f565b3480156102ac57600080fd5b506102056102bb3660046125a0565b610a1a565b3480156102cc57600080fd5b506102056102db36600461267a565b610b3c565b3480156102ec57600080fd5b5061031e6102fb3660046126cb565b805160208183018101805160048252928201919093012091525463ffffffff1681565b60405163ffffffff90911681526020016101dc565b34801561033f57600080fd5b5061035361034e3660046127ae565b610bf4565b6040519081526020016101dc565b34801561036d57600080fd5b5061039161037c36600461267a565b60026020526000908152604090205460ff1681565b60405190151581526020016101dc565b3480156103ad57600080fd5b506102056103bc366004612830565b610d0e565b3480156103cd57600080fd5b506102056103dc3660046128e2565b610e35565b3480156103ed57600080fd5b5061023b7f000000000000000000000000000000000000000000000000000000000000000081565b34801561042157600080fd5b50610205610ec8565b34801561043657600080fd5b506102056104453660046124a7565b610edc565b34801561045657600080fd5b5060005473ffffffffffffffffffffffffffffffffffffffff1661023b565b610353610483366004612919565b610ff9565b34801561049457600080fd5b506104a86104a336600461298a565b6114b0565b6040516101dc9493929190612a13565b3480156104c457600080fd5b5061023b7f000000000000000000000000000000000000000000000000000000000000000081565b3480156104f857600080fd5b5060015461023b9073ffffffffffffffffffffffffffffffffffffffff1681565b34801561052557600080fd5b5061023b7f000000000000000000000000000000000000000000000000000000000000000081565b34801561055957600080fd5b50610205610568366004612a5a565b6115ee565b34801561057957600080fd5b5061020561058836600461267a565b6116b8565b34801561059957600080fd5b506102056105a8366004612a75565b611774565b3360009081526002602052604090205460ff166105f6576040517f82b4290000000000000000000000000000000000000000000000000000000000815260040160405180910390fd5b6106018383836117cb565b6040805173ffffffffffffffffffffffffffffffffffffffff8581168252602082018490528416917f8210728e7c071f615b840ee026032693858fbcd5e5359e67e438c890f59e5620910160405180910390a2505050565b3360009081526002602052604090205460ff166106a2576040517f82b4290000000000000000000000000000000000000000000000000000000000815260040160405180910390fd5b60005b8181101561070157368383838181106106c0576106c0612a9f565b60400291909101915050602081018035906003906000906106e1908561298a565b63ffffffff168152602081019190915260400160002055506001016106a5565b507fb57a660331a8e55de5763e1af768e8d5a46feeabc201394c94ac4cde36319f1a8282604051610733929190612ace565b60405180910390a15050565b3360009081526002602052604090205460ff16610788576040517f82b4290000000000000000000000000000000000000000000000000000000000815260040160405180910390fd5b60005b818110156109e857368383838181106107a6576107a6612a9f565b90506020028101906107b89190612b22565b90506004600360006107cd602085018561298a565b63ffffffff1663ffffffff1681526020019081526020016000206003016040516107f79190612bb3565b9081526040516020918190038201902080547fffffffffffffffffffffffffffffffffffffffffffffffffffffffff000000001690556108399082018261298a565b60046108486080840184612c47565b604051610856929190612cac565b908152604080516020928190038301812080547fffffffffffffffffffffffffffffffffffffffffffffffffffffffff000000001663ffffffff9590951694909417909355608083018152830180358352818301916108b791908501612a5a565b61ffff1681526020016108cd6060840184612c47565b8080601f0160208091040260200160405190810160405280939291908181526020018383808284376000920191909152505050908252506020016109146080840184612c47565b8080601f016020809104026020016040519081016040528093929190818152602001838380828437600092018290525093909452506003925061095c9050602085018561298a565b63ffffffff168152602080820192909252604090810160002083518155918301516001830180547fffffffffffffffffffffffffffffffffffffffffffffffffffffffffffff00001661ffff90921691909117905582015160028201906109c39082612d04565b50606082015160038201906109d89082612d04565b50506001909201915061078b9050565b507f950ccced17e999da9a8f2583cd16235977dbb7ee83fd38b2967cb8585fa6d1928282604051610733929190612ecb565b60008585604051610a2c929190612cac565b6040519081900381207f1876eed9000000000000000000000000000000000000000000000000000000008252915073ffffffffffffffffffffffffffffffffffffffff7f00000000000000000000000000000000000000000000000000000000000000001690631876eed990610ab6908e908e908e908e908e9089908d908d908d90600401612fe7565b6020604051808303816000875af1158015610ad5573d6000803e3d6000fd5b505050506040513d601f19601f82011682018060405250810190610af99190613046565b610b2f576040517f500c44b400000000000000000000000000000000000000000000000000000000815260040160405180910390fd5b5050505050505050505050565b3360009081526002602052604090205460ff16610b85576040517f82b4290000000000000000000000000000000000000000000000000000000000815260040160405180910390fd5b600180547fffffffffffffffffffffffff00000000000000000000000000000000000000001673ffffffffffffffffffffffffffffffffffffffff83169081179091556040517f47f3fc2afa14fc8d55a57ed53e2a26b8e63d5f95adb4869b2da2bffdd38c63d290600090a250565b63ffffffff85166000908152600360205260409020805460015490919073ffffffffffffffffffffffffffffffffffffffff1615610d045760018054908201546040517f212cf54f00000000000000000000000000000000000000000000000000000000815263ffffffff8a16600482015273ffffffffffffffffffffffffffffffffffffffff888116602483015261ffff7401000000000000000000000000000000000000000085048116604484015290921660648201526084810185905291169063212cf54f9060a401602060405180830381865afa158015610cdd573d6000803e3d6000fd5b505050506040513d601f19601f82011682018060405250810190610d019190613063565b91505b5095945050505050565b60008282604051610d20929190612cac565b6040519081900381207f5f6970c3000000000000000000000000000000000000000000000000000000008252915073ffffffffffffffffffffffffffffffffffffffff7f00000000000000000000000000000000000000000000000000000000000000001690635f6970c390610da4908b908b908b908b908b90899060040161307c565b6020604051808303816000875af1158015610dc3573d6000803e3d6000fd5b505050506040513d601f19601f82011682018060405250810190610de79190613046565b610e1d576040517f500c44b400000000000000000000000000000000000000000000000000000000815260040160405180910390fd5b610e2b878787878787611800565b5050505050505050565b610e3d611853565b73ffffffffffffffffffffffffffffffffffffffff821660008181526002602090815260409182902080547fffffffffffffffffffffffffffffffffffffffffffffffffffffffffffffff001685151590811790915591519182527fe68d2c359a771606c400cf8b87000cf5864010363d6a736e98f5047b7bbe18e991015b60405180910390a25050565b610ed0611853565b610eda60006118d4565b565b3360009081526002602052604090205460ff16610f25576040517f82b4290000000000000000000000000000000000000000000000000000000000815260040160405180910390fd5b60005b81811015610fc75736838383818110610f4357610f43612a9f565b9050604002019050806020016020810190610f5e9190612a5a565b60036000610f6f602085018561298a565b63ffffffff1681526020810191909152604001600020600190810180547fffffffffffffffffffffffffffffffffffffffffffffffffffffffffffff00001661ffff9390931692909217909155919091019050610f28565b507f69abe4111cf43d39e68d4c540ca52a855f900939e08d7f27a07a068ea5c0605582826040516107339291906130bd565b60003373ffffffffffffffffffffffffffffffffffffffff7f0000000000000000000000000000000000000000000000000000000000000000161461106a576040517f3885d60300000000000000000000000000000000000000000000000000000000815260040160405180910390fd5b600060038161107c602088018861298a565b63ffffffff1663ffffffff16815260200190815260200160002090508060000154915060008160030180546110b090612b60565b80601f01602080910402602001604051908101604052809291908181526020018280546110dc90612b60565b80156111295780601f106110fe57610100808354040283529160200191611129565b820191906000526020600020905b81548152906001019060200180831161110c57829003601f168201915b50505050509050600082600201805461114190612b60565b80601f016020809104026020016040519081016040528092919081815260200182805461116d90612b60565b80156111ba5780601f1061118f576101008083540402835291602001916111ba565b820191906000526020600020905b81548152906001019060200180831161119d57829003601f168201915b5050505050905060006112148880602001906111d69190612c47565b8080601f01602080910402602001604051908101604052809392919081815260200183838082843760009201919091525050505060408a0135611949565b905061121f85611976565b6040517f0c93e3bb00000000000000000000000000000000000000000000000000000000815273ffffffffffffffffffffffffffffffffffffffff7f00000000000000000000000000000000000000000000000000000000000000001690630c93e3bb90879061129b903090889088908890849060040161310f565b6000604051808303818588803b1580156112b457600080fd5b505af11580156112c8573d6000803e3d6000fd5b50506040517f1c92115f00000000000000000000000000000000000000000000000000000000815273ffffffffffffffffffffffffffffffffffffffff7f0000000000000000000000000000000000000000000000000000000000000000169350631c92115f9250611343915086908690869060040161317b565b600060405180830381600087803b15801561135d57600080fd5b505af1158015611371573d6000803e3d6000fd5b505060015473ffffffffffffffffffffffffffffffffffffffff161591506114a590505760015473ffffffffffffffffffffffffffffffffffffffff1663212cf54f6113c060208b018b61298a565b6113d060a08c0160808d0161267a565b600180549089015460405160e086901b7fffffffff0000000000000000000000000000000000000000000000000000000016815263ffffffff909416600485015273ffffffffffffffffffffffffffffffffffffffff909216602484015274010000000000000000000000000000000000000000900461ffff90811660448401521660648201526084810188905260a401602060405180830381865afa15801561147e573d6000803e3d6000fd5b505050506040513d601f19601f820116820180604052508101906114a29190613063565b94505b505050509392505050565b600360205260009081526040902080546001820154600283018054929361ffff909216926114dd90612b60565b80601f016020809104026020016040519081016040528092919081815260200182805461150990612b60565b80156115565780601f1061152b57610100808354040283529160200191611556565b820191906000526020600020905b81548152906001019060200180831161153957829003601f168201915b50505050509080600301805461156b90612b60565b80601f016020809104026020016040519081016040528092919081815260200182805461159790612b60565b80156115e45780601f106115b9576101008083540402835291602001916115e4565b820191906000526020600020905b8154815290600101906020018083116115c757829003601f168201915b5050505050905084565b3360009081526002602052604090205460ff16611637576040517f82b4290000000000000000000000000000000000000000000000000000000000815260040160405180910390fd5b600180547fffffffffffffffffffff0000ffffffffffffffffffffffffffffffffffffffff167401000000000000000000000000000000000000000061ffff8416908102919091179091556040519081527f5cd03093b446ef387fae919d09687fb7200930dc43240f391a08f7f3a8243e619060200160405180910390a150565b6116c0611853565b73ffffffffffffffffffffffffffffffffffffffff8116611768576040517f08c379a000000000000000000000000000000000000000000000000000000000815260206004820152602660248201527f4f776e61626c653a206e6577206f776e657220697320746865207a65726f206160448201527f646472657373000000000000000000000000000000000000000000000000000060648201526084015b60405180910390fd5b611771816118d4565b50565b3360009081526002602052604090205460ff166117bd576040517f82b4290000000000000000000000000000000000000000000000000000000000815260040160405180910390fd5b6117c7828261198d565b5050565b73ffffffffffffffffffffffffffffffffffffffff83166117f5576117f08282611a7d565b505050565b6117f0838383611b83565b61180c86868686611bf1565b61184b82828080601f016020809104026020016040519081016040528093929190818152602001838380828437600092019190915250611d1392505050565b505050505050565b60005473ffffffffffffffffffffffffffffffffffffffff163314610eda576040517f08c379a000000000000000000000000000000000000000000000000000000000815260206004820181905260248201527f4f776e61626c653a2063616c6c6572206973206e6f7420746865206f776e6572604482015260640161175f565b6000805473ffffffffffffffffffffffffffffffffffffffff8381167fffffffffffffffffffffffff0000000000000000000000000000000000000000831681178455604051919092169283917f8be0079c531659141344cd1fd0a4f28419497f9722a3daafe3b4186f6b6457e09190a35050565b6060828260405160200161195e9291906131be565b60405160208183030381529060405290505b92915050565b47818110156117c7576117c73061198d838561320f565b6040517ffd9be52200000000000000000000000000000000000000000000000000000000815273ffffffffffffffffffffffffffffffffffffffff8381166004830152602482018390527f0000000000000000000000000000000000000000000000000000000000000000169063fd9be52290604401600060405180830381600087803b158015611a1d57600080fd5b505af1158015611a31573d6000803e3d6000fd5b505050508173ffffffffffffffffffffffffffffffffffffffff167f78473f3f373f7673597f4f0fa5873cb4d375fea6d4339ad6b56dbd411513cb3f82604051610ebc91815260200190565b73ffffffffffffffffffffffffffffffffffffffff8216611aca576040517f32fa6a1d00000000000000000000000000000000000000000000000000000000815260040160405180910390fd5b60008273ffffffffffffffffffffffffffffffffffffffff168260405160006040518083038185875af1925050503d8060008114611b24576040519150601f19603f3d011682016040523d82523d6000602084013e611b29565b606091505b50509050806117f0576040517f2c024f9200000000000000000000000000000000000000000000000000000000815273ffffffffffffffffffffffffffffffffffffffff841660048201526024810183905260440161175f565b73ffffffffffffffffffffffffffffffffffffffff8216611bd0576040517f32fa6a1d00000000000000000000000000000000000000000000000000000000815260040160405180910390fd5b6117f073ffffffffffffffffffffffffffffffffffffffff84168383611dd9565b600060048585604051611c05929190612cac565b90815260408051602092819003830190205463ffffffff1660008181526003909352908220600201805491935090611c3c90612b60565b80601f0160208091040260200160405190810160405280929190818152602001828054611c6890612b60565b8015611cb55780601f10611c8a57610100808354040283529160200191611cb5565b820191906000526020600020905b815481529060010190602001808311611c9857829003601f168201915b5050505050905080805190602001208484604051611cd4929190612cac565b60405180910390201461184b576040517f82b4290000000000000000000000000000000000000000000000000000000000815260040160405180910390fd5b600080611d1f83611e66565b6040517f0223536e000000000000000000000000000000000000000000000000000000008152919350915073ffffffffffffffffffffffffffffffffffffffff7f00000000000000000000000000000000000000000000000000000000000000001690630223536e90611da2908590859067ffffffffffffffff90600401613222565b600060405180830381600087803b158015611dbc57600080fd5b505af1158015611dd0573d6000803e3d6000fd5b50505050505050565b6040805173ffffffffffffffffffffffffffffffffffffffff8416602482015260448082018490528251808303909101815260649091019091526020810180517bffffffffffffffffffffffffffffffffffffffffffffffffffffffff167fa9059cbb000000000000000000000000000000000000000000000000000000001790526117f0908490611ede565b60606000611e7660206051613255565b835114611eaf576040517ffbdf795400000000000000000000000000000000000000000000000000000000815260040160405180910390fd5b6000611ebd84826051611fed565b9250611eca605182613255565b9050611ed68482612167565b915050915091565b6000611f40826040518060400160405280602081526020017f5361666545524332303a206c6f772d6c6576656c2063616c6c206661696c65648152508573ffffffffffffffffffffffffffffffffffffffff166121e79092919063ffffffff16565b9050805160001480611f61575080806020019051810190611f619190613046565b6117f0576040517f08c379a000000000000000000000000000000000000000000000000000000000815260206004820152602a60248201527f5361666545524332303a204552433230206f7065726174696f6e20646964206e60448201527f6f74207375636365656400000000000000000000000000000000000000000000606482015260840161175f565b606081611ffb81601f613255565b1015612063576040517f08c379a000000000000000000000000000000000000000000000000000000000815260206004820152600e60248201527f736c6963655f6f766572666c6f77000000000000000000000000000000000000604482015260640161175f565b61206d8284613255565b845110156120d7576040517f08c379a000000000000000000000000000000000000000000000000000000000815260206004820152601160248201527f736c6963655f6f75744f66426f756e6473000000000000000000000000000000604482015260640161175f565b6060821580156120f6576040519150600082526020820160405261215e565b6040519150601f8416801560200281840101858101878315602002848b0101015b8183101561212f578051835260209283019201612117565b5050858452601f017fffffffffffffffffffffffffffffffffffffffffffffffffffffffffffffffe016604052505b50949350505050565b6000612174826020613255565b835110156121de576040517f08c379a000000000000000000000000000000000000000000000000000000000815260206004820152601560248201527f746f427974657333325f6f75744f66426f756e64730000000000000000000000604482015260640161175f565b50016020015190565b60606121f684846000856121fe565b949350505050565b606082471015612290576040517f08c379a000000000000000000000000000000000000000000000000000000000815260206004820152602660248201527f416464726573733a20696e73756666696369656e742062616c616e636520666f60448201527f722063616c6c0000000000000000000000000000000000000000000000000000606482015260840161175f565b6000808673ffffffffffffffffffffffffffffffffffffffff1685876040516122b99190613268565b60006040518083038185875af1925050503d80600081146122f6576040519150601f19603f3d011682016040523d82523d6000602084013e6122fb565b606091505b509150915061230c87838387612317565b979650505050505050565b606083156123ad5782516000036123a65773ffffffffffffffffffffffffffffffffffffffff85163b6123a6576040517f08c379a000000000000000000000000000000000000000000000000000000000815260206004820152601d60248201527f416464726573733a2063616c6c20746f206e6f6e2d636f6e7472616374000000604482015260640161175f565b50816121f6565b6121f683838151156123c25781518083602001fd5b806040517f08c379a000000000000000000000000000000000000000000000000000000000815260040161175f919061327a565b803573ffffffffffffffffffffffffffffffffffffffff8116811461241a57600080fd5b919050565b60008060006060848603121561243457600080fd5b61243d846123f6565b925061244b602085016123f6565b9150604084013590509250925092565b60008083601f84011261246d57600080fd5b50813567ffffffffffffffff81111561248557600080fd5b6020830191508360208260061b85010111156124a057600080fd5b9250929050565b600080602083850312156124ba57600080fd5b823567ffffffffffffffff8111156124d157600080fd5b6124dd8582860161245b565b90969095509350505050565b600080602083850312156124fc57600080fd5b823567ffffffffffffffff8082111561251457600080fd5b818501915085601f83011261252857600080fd5b81358181111561253757600080fd5b8660208260051b850101111561254c57600080fd5b60209290920196919550909350505050565b60008083601f84011261257057600080fd5b50813567ffffffffffffffff81111561258857600080fd5b6020830191508360208285010111156124a057600080fd5b60008060008060008060008060008060c08b8d0312156125bf57600080fd5b8a35995060208b013567ffffffffffffffff808211156125de57600080fd5b6125ea8e838f0161255e565b909b50995060408d013591508082111561260357600080fd5b61260f8e838f0161255e565b909950975060608d013591508082111561262857600080fd5b6126348e838f0161255e565b909750955060808d013591508082111561264d57600080fd5b5061265a8d828e0161255e565b9150809450508092505060a08b013590509295989b9194979a5092959850565b60006020828403121561268c57600080fd5b612695826123f6565b9392505050565b7f4e487b7100000000000000000000000000000000000000000000000000000000600052604160045260246000fd5b6000602082840312156126dd57600080fd5b813567ffffffffffffffff808211156126f557600080fd5b818401915084601f83011261270957600080fd5b81358181111561271b5761271b61269c565b604051601f82017fffffffffffffffffffffffffffffffffffffffffffffffffffffffffffffffe0908116603f011681019083821181831017156127615761276161269c565b8160405282815287602084870101111561277a57600080fd5b826020860160208301376000928101602001929092525095945050505050565b803563ffffffff8116811461241a57600080fd5b6000806000806000608086880312156127c657600080fd5b6127cf8661279a565b9450602086013567ffffffffffffffff80821682146127ed57600080fd5b8195506127fc604089016123f6565b9450606088013591508082111561281257600080fd5b5061281f8882890161255e565b969995985093965092949392505050565b60008060008060008060006080888a03121561284b57600080fd5b87359650602088013567ffffffffffffffff8082111561286a57600080fd5b6128768b838c0161255e565b909850965060408a013591508082111561288f57600080fd5b61289b8b838c0161255e565b909650945060608a01359150808211156128b457600080fd5b506128c18a828b0161255e565b989b979a50959850939692959293505050565b801515811461177157600080fd5b600080604083850312156128f557600080fd5b6128fe836123f6565b9150602083013561290e816128d4565b809150509250929050565b60008060006040848603121561292e57600080fd5b833567ffffffffffffffff8082111561294657600080fd5b9085019060a0828803121561295a57600080fd5b9093506020850135908082111561297057600080fd5b5061297d8682870161255e565b9497909650939450505050565b60006020828403121561299c57600080fd5b6126958261279a565b60005b838110156129c05781810151838201526020016129a8565b50506000910152565b600081518084526129e18160208601602086016129a5565b601f017fffffffffffffffffffffffffffffffffffffffffffffffffffffffffffffffe0169290920160200192915050565b84815261ffff84166020820152608060408201526000612a3660808301856129c9565b8281036060840152610d0181856129c9565b803561ffff8116811461241a57600080fd5b600060208284031215612a6c57600080fd5b61269582612a48565b60008060408385031215612a8857600080fd5b612a91836123f6565b946020939093013593505050565b7f4e487b7100000000000000000000000000000000000000000000000000000000600052603260045260246000fd5b6020808252818101839052600090604080840186845b87811015612b155763ffffffff612afa8361279a565b16835281850135858401529183019190830190600101612ae4565b5090979650505050505050565b600082357fffffffffffffffffffffffffffffffffffffffffffffffffffffffffffffff61833603018112612b5657600080fd5b9190910192915050565b600181811c90821680612b7457607f821691505b602082108103612bad577f4e487b7100000000000000000000000000000000000000000000000000000000600052602260045260246000fd5b50919050565b6000808354612bc181612b60565b60018281168015612bd95760018114612c0c57612c3b565b7fffffffffffffffffffffffffffffffffffffffffffffffffffffffffffffff0084168752821515830287019450612c3b565b8760005260208060002060005b85811015612c325781548a820152908401908201612c19565b50505082870194505b50929695505050505050565b60008083357fffffffffffffffffffffffffffffffffffffffffffffffffffffffffffffffe1843603018112612c7c57600080fd5b83018035915067ffffffffffffffff821115612c9757600080fd5b6020019150368190038213156124a057600080fd5b8183823760009101908152919050565b601f8211156117f0576000816000526020600020601f850160051c81016020861015612ce55750805b601f850160051c820191505b8181101561184b57828155600101612cf1565b815167ffffffffffffffff811115612d1e57612d1e61269c565b612d3281612d2c8454612b60565b84612cbc565b602080601f831160018114612d855760008415612d4f5750858301515b7fffffffffffffffffffffffffffffffffffffffffffffffffffffffffffffffff600386901b1c1916600185901b17855561184b565b6000858152602081207fffffffffffffffffffffffffffffffffffffffffffffffffffffffffffffffe08616915b82811015612dd257888601518255948401946001909101908401612db3565b5085821015612e0e57878501517fffffffffffffffffffffffffffffffffffffffffffffffffffffffffffffffff600388901b60f8161c191681555b5050505050600190811b01905550565b60008083357fffffffffffffffffffffffffffffffffffffffffffffffffffffffffffffffe1843603018112612e5357600080fd5b830160208101925035905067ffffffffffffffff811115612e7357600080fd5b8036038213156124a057600080fd5b8183528181602085013750600060208284010152600060207fffffffffffffffffffffffffffffffffffffffffffffffffffffffffffffffe0601f840116840101905092915050565b60208082528181018390526000906040808401600586901b850182018785805b89811015612fd8577fffffffffffffffffffffffffffffffffffffffffffffffffffffffffffffffc089850301855282357fffffffffffffffffffffffffffffffffffffffffffffffffffffffffffffff618c3603018112612f4b578283fd5b8b0160a063ffffffff612f5d8361279a565b16865261ffff612f6e8a8401612a48565b168987015287820135888701526060612f8981840184612e1e565b83838a0152612f9b848a018284612e82565b93505050506080612fae81840184612e1e565b935087830382890152612fc2838583612e82565b988b019897505050938801935050600101612eeb565b50919998505050505050505050565b89815260c06020820152600061300160c083018a8c612e82565b828103604084015261301481898b612e82565b9050866060840152828103608084015261302f818688612e82565b9150508260a08301529a9950505050505050505050565b60006020828403121561305857600080fd5b8151612695816128d4565b60006020828403121561307557600080fd5b5051919050565b868152608060208201526000613096608083018789612e82565b82810360408401526130a9818688612e82565b915050826060830152979650505050505050565b6020808252818101839052600090604080840186845b87811015612b155763ffffffff6130e98361279a565b16835261ffff6130fa868401612a48565b168386015291830191908301906001016130d3565b600073ffffffffffffffffffffffffffffffffffffffff808816835260a0602084015261313f60a08401886129c9565b838103604085015261315181886129c9565b9050838103606085015261316581876129c9565b9250508084166080840152509695505050505050565b60608152600061318e60608301866129c9565b82810360208401526131a081866129c9565b905082810360408401526131b481856129c9565b9695505050505050565b600083516131d08184602088016129a5565b9190910191825250602001919050565b7f4e487b7100000000000000000000000000000000000000000000000000000000600052601160045260246000fd5b81810381811115611970576119706131e0565b60608152600061323560608301866129c9565b905083602083015267ffffffffffffffff83166040830152949350505050565b80820180821115611970576119706131e0565b60008251612b568184602087016129a5565b60208152600061269560208301846129c956fea2646970667358221220472267c2764f1c7c92588ed19d41b1ca0ac38ee4adcc3b29514cfd518c59b3ab64736f6c63430008160033",
  "linkReferences": {},
  "deployedLinkReferences": {}
}