{
  "_format": "hh-sol-artifact-1",
  "contractName": "ExecutorFeeLib",
  "sourceName": "contracts/ExecutorFeeLib.sol",
  "abi": [
    {
      "inputs": [
        {
          "internalType": "uint256",
          "name": "_nativeDecimalsRate",
          "type": "uint256"
        }
      ],
      "stateMutability": "nonpayable",
      "type": "constructor"
    },
    {
      "inputs": [
        {
          "internalType": "uint256",
          "name": "cursor",
          "type": "uint256"
        }
      ],
      "name": "InvalidExecutorOptions",
      "type": "error"
    },
    {
      "inputs": [],
      "name": "InvalidLzComposeOption",
      "type": "error"
    },
    {
      "inputs": [],
      "name": "InvalidLzReceiveOption",
      "type": "error"
    },
    {
      "inputs": [],
      "name": "InvalidNativeDropOption",
      "type": "error"
    },
    {
      "inputs": [
        {
          "internalType": "uint256",
          "name": "amount",
          "type": "uint256"
        },
        {
          "internalType": "uint256",
          "name": "cap",
          "type": "uint256"
        }
      ],
      "name": "NativeAmountExceedsCap",
      "type": "error"
    },
    {
      "inputs": [],
      "name": "NoOptions",
      "type": "error"
    },
    {
      "inputs": [],
      "name": "ToAddressIsZero",
      "type": "error"
    },
    {
      "inputs": [
        {
          "internalType": "address",
          "name": "_to",
          "type": "address"
        },
        {
          "internalType": "uint256",
          "name": "_value",
          "type": "uint256"
        }
      ],
      "name": "TransferNativeFailed",
      "type": "error"
    },
    {
      "inputs": [
        {
          "internalType": "uint8",
          "name": "optionType",
          "type": "uint8"
        }
      ],
      "name": "UnsupportedOptionType",
      "type": "error"
    },
    {
      "anonymous": false,
      "inputs": [
        {
          "indexed": true,
          "internalType": "address",
          "name": "previousOwner",
          "type": "address"
        },
        {
          "indexed": true,
          "internalType": "address",
          "name": "newOwner",
          "type": "address"
        }
      ],
      "name": "OwnershipTransferred",
      "type": "event"
    },
    {
      "inputs": [
        {
          "components": [
            {
              "internalType": "address",
              "name": "priceFeed",
              "type": "address"
            },
            {
              "internalType": "uint32",
              "name": "dstEid",
              "type": "uint32"
            },
            {
              "internalType": "address",
              "name": "sender",
              "type": "address"
            },
            {
              "internalType": "uint256",
              "name": "calldataSize",
              "type": "uint256"
            },
            {
              "internalType": "uint16",
              "name": "defaultMultiplierBps",
              "type": "uint16"
            }
          ],
          "internalType": "struct IExecutorFeeLib.FeeParams",
          "name": "_params",
          "type": "tuple"
        },
        {
          "components": [
            {
              "internalType": "uint64",
              "name": "baseGas",
              "type": "uint64"
            },
            {
              "internalType": "uint16",
              "name": "multiplierBps",
              "type": "uint16"
            },
            {
              "internalType": "uint128",
              "name": "floorMarginUSD",
              "type": "uint128"
            },
            {
              "internalType": "uint128",
              "name": "nativeCap",
              "type": "uint128"
            }
          ],
          "internalType": "struct IExecutor.DstConfig",
          "name": "_dstConfig",
          "type": "tuple"
        },
        {
          "internalType": "bytes",
          "name": "_options",
          "type": "bytes"
        }
      ],
      "name": "getFee",
      "outputs": [
        {
          "internalType": "uint256",
          "name": "fee",
          "type": "uint256"
        }
      ],
      "stateMutability": "view",
      "type": "function"
    },
    {
      "inputs": [
        {
          "components": [
            {
              "internalType": "address",
              "name": "priceFeed",
              "type": "address"
            },
            {
              "internalType": "uint32",
              "name": "dstEid",
              "type": "uint32"
            },
            {
              "internalType": "address",
              "name": "sender",
              "type": "address"
            },
            {
              "internalType": "uint256",
              "name": "calldataSize",
              "type": "uint256"
            },
            {
              "internalType": "uint16",
              "name": "defaultMultiplierBps",
              "type": "uint16"
            }
          ],
          "internalType": "struct IExecutorFeeLib.FeeParams",
          "name": "_params",
          "type": "tuple"
        },
        {
          "components": [
            {
              "internalType": "uint64",
              "name": "baseGas",
              "type": "uint64"
            },
            {
              "internalType": "uint16",
              "name": "multiplierBps",
              "type": "uint16"
            },
            {
              "internalType": "uint128",
              "name": "floorMarginUSD",
              "type": "uint128"
            },
            {
              "internalType": "uint128",
              "name": "nativeCap",
              "type": "uint128"
            }
          ],
          "internalType": "struct IExecutor.DstConfig",
          "name": "_dstConfig",
          "type": "tuple"
        },
        {
          "internalType": "bytes",
          "name": "_options",
          "type": "bytes"
        }
      ],
      "name": "getFeeOnSend",
      "outputs": [
        {
          "internalType": "uint256",
          "name": "fee",
          "type": "uint256"
        }
      ],
      "stateMutability": "nonpayable",
      "type": "function"
    },
    {
      "inputs": [],
      "name": "owner",
      "outputs": [
        {
          "internalType": "address",
          "name": "",
          "type": "address"
        }
      ],
      "stateMutability": "view",
      "type": "function"
    },
    {
      "inputs": [],
      "name": "renounceOwnership",
      "outputs": [],
      "stateMutability": "nonpayable",
      "type": "function"
    },
    {
      "inputs": [
        {
          "internalType": "address",
          "name": "newOwner",
          "type": "address"
        }
      ],
      "name": "transferOwnership",
      "outputs": [],
      "stateMutability": "nonpayable",
      "type": "function"
    },
    {
      "inputs": [
        {
          "internalType": "address",
          "name": "_token",
          "type": "address"
        },
        {
          "internalType": "address",
          "name": "_to",
          "type": "address"
        },
        {
          "internalType": "uint256",
          "name": "_amount",
          "type": "uint256"
        }
      ],
      "name": "withdrawToken",
      "outputs": [],
      "stateMutability": "nonpayable",
      "type": "function"
    },
    {
      "stateMutability": "payable",
      "type": "receive"
    }
  ],
  "bytecode": "0x60a060405234801561001057600080fd5b5060405161172c38038061172c83398101604081905261002f91610090565b61003833610040565b6080526100a9565b600080546001600160a01b038381166001600160a01b0319831681178455604051919092169283917f8be0079c531659141344cd1fd0a4f28419497f9722a3daafe3b4186f6b6457e09190a35050565b6000602082840312156100a257600080fd5b5051919050565b6080516116686100c4600039600061096101526116686000f3fe6080604052600436106100695760003560e01c80638da5cb5b116100435780638da5cb5b146100df578063f2fde38b14610114578063f43bcfc51461013457600080fd5b806301e3366714610075578063371c3a8e14610097578063715018a6146100ca57600080fd5b3661007057005b600080fd5b34801561008157600080fd5b506100956100903660046111a0565b610154565b005b3480156100a357600080fd5b506100b76100b23660046111dc565b61016c565b6040519081526020015b60405180910390f35b3480156100d657600080fd5b5061009561030d565b3480156100eb57600080fd5b5060005460405173ffffffffffffffffffffffffffffffffffffffff90911681526020016100c1565b34801561012057600080fd5b5061009561012f36600461129c565b610321565b34801561014057600080fd5b506100b761014f3660046111dc565b6103dd565b61015c6104a6565b610167838383610527565b505050565b600080806101b961019561018660408a0160208b016112be565b61753063ffffffff9091161090565b6101a260208901896112e4565b6101b260808a0160608b0161132c565b8888610557565b909250905060008080806101d060208c018c61129c565b73ffffffffffffffffffffffffffffffffffffffff166388a4124c6101fb60408e0160208f016112be565b6040517fffffffff0000000000000000000000000000000000000000000000000000000060e084901b16815263ffffffff91909116600482015260608e0135602482015260448101889052606401608060405180830381865afa158015610266573d6000803e3d6000fd5b505050506040513d601f19601f8201168201806040525081019061028a9190611349565b929650909450925090506102d4846102a860408d0160208e0161139e565b8d60800160208101906102bb919061139e565b8d60400160208101906102ce919061132c565b856108d6565b96506102f48684848e60800160208101906102ef919061139e565b6109d1565b6102fe90886113f1565b9b9a5050505050505050505050565b6103156104a6565b61031f6000610a3b565b565b6103296104a6565b73ffffffffffffffffffffffffffffffffffffffff81166103d1576040517f08c379a000000000000000000000000000000000000000000000000000000000815260206004820152602660248201527f4f776e61626c653a206e6577206f776e657220697320746865207a65726f206160448201527f646472657373000000000000000000000000000000000000000000000000000060648201526084015b60405180910390fd5b6103da81610a3b565b50565b600080806103f761019561018660408a0160208b016112be565b9092509050600080808061040e60208c018c61129c565b73ffffffffffffffffffffffffffffffffffffffff1663c1723a1d61043960408e0160208f016112be565b6040517fffffffff0000000000000000000000000000000000000000000000000000000060e084901b16815263ffffffff91909116600482015260608e01356024820152604481018890526064016080604051808303816000875af1158015610266573d6000803e3d6000fd5b60005473ffffffffffffffffffffffffffffffffffffffff16331461031f576040517f08c379a000000000000000000000000000000000000000000000000000000000815260206004820181905260248201527f4f776e61626c653a2063616c6c6572206973206e6f7420746865206f776e657260448201526064016103c8565b73ffffffffffffffffffffffffffffffffffffffff831661054c576101678282610ab0565b610167838383610bb6565b600080828103610593576040517f148c679d00000000000000000000000000000000000000000000000000000000815260040160405180910390fd5b5067ffffffffffffffff85166000805b848210156108075760003681806105bb8a8a88610c24565b9850919550935091508590507fffffffffffffffffffffffffffffffffffffffffffffffffffffffffffffffff60ff8516016106a0576000806105fe8585610c7a565b915091508e801561062157506000816fffffffffffffffffffffffffffffffff16115b1561065d576040517f3d6c5c7000000000000000000000000000000000000000000000000000000000815260ff871660048201526024016103c8565b6106796fffffffffffffffffffffffffffffffff82168b6113f1565b99506106976fffffffffffffffffffffffffffffffff83168a6113f1565b985050506107fe565b7ffffffffffffffffffffffffffffffffffffffffffffffffffffffffffffffffe60ff8516016106fd5760006106d68484610cf8565b5090506106f56fffffffffffffffffffffffffffffffff82168a6113f1565b9850506107fe565b7ffffffffffffffffffffffffffffffffffffffffffffffffffffffffffffffffd60ff851601610794578c15610764576040517f3d6c5c7000000000000000000000000000000000000000000000000000000000815260ff851660048201526024016103c8565b6000806107718585610d4f565b9250925050806fffffffffffffffffffffffffffffffff168a61067991906113f1565b7ffffffffffffffffffffffffffffffffffffffffffffffffffffffffffffffffc60ff8516016107c757600194506107fe565b6040517f3d6c5c7000000000000000000000000000000000000000000000000000000000815260ff851660048201526024016103c8565b505050506105a3565b818514610843576040517fb61964ac000000000000000000000000000000000000000000000000000000008152600481018390526024016103c8565b866fffffffffffffffffffffffffffffffff168411156108aa576040517ff5cd7a35000000000000000000000000000000000000000000000000000000008152600481018590526fffffffffffffffffffffffffffffffff881660248201526044016103c8565b80156108ca5760646108bd84606661140a565b6108c79190611421565b92505b50509550959350505050565b60008061ffff8616156108e957856108eb565b845b9050600061271061090061ffff84168a61140a565b61090a9190611421565b90506fffffffffffffffffffffffffffffffff8416158061093b57506fffffffffffffffffffffffffffffffff8516155b156109495791506109c89050565b600088856fffffffffffffffffffffffffffffffff167f0000000000000000000000000000000000000000000000000000000000000000886fffffffffffffffffffffffffffffffff1661099d919061140a565b6109a79190611421565b6109b191906113f1565b90508181116109c057816109c2565b805b93505050505b95945050505050565b60008415610a33576127108261ffff16846fffffffffffffffffffffffffffffffff16866fffffffffffffffffffffffffffffffff1688610a12919061140a565b610a1c9190611421565b610a26919061140a565b610a309190611421565b90505b949350505050565b6000805473ffffffffffffffffffffffffffffffffffffffff8381167fffffffffffffffffffffffff0000000000000000000000000000000000000000831681178455604051919092169283917f8be0079c531659141344cd1fd0a4f28419497f9722a3daafe3b4186f6b6457e09190a35050565b73ffffffffffffffffffffffffffffffffffffffff8216610afd576040517f32fa6a1d00000000000000000000000000000000000000000000000000000000815260040160405180910390fd5b60008273ffffffffffffffffffffffffffffffffffffffff168260405160006040518083038185875af1925050503d8060008114610b57576040519150601f19603f3d011682016040523d82523d6000602084013e610b5c565b606091505b5050905080610167576040517f2c024f9200000000000000000000000000000000000000000000000000000000815273ffffffffffffffffffffffffffffffffffffffff84166004820152602481018390526044016103c8565b73ffffffffffffffffffffffffffffffffffffffff8216610c03576040517f32fa6a1d00000000000000000000000000000000000000000000000000000000815260040160405180910390fd5b61016773ffffffffffffffffffffffffffffffffffffffff84168383610ddc565b600036816001840181610c38888884610e69565b600292909201919050610c4c888884610e90565b94506001820161ffff82168301610c6581838b8d61145c565b979b909a50969850505061ffff160193505050565b60008060108314801590610c8f575060208314155b15610cc6576040517fd03c996900000000000000000000000000000000000000000000000000000000815260040160405180910390fd5b610cd284846000610eb5565b915060208314610ce3576000610cef565b610cef84846010610eb5565b90509250929050565b60008060308314610d35576040517fde48d29900000000000000000000000000000000000000000000000000000000815260040160405180910390fd5b610d4184846000610eb5565b9150610cef84846010610edc565b6000808060128414801590610d65575060228414155b15610d9c576040517f071673fe00000000000000000000000000000000000000000000000000000000815260040160405180910390fd5b610da885856000610e69565b9250610db685856002610eb5565b915060228414610dc7576000610dd3565b610dd385856012610eb5565b90509250925092565b6040805173ffffffffffffffffffffffffffffffffffffffff8416602482015260448082018490528251808303909101815260649091019091526020810180517bffffffffffffffffffffffffffffffffffffffffffffffffffffffff167fa9059cbb00000000000000000000000000000000000000000000000000000000179052610167908490610ef7565b600060028201610e7b8184868861145c565b610e8491611486565b60f01c95945050505050565b6000838383818110610ea457610ea46114ce565b919091013560f81c95945050505050565b600060108201610ec78184868861145c565b610ed0916114fd565b60801c95945050505050565b600060208201610eee8184868861145c565b6109c891611543565b6000610f59826040518060400160405280602081526020017f5361666545524332303a206c6f772d6c6576656c2063616c6c206661696c65648152508573ffffffffffffffffffffffffffffffffffffffff166110069092919063ffffffff16565b9050805160001480610f7a575080806020019051810190610f7a919061157f565b610167576040517f08c379a000000000000000000000000000000000000000000000000000000000815260206004820152602a60248201527f5361666545524332303a204552433230206f7065726174696f6e20646964206e60448201527f6f7420737563636565640000000000000000000000000000000000000000000060648201526084016103c8565b6060610a338484600085856000808673ffffffffffffffffffffffffffffffffffffffff16858760405161103a91906115c5565b60006040518083038185875af1925050503d8060008114611077576040519150601f19603f3d011682016040523d82523d6000602084013e61107c565b606091505b509150915061108d87838387611098565b979650505050505050565b6060831561112e5782516000036111275773ffffffffffffffffffffffffffffffffffffffff85163b611127576040517f08c379a000000000000000000000000000000000000000000000000000000000815260206004820152601d60248201527f416464726573733a2063616c6c20746f206e6f6e2d636f6e747261637400000060448201526064016103c8565b5081610a33565b610a3383838151156111435781518083602001fd5b806040517f08c379a00000000000000000000000000000000000000000000000000000000081526004016103c891906115e1565b803573ffffffffffffffffffffffffffffffffffffffff8116811461119b57600080fd5b919050565b6000806000606084860312156111b557600080fd5b6111be84611177565b92506111cc60208501611177565b9150604084013590509250925092565b6000806000808486036101408112156111f457600080fd5b60a081121561120257600080fd5b85945060807fffffffffffffffffffffffffffffffffffffffffffffffffffffffffffffff608201121561123557600080fd5b5060a08501925061012085013567ffffffffffffffff8082111561125857600080fd5b818701915087601f83011261126c57600080fd5b81358181111561127b57600080fd5b88602082850101111561128d57600080fd5b95989497505060200194505050565b6000602082840312156112ae57600080fd5b6112b782611177565b9392505050565b6000602082840312156112d057600080fd5b813563ffffffff811681146112b757600080fd5b6000602082840312156112f657600080fd5b813567ffffffffffffffff811681146112b757600080fd5b6fffffffffffffffffffffffffffffffff811681146103da57600080fd5b60006020828403121561133e57600080fd5b81356112b78161130e565b6000806000806080858703121561135f57600080fd5b8451935060208501516113718161130e565b60408601519093506113828161130e565b60608601519092506113938161130e565b939692955090935050565b6000602082840312156113b057600080fd5b813561ffff811681146112b757600080fd5b7f4e487b7100000000000000000000000000000000000000000000000000000000600052601160045260246000fd5b80820180821115611404576114046113c2565b92915050565b8082028115828204841417611404576114046113c2565b600082611457577f4e487b7100000000000000000000000000000000000000000000000000000000600052601260045260246000fd5b500490565b6000808585111561146c57600080fd5b8386111561147957600080fd5b5050820193919092039150565b7fffff00000000000000000000000000000000000000000000000000000000000081358181169160028510156114c65780818660020360031b1b83161692505b505092915050565b7f4e487b7100000000000000000000000000000000000000000000000000000000600052603260045260246000fd5b7fffffffffffffffffffffffffffffffff0000000000000000000000000000000081358181169160108510156114c65760109490940360031b84901b1690921692915050565b80356020831015611404577fffffffffffffffffffffffffffffffffffffffffffffffffffffffffffffffff602084900360031b1b1692915050565b60006020828403121561159157600080fd5b815180151581146112b757600080fd5b60005b838110156115bc5781810151838201526020016115a4565b50506000910152565b600082516115d78184602087016115a1565b9190910192915050565b60208152600082518060208401526116008160408501602087016115a1565b601f017fffffffffffffffffffffffffffffffffffffffffffffffffffffffffffffffe016919091016040019291505056fea26469706673582212204438bdeac262d5483c06032e5f709edda41102d0ccbdd02652a3796986f055ad64736f6c63430008160033",
  "linkReferences": {},
  "deployedLinkReferences": {}
}