{
  "_format": "hh-sol-artifact-1",
  "contractName": "EndpointV2",
  "sourceName": "contracts/EndpointV2.sol",
  "abi": [
    {
      "inputs": [
        {
          "internalType": "uint32",
          "name": "_eid",
          "type": "uint32"
        },
        {
          "internalType": "address",
          "name": "_owner",
          "type": "address"
        }
      ],
      "stateMutability": "nonpayable",
      "type": "constructor"
    },
    {
      "inputs": [],
      "name": "AlreadyRegistered",
      "type": "error"
    },
    {
      "inputs": [],
      "name": "ComposeExists",
      "type": "error"
    },
    {
      "inputs": [
        {
          "internalType": "bytes32",
          "name": "expected",
          "type": "bytes32"
        },
        {
          "internalType": "bytes32",
          "name": "actual",
          "type": "bytes32"
        }
      ],
      "name": "ComposeNotFound",
      "type": "error"
    },
    {
      "inputs": [],
      "name": "DefaultReceiveLibUnavailable",
      "type": "error"
    },
    {
      "inputs": [],
      "name": "DefaultSendLibUnavailable",
      "type": "error"
    },
    {
      "inputs": [
        {
          "internalType": "uint256",
          "name": "requiredNative",
          "type": "uint256"
        },
        {
          "internalType": "uint256",
          "name": "suppliedNative",
          "type": "uint256"
        },
        {
          "internalType": "uint256",
          "name": "requiredLzToken",
          "type": "uint256"
        },
        {
          "internalType": "uint256",
          "name": "suppliedLzToken",
          "type": "uint256"
        }
      ],
      "name": "InsufficientFee",
      "type": "error"
    },
    {
      "inputs": [],
      "name": "InvalidExpiry",
      "type": "error"
    },
    {
      "inputs": [
        {
          "internalType": "uint64",
          "name": "nonce",
          "type": "uint64"
        }
      ],
      "name": "InvalidNonce",
      "type": "error"
    },
    {
      "inputs": [],
      "name": "InvalidPayloadHash",
      "type": "error"
    },
    {
      "inputs": [],
      "name": "InvalidReceiveLibrary",
      "type": "error"
    },
    {
      "inputs": [],
      "name": "LzTokenUnavailable",
      "type": "error"
    },
    {
      "inputs": [],
      "name": "OnlyNonDefaultLib",
      "type": "error"
    },
    {
      "inputs": [],
      "name": "OnlyReceiveLib",
      "type": "error"
    },
    {
      "inputs": [],
      "name": "OnlyRegisteredLib",
      "type": "error"
    },
    {
      "inputs": [],
      "name": "OnlyRegisteredOrDefaultLib",
      "type": "error"
    },
    {
      "inputs": [],
      "name": "OnlySendLib",
      "type": "error"
    },
    {
      "inputs": [],
      "name": "PathNotInitializable",
      "type": "error"
    },
    {
      "inputs": [],
      "name": "PathNotVerifiable",
      "type": "error"
    },
    {
      "inputs": [
        {
          "internalType": "bytes32",
          "name": "expected",
          "type": "bytes32"
        },
        {
          "internalType": "bytes32",
          "name": "actual",
          "type": "bytes32"
        }
      ],
      "name": "PayloadHashNotFound",
      "type": "error"
    },
    {
      "inputs": [],
      "name": "SameValue",
      "type": "error"
    },
    {
      "inputs": [],
      "name": "SendReentrancy",
      "type": "error"
    },
    {
      "inputs": [],
      "name": "ToAddressIsZero",
      "type": "error"
    },
    {
      "inputs": [
        {
          "internalType": "address",
          "name": "_to",
          "type": "address"
        },
        {
          "internalType": "uint256",
          "name": "_value",
          "type": "uint256"
        }
      ],
      "name": "TransferNativeFailed",
      "type": "error"
    },
    {
      "inputs": [],
      "name": "Unauthorized",
      "type": "error"
    },
    {
      "inputs": [],
      "name": "UnsupportedEid",
      "type": "error"
    },
    {
      "inputs": [],
      "name": "UnsupportedInterface",
      "type": "error"
    },
    {
      "inputs": [],
      "name": "ZeroLzTokenFee",
      "type": "error"
    },
    {
      "anonymous": false,
      "inputs": [
        {
          "indexed": false,
          "internalType": "address",
          "name": "from",
          "type": "address"
        },
        {
          "indexed": false,
          "internalType": "address",
          "name": "to",
          "type": "address"
        },
        {
          "indexed": false,
          "internalType": "bytes32",
          "name": "guid",
          "type": "bytes32"
        },
        {
          "indexed": false,
          "internalType": "uint16",
          "name": "index",
          "type": "uint16"
        }
      ],
      "name": "ComposeDelivered",
      "type": "event"
    },
    {
      "anonymous": false,
      "inputs": [
        {
          "indexed": false,
          "internalType": "address",
          "name": "from",
          "type": "address"
        },
        {
          "indexed": false,
          "internalType": "address",
          "name": "to",
          "type": "address"
        },
        {
          "indexed": false,
          "internalType": "bytes32",
          "name": "guid",
          "type": "bytes32"
        },
        {
          "indexed": false,
          "internalType": "uint16",
          "name": "index",
          "type": "uint16"
        },
        {
          "indexed": false,
          "internalType": "bytes",
          "name": "message",
          "type": "bytes"
        }
      ],
      "name": "ComposeSent",
      "type": "event"
    },
    {
      "anonymous": false,
      "inputs": [
        {
          "indexed": false,
          "internalType": "uint32",
          "name": "eid",
          "type": "uint32"
        },
        {
          "indexed": false,
          "internalType": "address",
          "name": "oldLib",
          "type": "address"
        },
        {
          "indexed": false,
          "internalType": "address",
          "name": "newLib",
          "type": "address"
        }
      ],
      "name": "DefaultReceiveLibrarySet",
      "type": "event"
    },
    {
      "anonymous": false,
      "inputs": [
        {
          "indexed": false,
          "internalType": "uint32",
          "name": "eid",
          "type": "uint32"
        },
        {
          "indexed": false,
          "internalType": "address",
          "name": "oldLib",
          "type": "address"
        },
        {
          "indexed": false,
          "internalType": "uint256",
          "name": "expiry",
          "type": "uint256"
        }
      ],
      "name": "DefaultReceiveLibraryTimeoutSet",
      "type": "event"
    },
    {
      "anonymous": false,
      "inputs": [
        {
          "indexed": false,
          "internalType": "uint32",
          "name": "eid",
          "type": "uint32"
        },
        {
          "indexed": false,
          "internalType": "address",
          "name": "newLib",
          "type": "address"
        }
      ],
      "name": "DefaultSendLibrarySet",
      "type": "event"
    },
    {
      "anonymous": false,
      "inputs": [
        {
          "indexed": false,
          "internalType": "uint32",
          "name": "srcEid",
          "type": "uint32"
        },
        {
          "indexed": false,
          "internalType": "bytes32",
          "name": "sender",
          "type": "bytes32"
        },
        {
          "indexed": false,
          "internalType": "address",
          "name": "receiver",
          "type": "address"
        },
        {
          "indexed": false,
          "internalType": "uint64",
          "name": "nonce",
          "type": "uint64"
        }
      ],
      "name": "InboundNonceSkipped",
      "type": "event"
    },
    {
      "anonymous": false,
      "inputs": [
        {
          "indexed": false,
          "internalType": "address",
          "name": "newLib",
          "type": "address"
        }
      ],
      "name": "LibraryRegistered",
      "type": "event"
    },
    {
      "anonymous": false,
      "inputs": [
        {
          "indexed": true,
          "internalType": "address",
          "name": "from",
          "type": "address"
        },
        {
          "indexed": true,
          "internalType": "address",
          "name": "to",
          "type": "address"
        },
        {
          "indexed": true,
          "internalType": "address",
          "name": "executor",
          "type": "address"
        },
        {
          "indexed": false,
          "internalType": "bytes32",
          "name": "guid",
          "type": "bytes32"
        },
        {
          "indexed": false,
          "internalType": "uint16",
          "name": "index",
          "type": "uint16"
        },
        {
          "indexed": false,
          "internalType": "uint256",
          "name": "gas",
          "type": "uint256"
        },
        {
          "indexed": false,
          "internalType": "uint256",
          "name": "value",
          "type": "uint256"
        },
        {
          "indexed": false,
          "internalType": "bytes",
          "name": "message",
          "type": "bytes"
        },
        {
          "indexed": false,
          "internalType": "bytes",
          "name": "extraData",
          "type": "bytes"
        },
        {
          "indexed": false,
          "internalType": "bytes",
          "name": "reason",
          "type": "bytes"
        }
      ],
      "name": "LzComposeAlert",
      "type": "event"
    },
    {
      "anonymous": false,
      "inputs": [
        {
          "indexed": true,
          "internalType": "address",
          "name": "receiver",
          "type": "address"
        },
        {
          "indexed": true,
          "internalType": "address",
          "name": "executor",
          "type": "address"
        },
        {
          "components": [
            {
              "internalType": "uint32",
              "name": "srcEid",
              "type": "uint32"
            },
            {
              "internalType": "bytes32",
              "name": "sender",
              "type": "bytes32"
            },
            {
              "internalType": "uint64",
              "name": "nonce",
              "type": "uint64"
            }
          ],
          "indexed": false,
          "internalType": "struct Origin",
          "name": "origin",
          "type": "tuple"
        },
        {
          "indexed": false,
          "internalType": "bytes32",
          "name": "guid",
          "type": "bytes32"
        },
        {
          "indexed": false,
          "internalType": "uint256",
          "name": "gas",
          "type": "uint256"
        },
        {
          "indexed": false,
          "internalType": "uint256",
          "name": "value",
          "type": "uint256"
        },
        {
          "indexed": false,
          "internalType": "bytes",
          "name": "message",
          "type": "bytes"
        },
        {
          "indexed": false,
          "internalType": "bytes",
          "name": "extraData",
          "type": "bytes"
        },
        {
          "indexed": false,
          "internalType": "bytes",
          "name": "reason",
          "type": "bytes"
        }
      ],
      "name": "LzReceiveAlert",
      "type": "event"
    },
    {
      "anonymous": false,
      "inputs": [
        {
          "indexed": false,
          "internalType": "address",
          "name": "token",
          "type": "address"
        }
      ],
      "name": "LzTokenSet",
      "type": "event"
    },
    {
      "anonymous": false,
      "inputs": [
        {
          "indexed": true,
          "internalType": "address",
          "name": "previousOwner",
          "type": "address"
        },
        {
          "indexed": true,
          "internalType": "address",
          "name": "newOwner",
          "type": "address"
        }
      ],
      "name": "OwnershipTransferred",
      "type": "event"
    },
    {
      "anonymous": false,
      "inputs": [
        {
          "indexed": false,
          "internalType": "uint32",
          "name": "srcEid",
          "type": "uint32"
        },
        {
          "indexed": false,
          "internalType": "bytes32",
          "name": "sender",
          "type": "bytes32"
        },
        {
          "indexed": false,
          "internalType": "address",
          "name": "receiver",
          "type": "address"
        },
        {
          "indexed": false,
          "internalType": "uint64",
          "name": "nonce",
          "type": "uint64"
        },
        {
          "indexed": false,
          "internalType": "bytes32",
          "name": "payloadHash",
          "type": "bytes32"
        }
      ],
      "name": "PacketBurnt",
      "type": "event"
    },
    {
      "anonymous": false,
      "inputs": [
        {
          "components": [
            {
              "internalType": "uint32",
              "name": "srcEid",
              "type": "uint32"
            },
            {
              "internalType": "bytes32",
              "name": "sender",
              "type": "bytes32"
            },
            {
              "internalType": "uint64",
              "name": "nonce",
              "type": "uint64"
            }
          ],
          "indexed": false,
          "internalType": "struct Origin",
          "name": "origin",
          "type": "tuple"
        },
        {
          "indexed": false,
          "internalType": "address",
          "name": "receiver",
          "type": "address"
        }
      ],
      "name": "PacketDelivered",
      "type": "event"
    },
    {
      "anonymous": false,
      "inputs": [
        {
          "indexed": false,
          "internalType": "uint32",
          "name": "srcEid",
          "type": "uint32"
        },
        {
          "indexed": false,
          "internalType": "bytes32",
          "name": "sender",
          "type": "bytes32"
        },
        {
          "indexed": false,
          "internalType": "address",
          "name": "receiver",
          "type": "address"
        },
        {
          "indexed": false,
          "internalType": "uint64",
          "name": "nonce",
          "type": "uint64"
        },
        {
          "indexed": false,
          "internalType": "bytes32",
          "name": "payloadHash",
          "type": "bytes32"
        }
      ],
      "name": "PacketNilified",
      "type": "event"
    },
    {
      "anonymous": false,
      "inputs": [
        {
          "indexed": false,
          "internalType": "bytes",
          "name": "encodedPayload",
          "type": "bytes"
        },
        {
          "indexed": false,
          "internalType": "bytes",
          "name": "options",
          "type": "bytes"
        },
        {
          "indexed": false,
          "internalType": "address",
          "name": "sendLibrary",
          "type": "address"
        }
      ],
      "name": "PacketSent",
      "type": "event"
    },
    {
      "anonymous": false,
      "inputs": [
        {
          "components": [
            {
              "internalType": "uint32",
              "name": "srcEid",
              "type": "uint32"
            },
            {
              "internalType": "bytes32",
              "name": "sender",
              "type": "bytes32"
            },
            {
              "internalType": "uint64",
              "name": "nonce",
              "type": "uint64"
            }
          ],
          "indexed": false,
          "internalType": "struct Origin",
          "name": "origin",
          "type": "tuple"
        },
        {
          "indexed": false,
          "internalType": "address",
          "name": "receiver",
          "type": "address"
        },
        {
          "indexed": false,
          "internalType": "bytes32",
          "name": "payloadHash",
          "type": "bytes32"
        }
      ],
      "name": "PacketVerified",
      "type": "event"
    },
    {
      "anonymous": false,
      "inputs": [
        {
          "indexed": false,
          "internalType": "address",
          "name": "receiver",
          "type": "address"
        },
        {
          "indexed": false,
          "internalType": "uint32",
          "name": "eid",
          "type": "uint32"
        },
        {
          "indexed": false,
          "internalType": "address",
          "name": "oldLib",
          "type": "address"
        },
        {
          "indexed": false,
          "internalType": "address",
          "name": "newLib",
          "type": "address"
        }
      ],
      "name": "ReceiveLibrarySet",
      "type": "event"
    },
    {
      "anonymous": false,
      "inputs": [
        {
          "indexed": false,
          "internalType": "address",
          "name": "receiver",
          "type": "address"
        },
        {
          "indexed": false,
          "internalType": "uint32",
          "name": "eid",
          "type": "uint32"
        },
        {
          "indexed": false,
          "internalType": "address",
          "name": "oldLib",
          "type": "address"
        },
        {
          "indexed": false,
          "internalType": "uint256",
          "name": "timeout",
          "type": "uint256"
        }
      ],
      "name": "ReceiveLibraryTimeoutSet",
      "type": "event"
    },
    {
      "anonymous": false,
      "inputs": [
        {
          "indexed": false,
          "internalType": "address",
          "name": "sender",
          "type": "address"
        },
        {
          "indexed": false,
          "internalType": "uint32",
          "name": "eid",
          "type": "uint32"
        },
        {
          "indexed": false,
          "internalType": "address",
          "name": "newLib",
          "type": "address"
        }
      ],
      "name": "SendLibrarySet",
      "type": "event"
    },
    {
      "inputs": [],
      "name": "EMPTY_PAYLOAD_HASH",
      "outputs": [
        {
          "internalType": "bytes32",
          "name": "",
          "type": "bytes32"
        }
      ],
      "stateMutability": "view",
      "type": "function"
    },
    {
      "inputs": [],
      "name": "NIL_PAYLOAD_HASH",
      "outputs": [
        {
          "internalType": "bytes32",
          "name": "",
          "type": "bytes32"
        }
      ],
      "stateMutability": "view",
      "type": "function"
    },
    {
      "inputs": [],
      "name": "blockedLibrary",
      "outputs": [
        {
          "internalType": "address",
          "name": "",
          "type": "address"
        }
      ],
      "stateMutability": "view",
      "type": "function"
    },
    {
      "inputs": [
        {
          "internalType": "address",
          "name": "_oapp",
          "type": "address"
        },
        {
          "internalType": "uint32",
          "name": "_srcEid",
          "type": "uint32"
        },
        {
          "internalType": "bytes32",
          "name": "_sender",
          "type": "bytes32"
        },
        {
          "internalType": "uint64",
          "name": "_nonce",
          "type": "uint64"
        },
        {
          "internalType": "bytes32",
          "name": "_payloadHash",
          "type": "bytes32"
        }
      ],
      "name": "burn",
      "outputs": [],
      "stateMutability": "nonpayable",
      "type": "function"
    },
    {
      "inputs": [
        {
          "internalType": "address",
          "name": "_oapp",
          "type": "address"
        },
        {
          "components": [
            {
              "internalType": "uint32",
              "name": "srcEid",
              "type": "uint32"
            },
            {
              "internalType": "bytes32",
              "name": "sender",
              "type": "bytes32"
            },
            {
              "internalType": "uint64",
              "name": "nonce",
              "type": "uint64"
            }
          ],
          "internalType": "struct Origin",
          "name": "_origin",
          "type": "tuple"
        },
        {
          "internalType": "bytes32",
          "name": "_guid",
          "type": "bytes32"
        },
        {
          "internalType": "bytes",
          "name": "_message",
          "type": "bytes"
        }
      ],
      "name": "clear",
      "outputs": [],
      "stateMutability": "nonpayable",
      "type": "function"
    },
    {
      "inputs": [
        {
          "internalType": "address",
          "name": "from",
          "type": "address"
        },
        {
          "internalType": "address",
          "name": "to",
          "type": "address"
        },
        {
          "internalType": "bytes32",
          "name": "guid",
          "type": "bytes32"
        },
        {
          "internalType": "uint16",
          "name": "index",
          "type": "uint16"
        }
      ],
      "name": "composeQueue",
      "outputs": [
        {
          "internalType": "bytes32",
          "name": "messageHash",
          "type": "bytes32"
        }
      ],
      "stateMutability": "view",
      "type": "function"
    },
    {
      "inputs": [
        {
          "internalType": "uint32",
          "name": "srcEid",
          "type": "uint32"
        }
      ],
      "name": "defaultReceiveLibrary",
      "outputs": [
        {
          "internalType": "address",
          "name": "lib",
          "type": "address"
        }
      ],
      "stateMutability": "view",
      "type": "function"
    },
    {
      "inputs": [
        {
          "internalType": "uint32",
          "name": "srcEid",
          "type": "uint32"
        }
      ],
      "name": "defaultReceiveLibraryTimeout",
      "outputs": [
        {
          "internalType": "address",
          "name": "lib",
          "type": "address"
        },
        {
          "internalType": "uint256",
          "name": "expiry",
          "type": "uint256"
        }
      ],
      "stateMutability": "view",
      "type": "function"
    },
    {
      "inputs": [
        {
          "internalType": "uint32",
          "name": "dstEid",
          "type": "uint32"
        }
      ],
      "name": "defaultSendLibrary",
      "outputs": [
        {
          "internalType": "address",
          "name": "lib",
          "type": "address"
        }
      ],
      "stateMutability": "view",
      "type": "function"
    },
    {
      "inputs": [
        {
          "internalType": "address",
          "name": "oapp",
          "type": "address"
        }
      ],
      "name": "delegates",
      "outputs": [
        {
          "internalType": "address",
          "name": "delegate",
          "type": "address"
        }
      ],
      "stateMutability": "view",
      "type": "function"
    },
    {
      "inputs": [],
      "name": "eid",
      "outputs": [
        {
          "internalType": "uint32",
          "name": "",
          "type": "uint32"
        }
      ],
      "stateMutability": "view",
      "type": "function"
    },
    {
      "inputs": [
        {
          "components": [
            {
              "internalType": "uint32",
              "name": "srcEid",
              "type": "uint32"
            },
            {
              "internalType": "bytes32",
              "name": "sender",
              "type": "bytes32"
            },
            {
              "internalType": "uint64",
              "name": "nonce",
              "type": "uint64"
            }
          ],
          "internalType": "struct Origin",
          "name": "_origin",
          "type": "tuple"
        },
        {
          "internalType": "address",
          "name": "_receiver",
          "type": "address"
        }
      ],
      "name": "executable",
      "outputs": [
        {
          "internalType": "enum ExecutionState",
          "name": "",
          "type": "uint8"
        }
      ],
      "stateMutability": "view",
      "type": "function"
    },
    {
      "inputs": [
        {
          "internalType": "address",
          "name": "_oapp",
          "type": "address"
        },
        {
          "internalType": "address",
          "name": "_lib",
          "type": "address"
        },
        {
          "internalType": "uint32",
          "name": "_eid",
          "type": "uint32"
        },
        {
          "internalType": "uint32",
          "name": "_configType",
          "type": "uint32"
        }
      ],
      "name": "getConfig",
      "outputs": [
        {
          "internalType": "bytes",
          "name": "config",
          "type": "bytes"
        }
      ],
      "stateMutability": "view",
      "type": "function"
    },
    {
      "inputs": [
        {
          "internalType": "address",
          "name": "_receiver",
          "type": "address"
        },
        {
          "internalType": "uint32",
          "name": "_srcEid",
          "type": "uint32"
        }
      ],
      "name": "getReceiveLibrary",
      "outputs": [
        {
          "internalType": "address",
          "name": "lib",
          "type": "address"
        },
        {
          "internalType": "bool",
          "name": "isDefault",
          "type": "bool"
        }
      ],
      "stateMutability": "view",
      "type": "function"
    },
    {
      "inputs": [],
      "name": "getRegisteredLibraries",
      "outputs": [
        {
          "internalType": "address[]",
          "name": "",
          "type": "address[]"
        }
      ],
      "stateMutability": "view",
      "type": "function"
    },
    {
      "inputs": [],
      "name": "getSendContext",
      "outputs": [
        {
          "internalType": "uint32",
          "name": "",
          "type": "uint32"
        },
        {
          "internalType": "address",
          "name": "",
          "type": "address"
        }
      ],
      "stateMutability": "view",
      "type": "function"
    },
    {
      "inputs": [
        {
          "internalType": "address",
          "name": "_sender",
          "type": "address"
        },
        {
          "internalType": "uint32",
          "name": "_dstEid",
          "type": "uint32"
        }
      ],
      "name": "getSendLibrary",
      "outputs": [
        {
          "internalType": "address",
          "name": "lib",
          "type": "address"
        }
      ],
      "stateMutability": "view",
      "type": "function"
    },
    {
      "inputs": [
        {
          "internalType": "address",
          "name": "_receiver",
          "type": "address"
        },
        {
          "internalType": "uint32",
          "name": "_srcEid",
          "type": "uint32"
        },
        {
          "internalType": "bytes32",
          "name": "_sender",
          "type": "bytes32"
        }
      ],
      "name": "inboundNonce",
      "outputs": [
        {
          "internalType": "uint64",
          "name": "",
          "type": "uint64"
        }
      ],
      "stateMutability": "view",
      "type": "function"
    },
    {
      "inputs": [
        {
          "internalType": "address",
          "name": "receiver",
          "type": "address"
        },
        {
          "internalType": "uint32",
          "name": "srcEid",
          "type": "uint32"
        },
        {
          "internalType": "bytes32",
          "name": "sender",
          "type": "bytes32"
        },
        {
          "internalType": "uint64",
          "name": "inboundNonce",
          "type": "uint64"
        }
      ],
      "name": "inboundPayloadHash",
      "outputs": [
        {
          "internalType": "bytes32",
          "name": "payloadHash",
          "type": "bytes32"
        }
      ],
      "stateMutability": "view",
      "type": "function"
    },
    {
      "inputs": [
        {
          "internalType": "address",
          "name": "_sender",
          "type": "address"
        },
        {
          "internalType": "uint32",
          "name": "_dstEid",
          "type": "uint32"
        }
      ],
      "name": "isDefaultSendLibrary",
      "outputs": [
        {
          "internalType": "bool",
          "name": "",
          "type": "bool"
        }
      ],
      "stateMutability": "view",
      "type": "function"
    },
    {
      "inputs": [
        {
          "internalType": "address",
          "name": "lib",
          "type": "address"
        }
      ],
      "name": "isRegisteredLibrary",
      "outputs": [
        {
          "internalType": "bool",
          "name": "",
          "type": "bool"
        }
      ],
      "stateMutability": "view",
      "type": "function"
    },
    {
      "inputs": [],
      "name": "isSendingMessage",
      "outputs": [
        {
          "internalType": "bool",
          "name": "",
          "type": "bool"
        }
      ],
      "stateMutability": "view",
      "type": "function"
    },
    {
      "inputs": [
        {
          "internalType": "uint32",
          "name": "_eid",
          "type": "uint32"
        }
      ],
      "name": "isSupportedEid",
      "outputs": [
        {
          "internalType": "bool",
          "name": "",
          "type": "bool"
        }
      ],
      "stateMutability": "view",
      "type": "function"
    },
    {
      "inputs": [
        {
          "internalType": "address",
          "name": "_receiver",
          "type": "address"
        },
        {
          "internalType": "uint32",
          "name": "_srcEid",
          "type": "uint32"
        },
        {
          "internalType": "address",
          "name": "_actualReceiveLib",
          "type": "address"
        }
      ],
      "name": "isValidReceiveLibrary",
      "outputs": [
        {
          "internalType": "bool",
          "name": "",
          "type": "bool"
        }
      ],
      "stateMutability": "view",
      "type": "function"
    },
    {
      "inputs": [
        {
          "internalType": "address",
          "name": "receiver",
          "type": "address"
        },
        {
          "internalType": "uint32",
          "name": "srcEid",
          "type": "uint32"
        },
        {
          "internalType": "bytes32",
          "name": "sender",
          "type": "bytes32"
        }
      ],
      "name": "lazyInboundNonce",
      "outputs": [
        {
          "internalType": "uint64",
          "name": "nonce",
          "type": "uint64"
        }
      ],
      "stateMutability": "view",
      "type": "function"
    },
    {
      "inputs": [
        {
          "internalType": "address",
          "name": "_from",
          "type": "address"
        },
        {
          "internalType": "address",
          "name": "_to",
          "type": "address"
        },
        {
          "internalType": "bytes32",
          "name": "_guid",
          "type": "bytes32"
        },
        {
          "internalType": "uint16",
          "name": "_index",
          "type": "uint16"
        },
        {
          "internalType": "bytes",
          "name": "_message",
          "type": "bytes"
        },
        {
          "internalType": "bytes",
          "name": "_extraData",
          "type": "bytes"
        }
      ],
      "name": "lzCompose",
      "outputs": [],
      "stateMutability": "payable",
      "type": "function"
    },
    {
      "inputs": [
        {
          "internalType": "address",
          "name": "_from",
          "type": "address"
        },
        {
          "internalType": "address",
          "name": "_to",
          "type": "address"
        },
        {
          "internalType": "bytes32",
          "name": "_guid",
          "type": "bytes32"
        },
        {
          "internalType": "uint16",
          "name": "_index",
          "type": "uint16"
        },
        {
          "internalType": "uint256",
          "name": "_gas",
          "type": "uint256"
        },
        {
          "internalType": "uint256",
          "name": "_value",
          "type": "uint256"
        },
        {
          "internalType": "bytes",
          "name": "_message",
          "type": "bytes"
        },
        {
          "internalType": "bytes",
          "name": "_extraData",
          "type": "bytes"
        },
        {
          "internalType": "bytes",
          "name": "_reason",
          "type": "bytes"
        }
      ],
      "name": "lzComposeAlert",
      "outputs": [],
      "stateMutability": "nonpayable",
      "type": "function"
    },
    {
      "inputs": [
        {
          "components": [
            {
              "internalType": "uint32",
              "name": "srcEid",
              "type": "uint32"
            },
            {
              "internalType": "bytes32",
              "name": "sender",
              "type": "bytes32"
            },
            {
              "internalType": "uint64",
              "name": "nonce",
              "type": "uint64"
            }
          ],
          "internalType": "struct Origin",
          "name": "_origin",
          "type": "tuple"
        },
        {
          "internalType": "address",
          "name": "_receiver",
          "type": "address"
        },
        {
          "internalType": "bytes32",
          "name": "_guid",
          "type": "bytes32"
        },
        {
          "internalType": "bytes",
          "name": "_message",
          "type": "bytes"
        },
        {
          "internalType": "bytes",
          "name": "_extraData",
          "type": "bytes"
        }
      ],
      "name": "lzReceive",
      "outputs": [],
      "stateMutability": "payable",
      "type": "function"
    },
    {
      "inputs": [
        {
          "components": [
            {
              "internalType": "uint32",
              "name": "srcEid",
              "type": "uint32"
            },
            {
              "internalType": "bytes32",
              "name": "sender",
              "type": "bytes32"
            },
            {
              "internalType": "uint64",
              "name": "nonce",
              "type": "uint64"
            }
          ],
          "internalType": "struct Origin",
          "name": "_origin",
          "type": "tuple"
        },
        {
          "internalType": "address",
          "name": "_receiver",
          "type": "address"
        },
        {
          "internalType": "bytes32",
          "name": "_guid",
          "type": "bytes32"
        },
        {
          "internalType": "uint256",
          "name": "_gas",
          "type": "uint256"
        },
        {
          "internalType": "uint256",
          "name": "_value",
          "type": "uint256"
        },
        {
          "internalType": "bytes",
          "name": "_message",
          "type": "bytes"
        },
        {
          "internalType": "bytes",
          "name": "_extraData",
          "type": "bytes"
        },
        {
          "internalType": "bytes",
          "name": "_reason",
          "type": "bytes"
        }
      ],
      "name": "lzReceiveAlert",
      "outputs": [],
      "stateMutability": "nonpayable",
      "type": "function"
    },
    {
      "inputs": [],
      "name": "lzToken",
      "outputs": [
        {
          "internalType": "address",
          "name": "",
          "type": "address"
        }
      ],
      "stateMutability": "view",
      "type": "function"
    },
    {
      "inputs": [],
      "name": "nativeToken",
      "outputs": [
        {
          "internalType": "address",
          "name": "",
          "type": "address"
        }
      ],
      "stateMutability": "view",
      "type": "function"
    },
    {
      "inputs": [
        {
          "internalType": "address",
          "name": "_sender",
          "type": "address"
        },
        {
          "internalType": "uint32",
          "name": "_dstEid",
          "type": "uint32"
        },
        {
          "internalType": "bytes32",
          "name": "_receiver",
          "type": "bytes32"
        }
      ],
      "name": "nextGuid",
      "outputs": [
        {
          "internalType": "bytes32",
          "name": "",
          "type": "bytes32"
        }
      ],
      "stateMutability": "view",
      "type": "function"
    },
    {
      "inputs": [
        {
          "internalType": "address",
          "name": "_oapp",
          "type": "address"
        },
        {
          "internalType": "uint32",
          "name": "_srcEid",
          "type": "uint32"
        },
        {
          "internalType": "bytes32",
          "name": "_sender",
          "type": "bytes32"
        },
        {
          "internalType": "uint64",
          "name": "_nonce",
          "type": "uint64"
        },
        {
          "internalType": "bytes32",
          "name": "_payloadHash",
          "type": "bytes32"
        }
      ],
      "name": "nilify",
      "outputs": [],
      "stateMutability": "nonpayable",
      "type": "function"
    },
    {
      "inputs": [
        {
          "internalType": "address",
          "name": "sender",
          "type": "address"
        },
        {
          "internalType": "uint32",
          "name": "dstEid",
          "type": "uint32"
        },
        {
          "internalType": "bytes32",
          "name": "receiver",
          "type": "bytes32"
        }
      ],
      "name": "outboundNonce",
      "outputs": [
        {
          "internalType": "uint64",
          "name": "nonce",
          "type": "uint64"
        }
      ],
      "stateMutability": "view",
      "type": "function"
    },
    {
      "inputs": [],
      "name": "owner",
      "outputs": [
        {
          "internalType": "address",
          "name": "",
          "type": "address"
        }
      ],
      "stateMutability": "view",
      "type": "function"
    },
    {
      "inputs": [
        {
          "components": [
            {
              "internalType": "uint32",
              "name": "dstEid",
              "type": "uint32"
            },
            {
              "internalType": "bytes32",
              "name": "receiver",
              "type": "bytes32"
            },
            {
              "internalType": "bytes",
              "name": "message",
              "type": "bytes"
            },
            {
              "internalType": "bytes",
              "name": "options",
              "type": "bytes"
            },
            {
              "internalType": "bool",
              "name": "payInLzToken",
              "type": "bool"
            }
          ],
          "internalType": "struct MessagingParams",
          "name": "_params",
          "type": "tuple"
        },
        {
          "internalType": "address",
          "name": "_sender",
          "type": "address"
        }
      ],
      "name": "quote",
      "outputs": [
        {
          "components": [
            {
              "internalType": "uint256",
              "name": "nativeFee",
              "type": "uint256"
            },
            {
              "internalType": "uint256",
              "name": "lzTokenFee",
              "type": "uint256"
            }
          ],
          "internalType": "struct MessagingFee",
          "name": "",
          "type": "tuple"
        }
      ],
      "stateMutability": "view",
      "type": "function"
    },
    {
      "inputs": [
        {
          "internalType": "address",
          "name": "receiver",
          "type": "address"
        },
        {
          "internalType": "uint32",
          "name": "srcEid",
          "type": "uint32"
        }
      ],
      "name": "receiveLibraryTimeout",
      "outputs": [
        {
          "internalType": "address",
          "name": "lib",
          "type": "address"
        },
        {
          "internalType": "uint256",
          "name": "expiry",
          "type": "uint256"
        }
      ],
      "stateMutability": "view",
      "type": "function"
    },
    {
      "inputs": [
        {
          "internalType": "address",
          "name": "_token",
          "type": "address"
        },
        {
          "internalType": "address",
          "name": "_to",
          "type": "address"
        },
        {
          "internalType": "uint256",
          "name": "_amount",
          "type": "uint256"
        }
      ],
      "name": "recoverToken",
      "outputs": [],
      "stateMutability": "nonpayable",
      "type": "function"
    },
    {
      "inputs": [
        {
          "internalType": "address",
          "name": "_lib",
          "type": "address"
        }
      ],
      "name": "registerLibrary",
      "outputs": [],
      "stateMutability": "nonpayable",
      "type": "function"
    },
    {
      "inputs": [],
      "name": "renounceOwnership",
      "outputs": [],
      "stateMutability": "nonpayable",
      "type": "function"
    },
    {
      "inputs": [
        {
          "components": [
            {
              "internalType": "uint32",
              "name": "dstEid",
              "type": "uint32"
            },
            {
              "internalType": "bytes32",
              "name": "receiver",
              "type": "bytes32"
            },
            {
              "internalType": "bytes",
              "name": "message",
              "type": "bytes"
            },
            {
              "internalType": "bytes",
              "name": "options",
              "type": "bytes"
            },
            {
              "internalType": "bool",
              "name": "payInLzToken",
              "type": "bool"
            }
          ],
          "internalType": "struct MessagingParams",
          "name": "_params",
          "type": "tuple"
        },
        {
          "internalType": "address",
          "name": "_refundAddress",
          "type": "address"
        }
      ],
      "name": "send",
      "outputs": [
        {
          "components": [
            {
              "internalType": "bytes32",
              "name": "guid",
              "type": "bytes32"
            },
            {
              "internalType": "uint64",
              "name": "nonce",
              "type": "uint64"
            },
            {
              "components": [
                {
                  "internalType": "uint256",
                  "name": "nativeFee",
                  "type": "uint256"
                },
                {
                  "internalType": "uint256",
                  "name": "lzTokenFee",
                  "type": "uint256"
                }
              ],
              "internalType": "struct MessagingFee",
              "name": "fee",
              "type": "tuple"
            }
          ],
          "internalType": "struct MessagingReceipt",
          "name": "",
          "type": "tuple"
        }
      ],
      "stateMutability": "payable",
      "type": "function"
    },
    {
      "inputs": [
        {
          "internalType": "address",
          "name": "_to",
          "type": "address"
        },
        {
          "internalType": "bytes32",
          "name": "_guid",
          "type": "bytes32"
        },
        {
          "internalType": "uint16",
          "name": "_index",
          "type": "uint16"
        },
        {
          "internalType": "bytes",
          "name": "_message",
          "type": "bytes"
        }
      ],
      "name": "sendCompose",
      "outputs": [],
      "stateMutability": "nonpayable",
      "type": "function"
    },
    {
      "inputs": [
        {
          "internalType": "address",
          "name": "_oapp",
          "type": "address"
        },
        {
          "internalType": "address",
          "name": "_lib",
          "type": "address"
        },
        {
          "components": [
            {
              "internalType": "uint32",
              "name": "eid",
              "type": "uint32"
            },
            {
              "internalType": "uint32",
              "name": "configType",
              "type": "uint32"
            },
            {
              "internalType": "bytes",
              "name": "config",
              "type": "bytes"
            }
          ],
          "internalType": "struct SetConfigParam[]",
          "name": "_params",
          "type": "tuple[]"
        }
      ],
      "name": "setConfig",
      "outputs": [],
      "stateMutability": "nonpayable",
      "type": "function"
    },
    {
      "inputs": [
        {
          "internalType": "uint32",
          "name": "_eid",
          "type": "uint32"
        },
        {
          "internalType": "address",
          "name": "_newLib",
          "type": "address"
        },
        {
          "internalType": "uint256",
          "name": "_gracePeriod",
          "type": "uint256"
        }
      ],
      "name": "setDefaultReceiveLibrary",
      "outputs": [],
      "stateMutability": "nonpayable",
      "type": "function"
    },
    {
      "inputs": [
        {
          "internalType": "uint32",
          "name": "_eid",
          "type": "uint32"
        },
        {
          "internalType": "address",
          "name": "_lib",
          "type": "address"
        },
        {
          "internalType": "uint256",
          "name": "_expiry",
          "type": "uint256"
        }
      ],
      "name": "setDefaultReceiveLibraryTimeout",
      "outputs": [],
      "stateMutability": "nonpayable",
      "type": "function"
    },
    {
      "inputs": [
        {
          "internalType": "uint32",
          "name": "_eid",
          "type": "uint32"
        },
        {
          "internalType": "address",
          "name": "_newLib",
          "type": "address"
        }
      ],
      "name": "setDefaultSendLibrary",
      "outputs": [],
      "stateMutability": "nonpayable",
      "type": "function"
    },
    {
      "inputs": [
        {
          "internalType": "address",
          "name": "_delegate",
          "type": "address"
        }
      ],
      "name": "setDelegate",
      "outputs": [],
      "stateMutability": "nonpayable",
      "type": "function"
    },
    {
      "inputs": [
        {
          "internalType": "address",
          "name": "_lzToken",
          "type": "address"
        }
      ],
      "name": "setLzToken",
      "outputs": [],
      "stateMutability": "nonpayable",
      "type": "function"
    },
    {
      "inputs": [
        {
          "internalType": "address",
          "name": "_oapp",
          "type": "address"
        },
        {
          "internalType": "uint32",
          "name": "_eid",
          "type": "uint32"
        },
        {
          "internalType": "address",
          "name": "_newLib",
          "type": "address"
        },
        {
          "internalType": "uint256",
          "name": "_gracePeriod",
          "type": "uint256"
        }
      ],
      "name": "setReceiveLibrary",
      "outputs": [],
      "stateMutability": "nonpayable",
      "type": "function"
    },
    {
      "inputs": [
        {
          "internalType": "address",
          "name": "_oapp",
          "type": "address"
        },
        {
          "internalType": "uint32",
          "name": "_eid",
          "type": "uint32"
        },
        {
          "internalType": "address",
          "name": "_lib",
          "type": "address"
        },
        {
          "internalType": "uint256",
          "name": "_expiry",
          "type": "uint256"
        }
      ],
      "name": "setReceiveLibraryTimeout",
      "outputs": [],
      "stateMutability": "nonpayable",
      "type": "function"
    },
    {
      "inputs": [
        {
          "internalType": "address",
          "name": "_oapp",
          "type": "address"
        },
        {
          "internalType": "uint32",
          "name": "_eid",
          "type": "uint32"
        },
        {
          "internalType": "address",
          "name": "_newLib",
          "type": "address"
        }
      ],
      "name": "setSendLibrary",
      "outputs": [],
      "stateMutability": "nonpayable",
      "type": "function"
    },
    {
      "inputs": [
        {
          "internalType": "address",
          "name": "_oapp",
          "type": "address"
        },
        {
          "internalType": "uint32",
          "name": "_srcEid",
          "type": "uint32"
        },
        {
          "internalType": "bytes32",
          "name": "_sender",
          "type": "bytes32"
        },
        {
          "internalType": "uint64",
          "name": "_nonce",
          "type": "uint64"
        }
      ],
      "name": "skip",
      "outputs": [],
      "stateMutability": "nonpayable",
      "type": "function"
    },
    {
      "inputs": [
        {
          "internalType": "address",
          "name": "newOwner",
          "type": "address"
        }
      ],
      "name": "transferOwnership",
      "outputs": [],
      "stateMutability": "nonpayable",
      "type": "function"
    },
    {
      "inputs": [
        {
          "components": [
            {
              "internalType": "uint32",
              "name": "srcEid",
              "type": "uint32"
            },
            {
              "internalType": "bytes32",
              "name": "sender",
              "type": "bytes32"
            },
            {
              "internalType": "uint64",
              "name": "nonce",
              "type": "uint64"
            }
          ],
          "internalType": "struct Origin",
          "name": "_origin",
          "type": "tuple"
        },
        {
          "internalType": "address",
          "name": "_receiver",
          "type": "address"
        },
        {
          "internalType": "address",
          "name": "_receiveLib",
          "type": "address"
        },
        {
          "internalType": "bytes32",
          "name": "_payloadHash",
          "type": "bytes32"
        }
      ],
      "name": "verifiable",
      "outputs": [
        {
          "internalType": "bool",
          "name": "",
          "type": "bool"
        }
      ],
      "stateMutability": "view",
      "type": "function"
    },
    {
      "inputs": [
        {
          "components": [
            {
              "internalType": "uint32",
              "name": "srcEid",
              "type": "uint32"
            },
            {
              "internalType": "bytes32",
              "name": "sender",
              "type": "bytes32"
            },
            {
              "internalType": "uint64",
              "name": "nonce",
              "type": "uint64"
            }
          ],
          "internalType": "struct Origin",
          "name": "_origin",
          "type": "tuple"
        },
        {
          "internalType": "address",
          "name": "_receiver",
          "type": "address"
        },
        {
          "internalType": "bytes32",
          "name": "_payloadHash",
          "type": "bytes32"
        }
      ],
      "name": "verify",
      "outputs": [],
      "stateMutability": "nonpayable",
      "type": "function"
    }
  ],
  "bytecode": "0x60c06040526001600d553480156200001657600080fd5b5060405162006615380380620066158339810160408190526200003991620002d6565b816200004533620000a6565b63ffffffff166080526040516200005c90620002c8565b604051809103906000f08015801562000079573d6000803e3d6000fd5b506001600160a01b031660a08190526200009390620000f6565b6200009e81620000a6565b505062000353565b600080546001600160a01b038381166001600160a01b0319831681178455604051919092169283917f8be0079c531659141344cd1fd0a4f28419497f9722a3daafe3b4186f6b6457e09190a35050565b6200010062000267565b6040516301ffc9a760e01b81526325fc096160e21b60048201526001600160a01b038216906301ffc9a790602401602060405180830381865afa1580156200014c573d6000803e3d6000fd5b505050506040513d601f19601f8201168201806040525081019062000172919062000328565b62000190576040516331d5783360e11b815260040160405180910390fd5b6001600160a01b03811660009081526005602052604090205460ff1615620001cb57604051630ea075bf60e21b815260040160405180910390fd5b6001600160a01b0381166000818152600560209081526040808320805460ff191660019081179091556004805491820181559093527f8a35acfbc15ff81a39ae7d344fd709f28e8600b4aa8c65c6b64bfe7fe36bd19b90920180546001600160a01b0319168417905590519182527f6b374d56679ca9463f27c85c6311e2bb7fde69bf201d3da39d53f10bd9d78af5910160405180910390a150565b6000546001600160a01b03163314620002c65760405162461bcd60e51b815260206004820181905260248201527f4f776e61626c653a2063616c6c6572206973206e6f7420746865206f776e6572604482015260640160405180910390fd5b565b61028f806200638683390190565b60008060408385031215620002ea57600080fd5b825163ffffffff81168114620002ff57600080fd5b60208401519092506001600160a01b03811681146200031d57600080fd5b809150509250929050565b6000602082840312156200033b57600080fd5b815180151581146200034c57600080fd5b9392505050565b60805160a051615fea6200039c60003960006107de01526000818161055f01528181612fcd015281816139160152818161397d0152818161422001526142870152615fea6000f3fe6080604052600436106103605760003560e01c80639132e5c3116101c6578063ca5eb5e1116100f7578063e1758bd811610095578063e8964e811161006f578063e8964e8114610c0f578063ef667aa114610c2f578063f2fde38b14610c7a578063f64be4c714610c9a57600080fd5b8063e1758bd814610bbb578063e1e3a7df14610bcf578063e4fe1d9414610bef57600080fd5b8063d70b8902116100d1578063d70b890214610af2578063dc706a6214610b12578063dc93c8a214610b42578063ddc28c5814610b8e57600080fd5b8063ca5eb5e114610a5b578063cb5026b914610abd578063d4b4ec8f14610ad257600080fd5b8063a7229fd911610164578063aafea3121161013e578063aafea312146109b4578063b96a277f146109d4578063c28e0eed146109f4578063c9fc7bcd14610a1457600080fd5b8063a7229fd914610954578063a825d74714610974578063aafe5e071461099457600080fd5b80639c6d7340116101a05780639c6d7340146108ac5780639d7f9775146108f4578063a0dd43fc14610914578063a718531b1461093457600080fd5b80639132e5c31461085757806391d20fa1146108795780639535ff301461088c57600080fd5b8063587cde1e116102a05780636e83f5bb1161023e578063733180911161021857806373318091146107cc57806379624ca9146108005780637cb59012146108195780638da5cb5b1461083957600080fd5b80636e83f5bb146107225780636f50a80314610781578063715018a6146107b757600080fd5b8063697fe6b61161027a578063697fe6b6146106a25780636a14d715146106c25780636bf73fa3146106e25780636dbd9f901461070257600080fd5b8063587cde1e146105c35780635b17bb70146106115780636750cd4c1461067257600080fd5b80632baf0be71161030d578063402f8468116102e7578063402f8468146104ee57806340f806831461052d578063416ecebf1461054d5780634b4b2efb1461059657600080fd5b80632baf0be7146104455780632e80fbf31461048757806335d330b0146104a757600080fd5b80632637a4501161033e5780632637a450146103d85780632a56c1b0146103f85780632b3197b91461041857600080fd5b80630c0c389e1461036557806314f651a91461037a578063183c834f146103b8575b600080fd5b610378610373366004614d66565b610cd0565b005b34801561038657600080fd5b5061038f610de7565b6040805163ffffffff90931683526001600160a01b039091166020830152015b60405180910390f35b3480156103c457600080fd5b506103786103d3366004614e16565b610e19565b6103eb6103e6366004614e61565b6111a4565b6040516103af9190614eb4565b34801561040457600080fd5b50610378610413366004614ef7565b61130d565b34801561042457600080fd5b50610438610433366004614f67565b6113cb565b6040516103af9190615029565b34801561045157600080fd5b506104797fffffffffffffffffffffffffffffffffffffffffffffffffffffffffffffffff81565b6040519081526020016103af565b34801561049357600080fd5b506103786104a2366004615054565b6114e6565b3480156104b357600080fd5b506104796104c23660046150bb565b600c60209081526000948552604080862082529385528385208152918452828420909152825290205481565b3480156104fa57600080fd5b5061050e6105093660046150fd565b6116bd565b604080516001600160a01b0390931683529015156020830152016103af565b34801561053957600080fd5b50610378610548366004615054565b611754565b34801561055957600080fd5b506105817f000000000000000000000000000000000000000000000000000000000000000081565b60405163ffffffff90911681526020016103af565b3480156105a257600080fd5b506105b66105b1366004615127565b611904565b6040516103af9190615181565b3480156105cf57600080fd5b506105f96105de3660046151c2565b600f602052600090815260409020546001600160a01b031681565b6040516001600160a01b0390911681526020016103af565b34801561061d57600080fd5b5061065961062c3660046151dd565b600160209081526000938452604080852082529284528284209052825290205467ffffffffffffffff1681565b60405167ffffffffffffffff90911681526020016103af565b34801561067e57600080fd5b5061069261068d366004615219565b611aa8565b60405190151581526020016103af565b3480156106ae57600080fd5b506103786106bd366004615234565b611af4565b3480156106ce57600080fd5b506103786106dd366004614e16565b611b69565b3480156106ee57600080fd5b506103786106fd366004615332565b612073565b34801561070e57600080fd5b5061037861071d366004615416565b6120dd565b34801561072e57600080fd5b5061076261073d366004615219565b600b60205260009081526040902080546001909101546001600160a01b039091169082565b604080516001600160a01b0390931683526020830191909152016103af565b34801561078d57600080fd5b506105f961079c366004615219565b600a602052600090815260409020546001600160a01b031681565b3480156107c357600080fd5b506103786121b1565b3480156107d857600080fd5b506105f97f000000000000000000000000000000000000000000000000000000000000000081565b34801561080c57600080fd5b50600d5460011415610692565b34801561082557600080fd5b506103786108343660046154a7565b6121c5565b34801561084557600080fd5b506000546001600160a01b03166105f9565b34801561086357600080fd5b5061086c6122ca565b6040516103af91906154f9565b610378610887366004615546565b61232c565b34801561089857600080fd5b506103786108a73660046155f1565b6124ee565b3480156108b857600080fd5b506106596108c73660046151dd565b600360209081526000938452604080852082529284528284209052825290205467ffffffffffffffff1681565b34801561090057600080fd5b5061069261090f3660046155f1565b6127f6565b34801561092057600080fd5b5061065961092f3660046151dd565b6128d2565b34801561094057600080fd5b5061037861094f366004615634565b61296b565b34801561096057600080fd5b5061037861096f366004615660565b612d7d565b34801561098057600080fd5b5061037861098f36600461567e565b612d95565b3480156109a057600080fd5b506104796109af3660046151dd565b612f2d565b3480156109c057600080fd5b506103786109cf3660046156bb565b61303c565b3480156109e057600080fd5b506105f96109ef3660046150fd565b6132fc565b348015610a0057600080fd5b50610378610a0f3660046151c2565b613384565b348015610a2057600080fd5b50610479610a2f3660046156d7565b600260209081526000948552604080862082529385528385208152918452828420909152825290205481565b348015610a6757600080fd5b50610378610a763660046151c2565b336000908152600f6020526040902080547fffffffffffffffffffffffff0000000000000000000000000000000000000000166001600160a01b0392909216919091179055565b348015610ac957600080fd5b50610479600081565b348015610ade57600080fd5b50610378610aed366004615634565b6133f9565b348015610afe57600080fd5b50610378610b0d3660046156d7565b6136fd565b348015610b1e57600080fd5b50610692610b2d3660046151c2565b60056020526000908152604090205460ff1681565b348015610b4e57600080fd5b50610692610b5d3660046150fd565b6001600160a01b03918216600090815260066020908152604080832063ffffffff9490941683529290522054161590565b348015610b9a57600080fd5b50610bae610ba9366004614e61565b613820565b6040516103af9190615719565b348015610bc757600080fd5b5060006105f9565b348015610bdb57600080fd5b50610692610bea366004615730565b613b4b565b348015610bfb57600080fd5b50600e546105f9906001600160a01b031681565b348015610c1b57600080fd5b50610378610c2a3660046151c2565b613c19565b348015610c3b57600080fd5b50610762610c4a3660046150fd565b6008602090815260009283526040808420909152908252902080546001909101546001600160a01b039091169082565b348015610c8657600080fd5b50610378610c953660046151c2565b613e17565b348015610ca657600080fd5b506105f9610cb5366004615219565b6009602052600090815260409020546001600160a01b031681565b610d1f86610ce160208a018a615219565b60208a0135610cf660608c0160408d0161577c565b898989604051602001610d0b93929190615797565b604051602081830303815290604052613ec1565b506040517f13137d650000000000000000000000000000000000000000000000000000000081526001600160a01b038716906313137d65903490610d73908b908a908a908a9033908b908b90600401615834565b6000604051808303818588803b158015610d8c57600080fd5b505af1158015610da0573d6000803e3d6000fd5b50505050507f3cd5e48f9730b129dc7550f0fcea9c767b7be37837cd10e55eb35f734f4bca048787604051610dd692919061588b565b60405180910390a150505050505050565b600080610df7600d546001141590565b610e0357600080610e11565b610e11600d5460a081901c91565b915091509091565b6001600160a01b038216600090815260056020526040902054829060ff16610e6d576040517f8cd5e2c600000000000000000000000000000000000000000000000000000000815260040160405180910390fd5b826001600160a01b03811615610f29576000816001600160a01b0316631881d94d6040518163ffffffff1660e01b8152600401602060405180830381865afa158015610ebd573d6000803e3d6000fd5b505050506040513d601f19601f82011682018060405250810190610ee191906158af565b6002811115610ef257610ef2615152565b03610f29576040517f7865362200000000000000000000000000000000000000000000000000000000815260040160405180910390fd5b83856001600160a01b03821615610ff7576040517f6750cd4c00000000000000000000000000000000000000000000000000000000815263ffffffff821660048201526001600160a01b03831690636750cd4c90602401602060405180830381865afa158015610f9d573d6000803e3d6000fd5b505050506040513d601f19601f82011682018060405250810190610fc191906158de565b610ff7576040517f9153304b00000000000000000000000000000000000000000000000000000000815260040160405180910390fd5b61100088614104565b600061100c89896116bd565b9150508015611047576040517f78142dd200000000000000000000000000000000000000000000000000000000815260040160405180910390fd5b856000036110a7576001600160a01b038916600090815260086020908152604080832063ffffffff8c168452909152812080547fffffffffffffffffffffffff00000000000000000000000000000000000000001681556001015561113e565b4386116110e0576040517fd36c850000000000000000000000000000000000000000000000000000000000815260040160405180910390fd5b6001600160a01b03898116600090815260086020908152604080832063ffffffff8d168452909152902080547fffffffffffffffffffffffff0000000000000000000000000000000000000000169189169190911781556001018690555b604080516001600160a01b03808c16825263ffffffff8b166020830152891691810191909152606081018790527f4e0a5bbfa0c11a64effb1ada324b5437a17272e1aed9320398715ef71bb20928906080015b60405180910390a1505050505050505050565b6111ac614cad565b6111b96020840184615219565b336001600d54146111f6576040517f9633fed300000000000000000000000000000000000000000000000000000000815260040160405180910390fd5b77ffffffff000000000000000000000000000000000000000060a083811b919091166001600160a01b03831617600d55611235908601608087016158fb565b801561124a5750600e546001600160a01b0316155b15611281576040517f5373352a00000000000000000000000000000000000000000000000000000000815260040160405180910390fd5b60008061128e338861416e565b91509150600061129b3490565b905060006112b76112b260a08b0160808c016158fb565b614452565b90506112c884604001518383614520565b600e546040850151602001516112ea916001600160a01b03169083868c614587565b6040840151516112fc9083858b6145b4565b50506001600d555095945050505050565b61131685614104565b600083838360405160200161132d93929190615797565b604080517fffffffffffffffffffffffffffffffffffffffffffffffffffffffffffffffe081840301815291905290506113898661136e6020880188615219565b602088013561138360608a0160408b0161577c565b85613ec1565b507f3cd5e48f9730b129dc7550f0fcea9c767b7be37837cd10e55eb35f734f4bca0485876040516113bb92919061588b565b60405180910390a1505050505050565b6001600160a01b038316600090815260056020526040902054606090849060ff16611422576040517f8cd5e2c600000000000000000000000000000000000000000000000000000000815260040160405180910390fd5b6040517f9c33abf700000000000000000000000000000000000000000000000000000000815263ffffffff80861660048301526001600160a01b0388811660248401529085166044830152861690639c33abf790606401600060405180830381865afa158015611496573d6000803e3d6000fd5b505050506040513d6000823e601f3d9081017fffffffffffffffffffffffffffffffffffffffffffffffffffffffffffffffe01682016040526114dc91908101906159e3565b9695505050505050565b6114ef85614104565b6001600160a01b038516600090815260026020908152604080832063ffffffff881684528252808320868452825280832067ffffffffffffffff8616845290915290205481811461157b576040517fe4bb0ca100000000000000000000000000000000000000000000000000000000815260048101829052602481018390526044015b60405180910390fd5b6001600160a01b038616600090815260016020908152604080832063ffffffff89168452825280832087845290915290205467ffffffffffffffff908116908416118015906115c8575080155b1561160b576040517f5c33785a00000000000000000000000000000000000000000000000000000000815267ffffffffffffffff84166004820152602401611572565b6001600160a01b038616600081815260026020908152604080832063ffffffff8a16808552908352818420898552835281842067ffffffffffffffff8916808652908452938290207fffffffffffffffffffffffffffffffffffffffffffffffffffffffffffffffff905581519081529182018890528101929092526060820152608081018390527faf0450c392c4f702515a457a362328c8aa21916048ca6d0419e248b30cb552929060a0016113bb565b6001600160a01b03808316600090815260076020908152604080832063ffffffff86168452909152812054909116908161174d5763ffffffff83166000908152600a60205260409020546001600160a01b0316915081611749576040517ffbc6a95a00000000000000000000000000000000000000000000000000000000815260040160405180910390fd5b5060015b9250929050565b61175d85614104565b6001600160a01b038516600090815260026020908152604080832063ffffffff881684528252808320868452825280832067ffffffffffffffff861684529091529020548181146117e4576040517fe4bb0ca10000000000000000000000000000000000000000000000000000000081526004810182905260248101839052604401611572565b80158061182f57506001600160a01b038616600090815260016020908152604080832063ffffffff89168452825280832087845290915290205467ffffffffffffffff908116908416115b15611872576040517f5c33785a00000000000000000000000000000000000000000000000000000000815267ffffffffffffffff84166004820152602401611572565b6001600160a01b038616600081815260026020908152604080832063ffffffff8a16808552908352818420898552835281842067ffffffffffffffff89168086529084528285209490945581519081529182018890528101929092526060820152608081018390527f7f68a37a6e69a0de35024a234558f9efe4b33b58657753d21eaaa82d51c3510e9060a0016113bb565b6001600160a01b038116600090815260026020908152604082208291829061192e90870187615219565b63ffffffff1663ffffffff1681526020019081526020016000206000856020013581526020019081526020016000206000856040016020810190611972919061577c565b67ffffffffffffffff168152602081019190915260400160002054905080158015611a1157506001600160a01b0383166000908152600160209081526040822091906119c090870187615219565b63ffffffff16815260208082019290925260409081016000908120878401358252909252908190205467ffffffffffffffff1690611a04906060870190870161577c565b67ffffffffffffffff1611155b15611a20576002915050611aa2565b7fffffffffffffffffffffffffffffffffffffffffffffffffffffffffffffffff8114801590611a8d5750611a6683611a5c6020870187615219565b86602001356128d2565b67ffffffffffffffff16611a80606086016040870161577c565b67ffffffffffffffff1611155b15611a9c576001915050611aa2565b60009150505b92915050565b63ffffffff81166000908152600960205260408120546001600160a01b031615801590611aa257505063ffffffff166000908152600a60205260409020546001600160a01b0316151590565b336001600160a01b03168b6001600160a01b03168d6001600160a01b03167f8a0b1dce321c5c5fb42349bce46d18087c04140de520917661fb923e44a904b98d8d8d8d8d8d8d8d8d8d604051611b539a99989796959493929190615a18565b60405180910390a4505050505050505050505050565b6001600160a01b038216600090815260056020526040902054829060ff16158015611b9c57506001600160a01b03811615155b15611bd3576040517f4fb58e1500000000000000000000000000000000000000000000000000000000815260040160405180910390fd5b826001600160a01b03811615611c8f576000816001600160a01b0316631881d94d6040518163ffffffff1660e01b8152600401602060405180830381865afa158015611c23573d6000803e3d6000fd5b505050506040513d601f19601f82011682018060405250810190611c4791906158af565b6002811115611c5857611c58615152565b03611c8f576040517f7865362200000000000000000000000000000000000000000000000000000000815260040160405180910390fd5b83856001600160a01b03821615611d5d576040517f6750cd4c00000000000000000000000000000000000000000000000000000000815263ffffffff821660048201526001600160a01b03831690636750cd4c90602401602060405180830381865afa158015611d03573d6000803e3d6000fd5b505050506040513d601f19601f82011682018060405250810190611d2791906158de565b611d5d576040517f9153304b00000000000000000000000000000000000000000000000000000000815260040160405180910390fd5b611d6688614104565b6001600160a01b03808916600090815260076020908152604080832063ffffffff8c16845290915290205481169087168103611dce576040517fc23f6ccb00000000000000000000000000000000000000000000000000000000815260040160405180910390fd5b6001600160a01b03898116600081815260076020908152604080832063ffffffff8e168085529083529281902080547fffffffffffffffffffffffff0000000000000000000000000000000000000000168d87169081179091558151948552918401929092529284169082015260608101919091527fc0833c35bb1d0beadca36bed54c7098819e109542a6d233d33c7c2039c8ec9aa9060800160405180910390a18515611fc8576001600160a01b0381161580611e9357506001600160a01b038716155b15611eca576040517f78142dd200000000000000000000000000000000000000000000000000000000815260040160405180910390fd5b60006040518060400160405280836001600160a01b031681526020018843611ef29190615ab0565b90526001600160a01b03808c16600090815260086020908152604080832063ffffffff8f1684528252918290208451815494167fffffffffffffffffffffffff00000000000000000000000000000000000000009094169390931783558301516001909201829055519192507f4e0a5bbfa0c11a64effb1ada324b5437a17272e1aed9320398715ef71bb2092891611fba918d918d9187916001600160a01b03948516815263ffffffff93909316602084015292166040820152606081019190915260800190565b60405180910390a150612068565b6001600160a01b03898116600081815260086020908152604080832063ffffffff8e1680855290835281842080547fffffffffffffffffffffffff00000000000000000000000000000000000000001681556001018490558151948552918401919091529284169282019290925260608101919091527f4e0a5bbfa0c11a64effb1ada324b5437a17272e1aed9320398715ef71bb2092890608001611191565b505050505050505050565b336001600160a01b03168a6001600160a01b03167f7edfa10fe10193301ad8a8bea7e968c7bcabcc64981f368e3aeada40ce26ae2c8d8c8c8c8c8c8c8c8c8c6040516120c89a99989796959493929190615ac3565b60405180910390a35050505050505050505050565b6001600160a01b038316600090815260056020526040902054839060ff16612131576040517f8cd5e2c600000000000000000000000000000000000000000000000000000000815260040160405180910390fd5b61213a85614104565b6040517f20efd7220000000000000000000000000000000000000000000000000000000081526001600160a01b038516906320efd7229061218390889087908790600401615b22565b600060405180830381600087803b15801561219d57600080fd5b505af1158015612068573d6000803e3d6000fd5b6121b96145de565b6121c36000614652565b565b336000908152600c602090815260408083206001600160a01b03891684528252808320878452825280832061ffff8716845290915290205415612234576040517f895fdbee00000000000000000000000000000000000000000000000000000000815260040160405180910390fd5b8181604051612244929190615c73565b60408051918290038220336000818152600c60209081528482206001600160a01b038c16835281528482208a8352815284822061ffff8a168352905292909220557f3d52ff888d033fd3dd1d8057da59e850c91d91a72c41dfa445b247dfedeb6dc1916122bb919088908890889088908890615c83565b60405180910390a15050505050565b6060600480548060200260200160405190810160405280929190818152602001828054801561232257602002820191906000526020600020905b81546001600160a01b03168152600190910190602001808311612304575b5050505050905090565b6001600160a01b038089166000908152600c60209081526040808320938b168352928152828220898352815282822061ffff8916835290528181205491516123779087908790615c73565b604051809103902090508082146123c4576040517f9e3e05830000000000000000000000000000000000000000000000000000000081526004810183905260248101829052604401611572565b6001600160a01b03808b166000908152600c60209081526040808320938d168084529382528083208c8452825280832061ffff8c1684529091529081902060019055517fd0a1026000000000000000000000000000000000000000000000000000000000815263d0a1026090349061244c908e908d908c908c9033908d908d90600401615ccc565b6000604051808303818588803b15801561246557600080fd5b505af1158015612479573d6000803e3d6000fd5b50505050507e36c98efcf9e6641dfbc9051f66f405253e8e0c2ab4a24dccda15595b7378c88a8a8a8a6040516124da94939291906001600160a01b039485168152929093166020830152604082015261ffff91909116606082015260800190565b60405180910390a150505050505050505050565b6001600160a01b038116600090815260056020526040902054819060ff1615801561252157506001600160a01b03811615155b15612558576040517f4fb58e1500000000000000000000000000000000000000000000000000000000815260040160405180910390fd5b816001600160a01b03811615612614576001816001600160a01b0316631881d94d6040518163ffffffff1660e01b8152600401602060405180830381865afa1580156125a8573d6000803e3d6000fd5b505050506040513d601f19601f820116820180604052508101906125cc91906158af565b60028111156125dd576125dd615152565b03612614576040517f3885d60300000000000000000000000000000000000000000000000000000000815260040160405180910390fd5b82846001600160a01b038216156126e2576040517f6750cd4c00000000000000000000000000000000000000000000000000000000815263ffffffff821660048201526001600160a01b03831690636750cd4c90602401602060405180830381865afa158015612688573d6000803e3d6000fd5b505050506040513d601f19601f820116820180604052508101906126ac91906158de565b6126e2576040517f9153304b00000000000000000000000000000000000000000000000000000000815260040160405180910390fd5b6126eb87614104565b6001600160a01b03808816600090815260066020908152604080832063ffffffff8b16845290915290205481169086168103612753576040517fc23f6ccb00000000000000000000000000000000000000000000000000000000815260040160405180910390fd5b6001600160a01b03888116600081815260066020908152604080832063ffffffff8d168085529083529281902080547fffffffffffffffffffffffff000000000000000000000000000000000000000016958c1695861790558051938452908301919091528101919091527f4cff966ebee29a156dcb34cf72c1d06231fb1777f6bdf6e8089819232f002b1c906060015b60405180910390a15050505050505050565b600080600061280586866116bd565b91509150816001600160a01b0316846001600160a01b03160361282d576001925050506128cb565b600081612862576001600160a01b038716600090815260086020908152604080832063ffffffff8a1684529091529020612878565b63ffffffff86166000908152600b602052604090205b6040805180820190915281546001600160a01b03908116808352600190930154602083015290925086161480156128b25750438160200151115b156128c357600193505050506128cb565b600093505050505b9392505050565b6001600160a01b038316600090815260016020908152604080832063ffffffff86168452825280832084845290915281205467ffffffffffffffff165b6001600160a01b038516600090815260026020908152604080832063ffffffff881684528252808320868452825280832067ffffffffffffffff60018601168452909152902054156129635760010161290f565b949350505050565b6129736145de565b6001600160a01b038216600090815260056020526040902054829060ff166129c7576040517f8cd5e2c600000000000000000000000000000000000000000000000000000000815260040160405180910390fd5b826001600160a01b03811615612a83576000816001600160a01b0316631881d94d6040518163ffffffff1660e01b8152600401602060405180830381865afa158015612a17573d6000803e3d6000fd5b505050506040513d601f19601f82011682018060405250810190612a3b91906158af565b6002811115612a4c57612a4c615152565b03612a83576040517f7865362200000000000000000000000000000000000000000000000000000000815260040160405180910390fd5b83856001600160a01b03821615612b51576040517f6750cd4c00000000000000000000000000000000000000000000000000000000815263ffffffff821660048201526001600160a01b03831690636750cd4c90602401602060405180830381865afa158015612af7573d6000803e3d6000fd5b505050506040513d601f19601f82011682018060405250810190612b1b91906158de565b612b51576040517f9153304b00000000000000000000000000000000000000000000000000000000815260040160405180910390fd5b63ffffffff87166000908152600a60205260409020546001600160a01b039081169087168103612bad576040517fc23f6ccb00000000000000000000000000000000000000000000000000000000815260040160405180910390fd5b63ffffffff88166000818152600a602090815260409182902080547fffffffffffffffffffffffff0000000000000000000000000000000000000000166001600160a01b038c8116918217909255835194855290851691840191909152908201527f9914edfad6b7eac2e388f49bae232bd0e1954fbe92f5ed1ab975fc270f27cea59060600160405180910390a18515612cec5763ffffffff88166000908152600b6020526040902080547fffffffffffffffffffffffff0000000000000000000000000000000000000000166001600160a01b038316178155612c918743615ab0565b600182018190556040805163ffffffff8c1681526001600160a01b038516602082015280820192909252517f55b28633cdb29709386f555dfc54418592ad475ce7a65a78ac5928af60ffb8f89181900360600190a150612d73565b63ffffffff88166000818152600b6020908152604080832080547fffffffffffffffffffffffff000000000000000000000000000000000000000016815560010183905580519384526001600160a01b038516918401919091528201527f55b28633cdb29709386f555dfc54418592ad475ce7a65a78ac5928af60ffb8f8906060016127e4565b5050505050505050565b612d856145de565b612d908383836146ba565b505050565b612dac82612da66020860186615219565b336127f6565b612de2576040517f82ceb50e00000000000000000000000000000000000000000000000000000000815260040160405180910390fd5b6001600160a01b03821660009081526001602090815260408220908290612e0b90870187615219565b63ffffffff1681526020808201929092526040908101600090812087840135825290925290205467ffffffffffffffff169050612e498484836146dd565b612e7f576040517f098c20b500000000000000000000000000000000000000000000000000000000815260040160405180910390fd5b612e8a848483614778565b612ec0576040517f2923b32a00000000000000000000000000000000000000000000000000000000815260040160405180910390fd5b612eec83612ed16020870187615219565b6020870135612ee66060890160408a0161577c565b86614838565b7f0d87345f3d1c929caba93e1c3821b54ff3512e12b66aa3cfe54b6bcbc17e59b4848484604051612f1f93929190615d20565b60405180910390a150505050565b6001600160a01b038316600090815260036020908152604080832063ffffffff8616845282528083208484529091528120548190612f769067ffffffffffffffff166001615d48565b604080517fffffffffffffffff00000000000000000000000000000000000000000000000060c084901b166020808301919091527fffffffff000000000000000000000000000000000000000000000000000000007f000000000000000000000000000000000000000000000000000000000000000060e090811b821660288501526001600160a01b038b16602c85015289901b16604c830152605080830188905283518084039091018152607090920190925280519101209091505b95945050505050565b6130446145de565b6001600160a01b038116600090815260056020526040902054819060ff16613098576040517f8cd5e2c600000000000000000000000000000000000000000000000000000000815260040160405180910390fd5b816001600160a01b03811615613154576001816001600160a01b0316631881d94d6040518163ffffffff1660e01b8152600401602060405180830381865afa1580156130e8573d6000803e3d6000fd5b505050506040513d601f19601f8201168201806040525081019061310c91906158af565b600281111561311d5761311d615152565b03613154576040517f3885d60300000000000000000000000000000000000000000000000000000000815260040160405180910390fd5b82846001600160a01b03821615613222576040517f6750cd4c00000000000000000000000000000000000000000000000000000000815263ffffffff821660048201526001600160a01b03831690636750cd4c90602401602060405180830381865afa1580156131c8573d6000803e3d6000fd5b505050506040513d601f19601f820116820180604052508101906131ec91906158de565b613222576040517f9153304b00000000000000000000000000000000000000000000000000000000815260040160405180910390fd5b63ffffffff86166000908152600960205260409020546001600160a01b03908116908616810361327e576040517fc23f6ccb00000000000000000000000000000000000000000000000000000000815260040160405180910390fd5b63ffffffff871660008181526009602090815260409182902080547fffffffffffffffffffffffff0000000000000000000000000000000000000000166001600160a01b038b169081179091558251938452908301527f16aa0f528038ab41019e95bae5b418a50ba8532c5800e3b7ea2f517d3fa625f59101610dd6565b6001600160a01b03808316600090815260066020908152604080832063ffffffff861684529091529020541680611aa2575063ffffffff81166000908152600960205260409020546001600160a01b031680611aa2576040517fb6f3253d00000000000000000000000000000000000000000000000000000000815260040160405180910390fd5b61338c6145de565b600e80547fffffffffffffffffffffffff0000000000000000000000000000000000000000166001600160a01b0383169081179091556040519081527fd476ec5ec1ac11cec3714d41e7ea49419471aceb9bd0dff1becfc3e363a62396906020015b60405180910390a150565b6001600160a01b038216600090815260056020526040902054829060ff1661344d576040517f8cd5e2c600000000000000000000000000000000000000000000000000000000815260040160405180910390fd5b826001600160a01b03811615613509576000816001600160a01b0316631881d94d6040518163ffffffff1660e01b8152600401602060405180830381865afa15801561349d573d6000803e3d6000fd5b505050506040513d601f19601f820116820180604052508101906134c191906158af565b60028111156134d2576134d2615152565b03613509576040517f7865362200000000000000000000000000000000000000000000000000000000815260040160405180910390fd5b83856001600160a01b038216156135d7576040517f6750cd4c00000000000000000000000000000000000000000000000000000000815263ffffffff821660048201526001600160a01b03831690636750cd4c90602401602060405180830381865afa15801561357d573d6000803e3d6000fd5b505050506040513d601f19601f820116820180604052508101906135a191906158de565b6135d7576040517f9153304b00000000000000000000000000000000000000000000000000000000815260040160405180910390fd5b6135df6145de565b8460000361362b5763ffffffff87166000908152600b6020526040812080547fffffffffffffffffffffffff0000000000000000000000000000000000000000168155600101556136b1565b438511613664576040517fd36c850000000000000000000000000000000000000000000000000000000000815260040160405180910390fd5b63ffffffff87166000908152600b6020526040902080547fffffffffffffffffffffffff0000000000000000000000000000000000000000166001600160a01b0388161781556001018590555b6040805163ffffffff891681526001600160a01b03881660208201529081018690527f55b28633cdb29709386f555dfc54418592ad475ce7a65a78ac5928af60ffb8f890606001610dd6565b61370684614104565b6137118484846128d2565b61371c906001615d48565b67ffffffffffffffff168167ffffffffffffffff1614613774576040517f5c33785a00000000000000000000000000000000000000000000000000000000815267ffffffffffffffff82166004820152602401611572565b6001600160a01b038416600081815260016020908152604080832063ffffffff881680855290835281842087855283529281902080547fffffffffffffffffffffffffffffffffffffffffffffffff00000000000000001667ffffffffffffffff8716908117909155815193845291830186905282019290925260608101919091527f28f40053783033ef755556a0c3315379141f51a33aed8334174ffbadd90bde4890608001612f1f565b604080518082019091526000808252602082015261384460a08401608085016158fb565b80156138595750600e546001600160a01b0316155b15613890576040517f5373352a00000000000000000000000000000000000000000000000000000000815260040160405180910390fd5b6001600160a01b038216600090815260036020908152604082209082906138b990870187615219565b63ffffffff168152602080820192909252604090810160009081208784013582529092529020546138f59067ffffffffffffffff166001615d48565b905060006040518060e001604052808367ffffffffffffffff1681526020017f000000000000000000000000000000000000000000000000000000000000000063ffffffff168152602001856001600160a01b031681526020018660000160208101906139629190615219565b63ffffffff16815260200186602001358152602001613a5e847f0000000000000000000000000000000000000000000000000000000000000000888a60000160208101906139b09190615219565b8b60200135600085856001600160a01b03861660405160c09390931b7fffffffffffffffff00000000000000000000000000000000000000000000000016602084015260e091821b7fffffffff000000000000000000000000000000000000000000000000000000009081166028850152602c8401919091529085901b16604c8201526050810183905260700160405160208183030381529060405280519060200120905095945050505050565b8152602001613a706040880188615d69565b8080601f016020809104026020016040519081016040528093929190818152602001838380828437600092018290525093909452509293509150613abd9050856109ef6020890189615219565b90506001600160a01b03811663d80e9bd983613adc60608a018a615d69565b613aec60a08c0160808d016158fb565b6040518563ffffffff1660e01b8152600401613b0b9493929190615dce565b6040805180830381865afa158015613b27573d6000803e3d6000fd5b505050506040513d601f19601f820116820180604052508101906114dc9190615ec5565b6000613b6484613b5e6020880188615219565b856127f6565b613b7057506000612963565b6001600160a01b03841660009081526001602090815260408220908290613b9990890189615219565b63ffffffff1681526020808201929092526040908101600090812089840135825290925290205467ffffffffffffffff169050613bd78686836146dd565b613be5576000915050612963565b613bf0868683614778565b613bfe576000915050612963565b82613c0d576000915050612963565b50600195945050505050565b613c216145de565b6040517f01ffc9a70000000000000000000000000000000000000000000000000000000081527f97f025840000000000000000000000000000000000000000000000000000000060048201526001600160a01b038216906301ffc9a790602401602060405180830381865afa158015613c9e573d6000803e3d6000fd5b505050506040513d601f19601f82011682018060405250810190613cc291906158de565b613cf8576040517f63aaf06600000000000000000000000000000000000000000000000000000000815260040160405180910390fd5b6001600160a01b03811660009081526005602052604090205460ff1615613d4b576040517f3a81d6fc00000000000000000000000000000000000000000000000000000000815260040160405180910390fd5b6001600160a01b038116600081815260056020908152604080832080547fffffffffffffffffffffffffffffffffffffffffffffffffffffffffffffff001660019081179091556004805491820181559093527f8a35acfbc15ff81a39ae7d344fd709f28e8600b4aa8c65c6b64bfe7fe36bd19b90920180547fffffffffffffffffffffffff0000000000000000000000000000000000000000168417905590519182527f6b374d56679ca9463f27c85c6311e2bb7fde69bf201d3da39d53f10bd9d78af591016133ee565b613e1f6145de565b6001600160a01b038116613eb5576040517f08c379a000000000000000000000000000000000000000000000000000000000815260206004820152602660248201527f4f776e61626c653a206e6577206f776e657220697320746865207a65726f206160448201527f64647265737300000000000000000000000000000000000000000000000000006064820152608401611572565b613ebe81614652565b50565b6001600160a01b038516600090815260016020908152604080832063ffffffff88168452825280832086845290915281205467ffffffffffffffff90811690841681101561401c57600181015b8467ffffffffffffffff168167ffffffffffffffff1611613fb7576001600160a01b038816600090815260026020908152604080832063ffffffff8b1684528252808320898452825280832067ffffffffffffffff85168452909152902054613faf576040517f5c33785a00000000000000000000000000000000000000000000000000000000815267ffffffffffffffff82166004820152602401611572565b600101613f0e565b506001600160a01b038716600090815260016020908152604080832063ffffffff8a1684528252808320888452909152902080547fffffffffffffffffffffffffffffffffffffffffffffffff00000000000000001667ffffffffffffffff86161790555b82516020808501919091206001600160a01b038916600090815260028352604080822063ffffffff8b1683528452808220898352845280822067ffffffffffffffff8916835290935291909120549092508083146140b0576040517fe4bb0ca10000000000000000000000000000000000000000000000000000000081526004810182905260248101849052604401611572565b50506001600160a01b03909516600090815260026020908152604080832063ffffffff909716835295815285822094825293845284812067ffffffffffffffff909316815291909252918220919091555090565b336001600160a01b0382161480159061413757506001600160a01b038181166000908152600f6020526040902054163314155b15613ebe576040517f82b4290000000000000000000000000000000000000000000000000000000000815260040160405180910390fd5b614176614cad565b6000806141ff8561418a6020870187615219565b6001600160a01b0391909116600090815260036020908152604080832063ffffffff94909416835292815282822081890135835290522080547fffffffffffffffffffffffffffffffffffffffffffffffff00000000000000008116600167ffffffffffffffff928316019182161790915590565b905060006040518060e001604052808367ffffffffffffffff1681526020017f000000000000000000000000000000000000000000000000000000000000000063ffffffff168152602001876001600160a01b0316815260200186600001602081019061426c9190615219565b63ffffffff168152602001866020013581526020016142ba847f00000000000000000000000000000000000000000000000000000000000000008a8a60000160208101906139b09190615219565b81526020016142cc6040880188615d69565b8080601f0160208091040260200160405190810160405280939291908181526020018383808284376000920182905250939094525092935091506143199050876109ef6020890189615219565b90506000806001600160a01b038316634389e58f8561433b60608c018c615d69565b61434b60a08e0160808f016158fb565b6040518563ffffffff1660e01b815260040161436a9493929190615dce565b6000604051808303816000875af1158015614389573d6000803e3d6000fd5b505050506040513d6000823e601f3d9081017fffffffffffffffffffffffffffffffffffffffffffffffffffffffffffffffe01682016040526143cf9190810190615ee1565b90925090507f1ab700d4ced0c005b164c0f789fd09fcbb0156d4c2041b8a3bfbcd961cd1567f8161440360608b018b615d69565b866040516144149493929190615f30565b60405180910390a1506040805160608101825260a090940151845267ffffffffffffffff909416602084015292820192909252925090509250929050565b6000811561451b57600e546040517f70a082310000000000000000000000000000000000000000000000000000000081523060048201526001600160a01b03909116906370a0823190602401602060405180830381865afa1580156144bb573d6000803e3d6000fd5b505050506040513d601f19601f820116820180604052508101906144df9190615f71565b90508060000361451b576040517fe801604300000000000000000000000000000000000000000000000000000000815260040160405180910390fd5b919050565b82518210806145325750808360200151115b15612d9057825160208401516040517fe273c847000000000000000000000000000000000000000000000000000000008152600481019290925260248201849052604482015260648101829052608401611572565b8315614598576145988583866148b8565b828410156145ad576145ad85828686036148b8565b5050505050565b83156145c4576145c4828561490c565b828410156145d8576145d88185850361490c565b50505050565b6000546001600160a01b031633146121c3576040517f08c379a000000000000000000000000000000000000000000000000000000000815260206004820181905260248201527f4f776e61626c653a2063616c6c6572206973206e6f7420746865206f776e65726044820152606401611572565b600080546001600160a01b038381167fffffffffffffffffffffffff0000000000000000000000000000000000000000831681178455604051919092169283917f8be0079c531659141344cd1fd0a4f28419497f9722a3daafe3b4186f6b6457e09190a35050565b6001600160a01b0383166146d257612d90828261490c565b612d908383836148b8565b6000808267ffffffffffffffff16118061296357506040517fff7bd03d0000000000000000000000000000000000000000000000000000000081526001600160a01b0384169063ff7bd03d90614737908790600401615f8a565b602060405180830381865afa158015614754573d6000803e3d6000fd5b505050506040513d601f19601f8201168201806040525081019061296391906158de565b600067ffffffffffffffff8216614795606086016040870161577c565b67ffffffffffffffff16118061296357506001600160a01b038316600090815260026020908152604082209082906147cf90880188615219565b63ffffffff1663ffffffff1681526020019081526020016000206000866020013581526020019081526020016000206000866040016020810190614813919061577c565b67ffffffffffffffff1681526020810191909152604001600020541415949350505050565b8061486f576040517fa84ab60d00000000000000000000000000000000000000000000000000000000815260040160405180910390fd5b6001600160a01b03909416600090815260026020908152604080832063ffffffff909616835294815284822093825292835283812067ffffffffffffffff909216815291522055565b6001600160a01b0382166148f8576040517f32fa6a1d00000000000000000000000000000000000000000000000000000000815260040160405180910390fd5b612d906001600160a01b03841683836149eb565b6001600160a01b03821661494c576040517f32fa6a1d00000000000000000000000000000000000000000000000000000000815260040160405180910390fd5b6000826001600160a01b03168260405160006040518083038185875af1925050503d8060008114614999576040519150601f19603f3d011682016040523d82523d6000602084013e61499e565b606091505b5050905080612d90576040517f2c024f920000000000000000000000000000000000000000000000000000000081526001600160a01b038416600482015260248101839052604401611572565b604080516001600160a01b03848116602483015260448083018590528351808403909101815260649092018352602080830180517bffffffffffffffffffffffffffffffffffffffffffffffffffffffff167fa9059cbb0000000000000000000000000000000000000000000000000000000017905283518085019094528084527f5361666545524332303a206c6f772d6c6576656c2063616c6c206661696c656490840152612d9092869291600091614aa9918516908490614b56565b9050805160001480614aca575080806020019051810190614aca91906158de565b612d90576040517f08c379a000000000000000000000000000000000000000000000000000000000815260206004820152602a60248201527f5361666545524332303a204552433230206f7065726174696f6e20646964206e60448201527f6f742073756363656564000000000000000000000000000000000000000000006064820152608401611572565b6060612963848460008585600080866001600160a01b03168587604051614b7d9190615f98565b60006040518083038185875af1925050503d8060008114614bba576040519150601f19603f3d011682016040523d82523d6000602084013e614bbf565b606091505b5091509150614bd087838387614bdb565b979650505050505050565b60608315614c64578251600003614c5d576001600160a01b0385163b614c5d576040517f08c379a000000000000000000000000000000000000000000000000000000000815260206004820152601d60248201527f416464726573733a2063616c6c20746f206e6f6e2d636f6e74726163740000006044820152606401611572565b5081612963565b6129638383815115614c795781518083602001fd5b806040517f08c379a00000000000000000000000000000000000000000000000000000000081526004016115729190615029565b604051806060016040528060008019168152602001600067ffffffffffffffff168152602001614cf0604051806040016040528060008152602001600081525090565b905290565b600060608284031215614d0757600080fd5b50919050565b80356001600160a01b038116811461451b57600080fd5b60008083601f840112614d3657600080fd5b50813567ffffffffffffffff811115614d4e57600080fd5b60208301915083602082850101111561174d57600080fd5b600080600080600080600060e0888a031215614d8157600080fd5b614d8b8989614cf5565b9650614d9960608901614d0d565b95506080880135945060a088013567ffffffffffffffff80821115614dbd57600080fd5b614dc98b838c01614d24565b909650945060c08a0135915080821115614de257600080fd5b50614def8a828b01614d24565b989b979a50959850939692959293505050565b803563ffffffff8116811461451b57600080fd5b60008060008060808587031215614e2c57600080fd5b614e3585614d0d565b9350614e4360208601614e02565b9250614e5160408601614d0d565b9396929550929360600135925050565b60008060408385031215614e7457600080fd5b823567ffffffffffffffff811115614e8b57600080fd5b830160a08186031215614e9d57600080fd5b9150614eab60208401614d0d565b90509250929050565b60006080820190508251825267ffffffffffffffff60208401511660208301526040830151614ef0604084018280518252602090810151910152565b5092915050565b600080600080600060c08688031215614f0f57600080fd5b614f1886614d0d565b9450614f278760208801614cf5565b93506080860135925060a086013567ffffffffffffffff811115614f4a57600080fd5b614f5688828901614d24565b969995985093965092949392505050565b60008060008060808587031215614f7d57600080fd5b614f8685614d0d565b9350614f9460208601614d0d565b9250614fa260408601614e02565b9150614fb060608601614e02565b905092959194509250565b60005b83811015614fd6578181015183820152602001614fbe565b50506000910152565b60008151808452614ff7816020860160208601614fbb565b601f017fffffffffffffffffffffffffffffffffffffffffffffffffffffffffffffffe0169290920160200192915050565b6020815260006128cb6020830184614fdf565b803567ffffffffffffffff8116811461451b57600080fd5b600080600080600060a0868803121561506c57600080fd5b61507586614d0d565b945061508360208701614e02565b9350604086013592506150986060870161503c565b949793965091946080013592915050565b803561ffff8116811461451b57600080fd5b600080600080608085870312156150d157600080fd5b6150da85614d0d565b93506150e860208601614d0d565b925060408501359150614fb0606086016150a9565b6000806040838503121561511057600080fd5b61511983614d0d565b9150614eab60208401614e02565b6000806080838503121561513a57600080fd5b6151448484614cf5565b9150614eab60608401614d0d565b7f4e487b7100000000000000000000000000000000000000000000000000000000600052602160045260246000fd5b60208101600383106151bc577f4e487b7100000000000000000000000000000000000000000000000000000000600052602160045260246000fd5b91905290565b6000602082840312156151d457600080fd5b6128cb82614d0d565b6000806000606084860312156151f257600080fd5b6151fb84614d0d565b925061520960208501614e02565b9150604084013590509250925092565b60006020828403121561522b57600080fd5b6128cb82614e02565b6000806000806000806000806000806000806101208d8f03121561525757600080fd5b6152608d614d0d565b9b5061526e60208e01614d0d565b9a5060408d0135995061528360608e016150a9565b985060808d0135975060a08d0135965067ffffffffffffffff60c08e013511156152ac57600080fd5b6152bc8e60c08f01358f01614d24565b909650945067ffffffffffffffff60e08e013511156152da57600080fd5b6152ea8e60e08f01358f01614d24565b909450925067ffffffffffffffff6101008e0135111561530957600080fd5b61531a8e6101008f01358f01614d24565b81935080925050509295989b509295989b509295989b565b60008060008060008060008060008060006101408c8e03121561535457600080fd5b61535e8d8d614cf5565b9a5061536c60608d01614d0d565b995060808c0135985060a08c0135975060c08c0135965067ffffffffffffffff8060e08e0135111561539d57600080fd5b6153ad8e60e08f01358f01614d24565b90975095506101008d01358110156153c457600080fd5b6153d58e6101008f01358f01614d24565b90955093506101208d01358110156153ec57600080fd5b506153fe8d6101208e01358e01614d24565b81935080925050509295989b509295989b9093969950565b6000806000806060858703121561542c57600080fd5b61543585614d0d565b935061544360208601614d0d565b9250604085013567ffffffffffffffff8082111561546057600080fd5b818701915087601f83011261547457600080fd5b81358181111561548357600080fd5b8860208260051b850101111561549857600080fd5b95989497505060200194505050565b6000806000806000608086880312156154bf57600080fd5b6154c886614d0d565b9450602086013593506154dd604087016150a9565b9250606086013567ffffffffffffffff811115614f4a57600080fd5b6020808252825182820181905260009190848201906040850190845b8181101561553a5783516001600160a01b031683529284019291840191600101615515565b50909695505050505050565b60008060008060008060008060c0898b03121561556257600080fd5b61556b89614d0d565b975061557960208a01614d0d565b96506040890135955061558e60608a016150a9565b9450608089013567ffffffffffffffff808211156155ab57600080fd5b6155b78c838d01614d24565b909650945060a08b01359150808211156155d057600080fd5b506155dd8b828c01614d24565b999c989b5096995094979396929594505050565b60008060006060848603121561560657600080fd5b61560f84614d0d565b925061561d60208501614e02565b915061562b60408501614d0d565b90509250925092565b60008060006060848603121561564957600080fd5b61565284614e02565b925061520960208501614d0d565b60008060006060848603121561567557600080fd5b61565284614d0d565b600080600060a0848603121561569357600080fd5b61569d8585614cf5565b92506156ab60608501614d0d565b9150608084013590509250925092565b600080604083850312156156ce57600080fd5b614e9d83614e02565b600080600080608085870312156156ed57600080fd5b6156f685614d0d565b935061570460208601614e02565b925060408501359150614fb06060860161503c565b815181526020808301519082015260408101611aa2565b60008060008060c0858703121561574657600080fd5b6157508686614cf5565b935061575e60608601614d0d565b925061576c60808601614d0d565b9396929550929360a00135925050565b60006020828403121561578e57600080fd5b6128cb8261503c565b838152818360208301376000910160200190815292915050565b63ffffffff6157bf82614e02565b1682526020810135602083015267ffffffffffffffff6157e16040830161503c565b1660408301525050565b8183528181602085013750600060208284010152600060207fffffffffffffffffffffffffffffffffffffffffffffffffffffffffffffffe0601f840116840101905092915050565b61583e81896157b1565b86606082015260e06080820152600061585b60e0830187896157eb565b6001600160a01b03861660a084015282810360c084015261587d8185876157eb565b9a9950505050505050505050565b6080810161589982856157b1565b6001600160a01b03831660608301529392505050565b6000602082840312156158c157600080fd5b8151600381106128cb57600080fd5b8015158114613ebe57600080fd5b6000602082840312156158f057600080fd5b81516128cb816158d0565b60006020828403121561590d57600080fd5b81356128cb816158d0565b7f4e487b7100000000000000000000000000000000000000000000000000000000600052604160045260246000fd5b600082601f83011261595857600080fd5b815167ffffffffffffffff8082111561597357615973615918565b604051601f83017fffffffffffffffffffffffffffffffffffffffffffffffffffffffffffffffe0908116603f011681019082821181831017156159b9576159b9615918565b816040528381528660208588010111156159d257600080fd5b6114dc846020830160208901614fbb565b6000602082840312156159f557600080fd5b815167ffffffffffffffff811115615a0c57600080fd5b61296384828501615947565b8a815261ffff8a16602082015288604082015287606082015260e060808201526000615a4860e08301888a6157eb565b82810360a0840152615a5b8187896157eb565b905082810360c0840152615a708185876157eb565b9d9c50505050505050505050505050565b7f4e487b7100000000000000000000000000000000000000000000000000000000600052601160045260246000fd5b80820180821115611aa257611aa2615a81565b6000610120615ad2838e6157b1565b8b60608401528a60808401528960a08401528060c0840152615af7818401898b6157eb565b905082810360e0840152615b0c8187896157eb565b9050828103610100840152615a708185876157eb565b600060408083016001600160a01b03871684526020604081860152818683526060925060608601905060608760051b8701018860005b89811015615c63577fffffffffffffffffffffffffffffffffffffffffffffffffffffffffffffffa089840301845281357fffffffffffffffffffffffffffffffffffffffffffffffffffffffffffffffa18c3603018112615bb957600080fd5b8b0163ffffffff80615bca83614e02565b16855280615bd9888401614e02565b168786015250878101357fffffffffffffffffffffffffffffffffffffffffffffffffffffffffffffffe1823603018112615c1357600080fd5b01858101903567ffffffffffffffff811115615c2e57600080fd5b803603821315615c3d57600080fd5b8789860152615c4f88860182846157eb565b958701959450505090840190600101615b58565b50909a9950505050505050505050565b8183823760009101908152919050565b60006001600160a01b03808916835280881660208401525085604083015261ffff8516606083015260a06080830152615cc060a0830184866157eb565b98975050505050505050565b60006001600160a01b03808a16835288602084015260a06040840152615cf660a08401888a6157eb565b81871660608501528381036080850152615d118186886157eb565b9b9a5050505050505050505050565b60a08101615d2e82866157b1565b6001600160a01b0393909316606082015260800152919050565b67ffffffffffffffff818116838216019080821115614ef057614ef0615a81565b60008083357fffffffffffffffffffffffffffffffffffffffffffffffffffffffffffffffe1843603018112615d9e57600080fd5b83018035915067ffffffffffffffff821115615db957600080fd5b60200191503681900382131561174d57600080fd5b6060815267ffffffffffffffff855116606082015263ffffffff60208601511660808201526001600160a01b0360408601511660a082015260006060860151615e1f60c084018263ffffffff169052565b50608086015160e083015260a086015161010083015260c086015160e0610120840152615e50610140840182614fdf565b90508281036020840152615e658186886157eb565b915050613033604083018415159052565b600060408284031215615e8857600080fd5b6040516040810181811067ffffffffffffffff82111715615eab57615eab615918565b604052825181526020928301519281019290925250919050565b600060408284031215615ed757600080fd5b6128cb8383615e76565b60008060608385031215615ef457600080fd5b615efe8484615e76565b9150604083015167ffffffffffffffff811115615f1a57600080fd5b615f2685828601615947565b9150509250929050565b606081526000615f436060830187614fdf565b8281036020840152615f568186886157eb565b9150506001600160a01b038316604083015295945050505050565b600060208284031215615f8357600080fd5b5051919050565b60608101611aa282846157b1565b60008251615faa818460208701614fbb565b919091019291505056fea264697066735822122086e1ebfd4439c4a1c599a06af34ba4f6f43998236d3d89fb05316f09741a8a7e64736f6c63430008160033608060405234801561001057600080fd5b5061026f806100206000396000f3fe608060405234801561001057600080fd5b506004361061004c5760003560e01c806301ffc9a71461007e5780631881d94d146100a657806354fd4d50146100b55780636750cd4c146100dc575b6040517fd623472500000000000000000000000000000000000000000000000000000000815260040160405180910390fd5b61009161008c366004610189565b6100f0565b60405190151581526020015b60405180910390f35b600260405161009d91906101d2565b6040805167ffffffffffffffff815260ff602082015260029181019190915260600161009d565b6100916100ea366004610213565b50600190565b60007fffffffff0000000000000000000000000000000000000000000000000000000082167f97f0258400000000000000000000000000000000000000000000000000000000148061018357507f01ffc9a7000000000000000000000000000000000000000000000000000000007fffffffff000000000000000000000000000000000000000000000000000000008316145b92915050565b60006020828403121561019b57600080fd5b81357fffffffff00000000000000000000000000000000000000000000000000000000811681146101cb57600080fd5b9392505050565b602081016003831061020d577f4e487b7100000000000000000000000000000000000000000000000000000000600052602160045260246000fd5b91905290565b60006020828403121561022557600080fd5b813563ffffffff811681146101cb57600080fdfea264697066735822122093dd196808f6be235b3a1fbe17f1b527c6caf755f44b0900d5937f3e0d93500964736f6c63430008160033",
  "linkReferences": {},
  "deployedLinkReferences": {}
}